:100000000C9404010C943A010C943A010C943A01BA
:100010000C943A010C943A010C943A010C943A0174
:100020000C943A010C943A010C943A010C943A0164
:100030000C943A010C943A010C943A010C943A0154
:100040000C943A010C944C060C943A010C943A012D
:100050000C943A010C943A010C943A010C949C0DC6
:100060000C943A010C9448070C9494080C943A01AF
:100070000C943A010C943A010C943A010C943A0114
:100080000C943A010C943A010C943A010C943A0104
:100090000C9488070C94D3080C943A010C943A0100
:1000A0000C943A010C943A010C943A010C943A01E4
:1000B0000C943A010C943A010C943A010C943A01D4
:1000C0000C943A010C943A010C943A010C94C80730
:1000D0000C9412090C943A010C9408080C945109E0
:1000E0000C943A0100002100240027002A002D0072
:1000F0003000330001010000040107010A01000083
:100100002200250028002B002E00310034000201BF
:100110000000050108010B0100002000230026005B
:1001200029002C002F00320000010000030106010D
:10013000090105050505070508080808020202026D
:100140000A0A080804040404010101010101010173
:100150000303030303030303040707070C0C0C0C3E
:100160000C0C0C0C02020202060606060606060627
:100170000B0B0B0B0B0B0B0B0102102020080810B4
:100180002040102040800201020108040201010207
:1001900004081020408080402010080402018004E0
:1001A000020180402010080402010804020101023B
:1001B0000408102040800102040810204080000044
:1001C000090A02080B0C0D070603040100000000D9
:1001D000000000000000000000000000000000001F
:1001E0000000000000000000000011100F000000DF
:1001F00000000000000000000000000000000000FF
:10020000000000004E01C40A11241FBECFEFD1E24E
:10021000DEBFCDBF00E00CBF14BE88E10FB6F8947E
:1002200080936000109260000FBE12E0A0E0B2E088
:10023000E0E6F3E200E00BBF02C007900D92A43DA0
:10024000B107D9F71BBE15E0A4EDB2E001C01D92C5
:10025000A73CB107E1F712E0C8E0D2E004C0229762
:10026000FE010E94AA11C430D107C9F70E94FA0BFF
:100270000C94AE110C940000FB01DC0102C0019053
:100280000D9241505040D8F70895FB01DC018D914B
:10029000019080190110D9F3990B08950F9386ED01
:1002A00092E068E047E026E005E00E946C038BEDF9
:1002B00092E06CE04BE02AE009E00E946C030F91B1
:1002C00008958F929F92AF92BF92CF92DF92EF925A
:1002D000FF920F931F93DF93CF93CDB7DEB7CA562C
:1002E000D1400FB6F894DEBF0FBECDBF08C086ED7B
:1002F00092E04DEC5CEC6CEC7DEB0E94030489E336
:100300000E94500E8536910594F74E010894811C89
:10031000911C740100E010E08091D4020E94500E04
:10032000F7019183808386E395E0B8014AE050E0CD
:100330000E94250D86E395E060E072E00E94570D73
:10034000F701619171917F0186E395E04AE050E009
:100350000E94380D86ED92E040E050E060E87FE3D7
:100360000E9403040F5F1F4F043B1105A9F6809103
:10037000D4020E94500E8E0107591E4FF80191833E
:10038000808386E395E064EB70E04AE050E00E94F1
:10039000250D86E395E060E072E00E94570DF801BC
:1003A0006081718186E395E04AE050E00E94380D5B
:1003B00054019E012D5F3F4FD901F40140815181CD
:1003C000BE0165597E4F8D919C9111974817590731
:1003D00014F45D01AC011296A617B707A1F78901C5
:1003E0006401F40120813181F801808191818217BB
:1003F000930714F468019C010E5F1F4FA017B1070B
:1004000099F7740108C082E090E0E80EF91EAE157D
:10041000BF0509F481C0F701808191814817590710
:1004200091F7840106C00E5F1F4FA017B10709F4B2
:1004300075C0F8018081918128173907A1F786E3FB
:1004400095E062E072E00E94570DF50160817181D4
:1004500086E395E04AE050E00E94380DE818F9087C
:10046000F594E79486E395E0B7014AE050E00E94F6
:10047000380D86E395E067E072E00E94570DF601C3
:100480006081718186E395E04AE050E00E94380D7A
:10049000081919091595079586E395E0B8014AE012
:1004A00050E00E94380D8CE49FEFE80EF91E86E3C1
:1004B00095E06CE072E00E94570D86E395E0B7018D
:1004C0004AE050E00E94380D0027F7FC0095102FFD
:1004D000C801B7010E945010AB01BC0186ED92E04B
:1004E0000E94030486E395E06AE172E00E94760DC3
:1004F000C659DE4F0FB6F894DEBF0FBECDBFCF9109
:10050000DF911F910F91FF90EF90DF90CF90BF9000
:10051000AF909F908F9008957B0183CF8B018FCFF9
:100520000F931F93DF93CF93CDB7DEB76F970FB6BF
:10053000F894DEBF0FBECDBF8EE189830E943906DD
:100540008E010E5F1F4FC801BE016F5F7F4F0E947B
:10055000D606882359F46F960FB6F894DEBF0FBE07
:10056000CDBFCF91DF911F910F910895C80161E236
:1005700072E00E944501009709F463C0C8016AE275
:1005800072E00E944501009709F452C0C80163E37C
:1005900072E00E944501009709F441C0C8016CE374
:1005A00072E00E944501009759F1C80161E472E0D0
:1005B0000E9445010097A9F0F8018081882359F62F
:1005C0008091E0029091E1028F5F9F4F09F442C059
:1005D0008BED92E040E050E060E87FE30E9403048E
:1005E000BACF8BED92E040E050E060E87FE30E94FC
:1005F000030481E090E09093E1028093E002DCCF7D
:100600008BED92E040E050E060E87FEB0E94030455
:100610008FEF9FEF9093E1028093E002C6CF88E3D3
:1006200090E09093D5028093D4020E946101B6CFEE
:1006300087E390E09093D5028093D4020E946101F9
:10064000A5CF86E390E09093D5028093D4020E94D8
:10065000610194CF8BED92E040E050E060E87FEBE9
:100660000E94030478CF0F931F9306E315E0C8019F
:1006700040E855E260E070E00E949009C80167E43C
:1006800072E00E94760D82E00E94C00483E00E9426
:10069000C30484E00E94C60481E00E94C90480ED86
:1006A00097E00E9408070E942F0686ED92E00E94C4
:1006B00051048BED92E00E94510486E360E00E94B9
:1006C000850E87E360E00E94850E88E360E00E946B
:1006D000850E1F910F9108950F93FC016083418354
:1006E000228303830F910895CF92DF92EF92FF92BE
:1006F0000F931F93CF93DF93EC016B01611571058D
:1007000099F1EE24FF2407E029C00C83EC81F0E08E
:10071000E256FD4F8081182F60E010FD61E0888176
:100720000E94470F60E011FD61E089810E94470F40
:1007300060E012FD61E08A810E94470F60E013FDD6
:1007400061E08B810E94470F88E893E10E94E40DED
:100750000894E11CF11CEC14FD0430F48C81882316
:10076000A1F281508C83D2CFDF91CF911F910F9155
:10077000FF90EF90DF90CF900895CF92DF92EF92AD
:10078000FF921F93CF93DF93EC016B01611571050D
:1007900091F1EE24FF242AC08F5F8C83EC81F0E07E
:1007A000E256FD4F8081182F60E010FD61E08881E6
:1007B0000E94470F60E011FD61E089810E94470FB0
:1007C00060E012FD61E08A810E94470F60E013FD46
:1007D00061E08B810E94470F88E893E10E94E40D5D
:1007E0000894E11CF11CEC14FD0428F48C81873082
:1007F00099F61C82D3CFDF91CF911F91FF90EF909C
:10080000DF90CF900895AF92BF92CF92DF92EF9298
:10081000FF920F931F93CF93DF93EC015A016B016B
:10082000CB01BA0128ED31E843EB5DE30E94B50F3F
:100830007B018C0120E030E040E050E00E9400119C
:1008400018161CF5C801B7010E941D108B01C601C6
:10085000B50120E030E040E050E00E940011882324
:100860007CF0CE01B8010E94BD03DF91CF911F91B2
:100870000F91FF90EF90DF90CF90BF90AF900895D1
:10088000CE01B8010E947403F0CFC601B50128ED76
:1008900031E843EB5DEB0E94B50F0E941D108B0108
:1008A000D6CF0F931F938C01FC01808161E00E94E1
:1008B000850EF801818161E00E94850EF801828138
:1008C00061E00E94850EF801838161E00E94850E3F
:1008D000F8011482808160E00E94470FF801818155
:1008E00060E00E94470FF801828160E00E94470F9C
:1008F000F801838161E00E94470F1F910F910895D5
:100900006827462F4295407F462750E0742F662780
:10091000292F30E0622B732BCA01880F991F880F93
:10092000991F880F991F68277927529542954F7014
:1009300045275F70452764277527CB0108950F93DE
:100940001F93CF93DF936623C1F06150EC012FEF2B
:100950003FEF062F10E00F5F1F4F080F191F69911F
:10096000C9010E9480049C01C017D107C1F7C901C9
:10097000DF91CF911F910F9108952FEF3FEFF7CFA8
:1009800080935702089580935602089580939C02A5
:10099000089580930C0308959091E402992329F01F
:1009A00080910D038F5F80930D0380910E03981744
:1009B00009F49BC020910F03203508F483C08DE11A
:1009C000820F80930F0390930E03982F903A08F4B0
:1009D0008BC02091100330911103369527953093E9
:1009E00011032093100380910D03853028F03860A7
:1009F0003093110320931003905A90930F03109299
:100A00000D0380910B03882309F45EC080911203CB
:100A10008F5F809312038C3008F466C040911003FE
:100A200050911103942F9F7320E030E0F901EA55B3
:100A3000FD4F8081981709F460C02F5F3F4F203130
:100A40003105A1F7E0E00024440F551F001C440FBE
:100A5000551F001C452F502D242FA6EAB2E090E030
:100A60008C91281709F447C09F5F11969031C1F708
:100A700080E0982F9E2B8091EC02882331F4909394
:100A80001303892F84508B31E0F58091EC02E82F1D
:100A9000F0E0E351FD4F90838F5F8093EC029091E3
:100AA000EC0280911303981750F010920B03809181
:100AB00015038F5F8093150381E08093EB02109202
:100AC000120308958BE07CCF809110039091110365
:100AD00088539B4049F481E080930B0310921203EA
:100AE0001092EC021092EB02089590910F039C5E1D
:100AF00090930F036BCF892FBCCFE22FE295E07F5D
:100B0000A2CF10920B03809114038F5F8093140384
:100B100008952F923F924F925F926F927F928F92A1
:100B20009F92AF92BF92CF92DF92FF920F931F934B
:100B3000DF93CF93CDB7DEB72E970FB6F894DEBF15
:100B40000FBECDBF1B012A01DE011196E6EBF2E0DC
:100B50002EE001900D922150E1F7009709F47AC040
:100B6000BC0180E090E00E944E109B01AC0160E06F
:100B700070E080E89FE30E94B50F20E030E040E0A5
:100B80005EE30E9404115B016C018E010D5F1F4F3B
:100B9000FF24F394310188249924F8016081718144
:100BA00080E090E00E944E109B01AC0160E074E296
:100BB00084E79BE40E94B50F9B01AC0160E070E00C
:100BC00080E89FE30E94B50F9B01AC01C601B5010F
:100BD0000E94B50F0E941D106230710581059105BC
:100BE00038F0A4019301661577058805990578F119
:100BF000F3940E5F1F4FF7E0FF1679F66230710530
:100C00008105910538F1910140E050E02617370742
:100C100048075907F8F0F201718360838F2D2E96F3
:100C20000FB6F894DEBF0FBECDBFCF91DF911F91FD
:100C30000F91FF90DF90CF90BF90AF909F908F90DB
:100C40007F906F905F904F903F902F900895E6E0D7
:100C5000FE16E1F6F20111821082FF24DFCF8091AF
:100C6000E202882329F481E08093E20210920B03D0
:100C700008958091EB028823E1F3089580919C020E
:100C800060910C030E94470F8091570260E00E9420
:100C9000470F1092E30208951F920F920FB60F9222
:100CA0000BB60F9211242F933F934F935F936F9343
:100CB0007F938F939F93AF93BF93EF93FF93809115
:100CC000E202882329F08091E302882309F459C0C5
:100CD0008091E302882309F44EC09091E502892FA8
:100CE0009F5F9093E5028823F9F0983010F01092FE
:100CF000E5028091E202882321F08091E3028823BB
:100D0000E9F1FF91EF91BF91AF919F918F917F9109
:100D10006F915F914F913F912F910F900BBE0F906C
:100D20000FBE0F901F901895E091E6028091E702A8
:100D3000E81770F5809157029091EA0221E030E0C7
:100D4000092E02C0220F331F0A94E2F7F0E0E85A9E
:100D5000FD4F608162239F5F9093EA020E94470FDC
:100D60008091EA02863038F01092EA028091E60221
:100D70008F5F8093E6029091E502B7CF0E94CC048A
:100D8000C0CF809156020E947D0F8093E402A0CFD5
:100D90000E943E068091E8029091E90201969093AC
:100DA000E9028093E8029091E5029FCF0F931F9391
:100DB000282FFB018091EB02882301F14091EC0286
:100DC000435080814817C0F0482F0EEE12E0822F6A
:100DD000B80150E00E943C011092EB026091EC02DD
:100DE000C80101970E949F0420E0885B904F59F052
:100DF000822F1F910F9108954083E7CF20E0822F2B
:100E00001F910F91089521E0822F1F910F91089556
:100E1000DF93CF930F920F92CDB7DEB76FEF7FEFD7
:100E2000AE014F5F5F4F0E948905982F882351F1D3
:100E30001092800088E08093810080918100892B4E
:100E40008093810089819A819093890080938800A2
:100E500080916F00826080936F008091570261E003
:100E60000E94850E8091560260E00E94850E80915E
:100E70009C0261E00E94850E80919C0260910C03AF
:100E80000E94470F0F900F90CF91DF910895089522
:100E90001F920F920FB60F920BB60F9211242F9341
:100EA0003F934F938F939F93EF93FF938091C00055
:100EB00082FD2AC04091C60020915603309157030D
:100EC0002F5F3F4F2F7330708091580390915903DB
:100ED0002817390759F0E0915603F0915703EA5E5D
:100EE000FC4F40833093570320935603FF91EF91BB
:100EF0009F918F914F913F912F910F900BBE0F902B
:100F00000FBE0F901F9018958091C600EFCF0895E7
:100F10001F920F920FB60F920BB60F9211242F93C0
:100F20003F934F938F939F93EF93FF938091C800CC
:100F300082FD2AC04091CE002091DE033091DF0374
:100F40002F5F3F4F2F7330708091E0039091E1034A
:100F50002817390759F0E091DE03F091DF03E256DC
:100F6000FC4F40833093DF032093DE03FF91EF912A
:100F70009F918F914F913F912F910F900BBE0F90AA
:100F80000FBE0F901F9018958091CE00EFCF08955F
:100F90001F920F920FB60F920BB60F9211242F9340
:100FA0003F934F938F939F93EF93FF938091D00044
:100FB00082FD2AC04091D6002091660430916704DA
:100FC0002F5F3F4F2F7330708091680490916904B8
:100FD0002817390759F0E0916604F0916704EA5D3B
:100FE000FB4F40833093670420936604FF91EF9199
:100FF0009F918F914F913F912F910F900BBE0F902A
:101000000FBE0F901F9018958091D600EFCF0895D6
:101010001F920F920FB60F920BB60F9211242F93BF
:101020003F934F938F939F93EF93FF938091300162
:1010300082FD2AC0409136012091EE043091EF04E8
:101040002F5F3F4F2F7330708091F0049091F10427
:101050002817390759F0E091EE04F091EF04E255BA
:10106000FB4F40833093EF042093EE04FF91EF9108
:101070009F918F914F913F912F910F900BBE0F90A9
:101080000FBE0F901F90189580913601EFCFE09121
:101090004205F0914305E05CFF4F819191912081E1
:1010A0003181821B930B8F739070892BD1F5E09166
:1010B0006405F0916505E05CFF4F8191919120817D
:1010C0003181821B930B8F739070892B39F5E091DE
:1010D0008605F0918705E05CFF4F81919191208119
:1010E0003181821B930B8F739070892BA1F4E09157
:1010F000A805F091A905E05CFF4F819191912081B5
:101100003181821B930B8F739070892B09F40895A2
:101110000E94070808950E94C707E9CF0E94870729
:10112000D6CF0E944707C3CF1F920F920FB60F92E0
:101130000BB60F9211242F933F938F939F93EF93AE
:10114000FF9320919A0330919B0380919C0390918F
:101150009D032817390709F1E0919C03F0919D0345
:10116000E65AFC4F208180919C0390919D0301964B
:101170008F73907090939D0380939C032093C6007F
:10118000FF91EF919F918F913F912F910F900BBE07
:101190000F900FBE0F901F9018958091C1008F7D0A
:1011A0008093C100EDCF1F920F920FB60F920BB636
:1011B0000F9211242F933F938F939F93EF93FF935D
:1011C00020912204309123048091240490912504DD
:1011D0002817390709F1E0912404F0912504EE5114
:1011E000FC4F2081809124049091250401968F73F7
:1011F000907090932504809324042093CE00FF9157
:10120000EF919F918F913F912F910F900BBE0F9077
:101210000FBE0F901F9018958091C9008F7D80930D
:10122000C900EDCF1F920F920FB60F920BB60F921F
:1012300011242F933F938F939F93EF93FF932091CC
:10124000AA043091AB048091AC049091AD042817AE
:10125000390709F1E091AC04F091AD04E659FB4F78
:1012600020818091AC049091AD0401968F739070B1
:101270009093AD048093AC042093D600FF91EF913E
:101280009F918F913F912F910F900BBE0F900FBEAA
:101290000F901F9018958091D1008F7D8093D10081
:1012A000EDCF1F920F920FB60F920BB60F92112433
:1012B0002F933F938F939F93EF93FF93209132054A
:1012C0003091330580913405909135052817390701
:1012D00009F1E0913405F0913505EE50FB4F208186
:1012E000809134059091350501968F73907090939D
:1012F00035058093340520933601FF91EF919F913E
:101300008F913F912F910F900BBE0F900FBE0F90BA
:101310001F901895809131018F7D80933101EDCF21
:10132000DF92EF92FF920F931F93CF93DF93EC0125
:101330007A018B01DD24403081EE580780E0680798
:1013400080E0780721F1DD24D394EC89FD8981E0E8
:1013500090E008A002C0880F991F0A94E2F78083EA
:1013600060E079E08DE390E0A80197010E9486118A
:10137000215030404040504056954795379527952D
:1013800080E120303807D0F0DD20C1F0DD24EC8989
:10139000FD89108260E874E88EE190E0A801970171
:1013A0000E9486112150304040405040569547954C
:1013B0003795279580E12030380730F7E889F9899B
:1013C0003083EA89FB89208319A2EE89FF89408155
:1013D00021E030E0C9010C8C02C0880F991F0A94EB
:1013E000E2F7482B4083EE89FF894081C9010D8CCB
:1013F00002C0880F991F0A94E2F7482B4083EE89B8
:10140000FF894081C9010E8C02C0880F991F0A9480
:10141000E2F7482B4083EE89FF8980810F8C02C060
:10142000220F331F0A94E2F7209528232083DF91AF
:10143000CF911F910F91FF90EF90DF900895DC0105
:101440001C96ED91FC911D97E05CFF4F219131912D
:1014500080819181281B390B2F733070C901089549
:10146000DC011C96ED91FC911D97E05CFF4F208103
:101470003181E054F040DF01AE5BBF4F8D919C9114
:1014800011972817390749F08D919C91E80FF91FA2
:101490008081282F30E0C90108952FEF3FEFC90167
:1014A0000895DC011C96ED91FC911D97E05CFF4FC7
:1014B00020813181E054F040DF01AE5BBF4F8D9160
:1014C0009C9111972817390791F08D919C91119754
:1014D000E80FF91F20818D919C91119701968F73D0
:1014E000907011969C938E9330E0C90108952FEF70
:1014F0003FEFC9010895FC0181A1882311F411A2D5
:101500000895A489B5898C9186FFFDCF11A2089515
:10151000CF93DF93EC01AE85BF85AD01405C5F4F9B
:10152000FA01208131812F5F3F4F2F733070FD0111
:10153000EE5BFF4F8081918128173907D9F3FA01BB
:1015400080819181A80FB91F6C93EE85FF85E05CC7
:10155000FF4F31832083EE89FF89208181E090E075
:101560000F8C02C0880F991F0A94E2F7282B208362
:1015700081E089A3EC89FD8980818064808381E09A
:1015800090E0DF91CF9108951F931092390510924A
:10159000380528EE33E040E050E020933A053093E0
:1015A0003B0540933C0550933D0568EC72E0709319
:1015B00037056093360586E193E090934305809369
:1015C00042058AE593E0909345058093440585ECB8
:1015D00090E0909347058093460584EC90E09093CB
:1015E00049058093480580EC90E090934B058093EB
:1015F0004A0581EC90E090934D0580934C0582EC78
:1016000090E090934F0580934E0586EC90E0909388
:1016100051058093500514E010935205B3E0B09348
:101620005305A7E0A0935405F5E0F0935505E1E0DC
:10163000E093560510925B0510925A0520935C05C5
:1016400030935D0540935E0550935F057093590597
:10165000609358058EE993E0909365058093640547
:1016600082EE93E090936705809366058DEC90E0A1
:1016700090936905809368058CEC90E090936B05DE
:1016800080936A0588EC90E090936D0580936C05DB
:1016900089EC90E090936F0580936E058AEC90E062
:1016A00090937105809370058EEC90E09093730594
:1016B0008093720510937405B0937505A093760519
:1016C000F0937705E093780510927D0510927C05E4
:1016D00020937E0530937F054093800550938105CC
:1016E00070937B0560937A0586E294E0909387057A
:1016F000809386058AE694E0909389058093880517
:1017000085ED90E090938B0580938A0584ED90E0C1
:1017100090938D0580938C0580ED90E090938F05DC
:1017200080938E0581ED90E09093910580939005D4
:1017300082ED90E0909393058093920586ED90E082
:10174000909395058093940510939605B093970513
:10175000A0939805F0939905E0939A0510929F0540
:1017600010929E052093A0053093A1054093A205F9
:101770005093A30570939D0560939C058EEA94E0B9
:101780009093A9058093A80582EF94E09093AB0510
:101790008093AA0585E391E09093AD058093AC0515
:1017A00084E391E09093AF058093AE0580E391E0F0
:1017B0009093B1058093B00581E391E09093B305D8
:1017C0008093B20582E391E09093B5058093B405D0
:1017D00086E391E09093B7058093B6051093B80522
:1017E000B093B905A093BA05F093BB05E093BC058F
:1017F0001F9108950E94EE0D0E9433030E949002F3
:1018000087E498E0892B29F00E9447080E94900203
:10181000FBCF0E9490020E949002FBCFCF92DF92FA
:10182000EF92FF920F931F93CF93DF937C016B0195
:10183000EA0141155105D9F000E010E0D6016D91A3
:101840006D01D701ED91FC910190F081E02DC70170
:101850001995080F191F219789F7C801DF91CF91BA
:101860001F910F91FF90EF90DF90CF90089500E0CF
:1018700010E0F3CFEF92FF920F931F938C01DC01E6
:10188000ED91FC910190F081E02D6DE019957C01C6
:10189000D801ED91FC910190F081E02DC8016AE042
:1018A00019959C012E0D3F1DC9011F910F91FF90AD
:1018B000EF9008954F925F927F928F929F92AF9296
:1018C000BF92CF92DF92EF92FF920F931F93DF931D
:1018D000CF93CDB7DEB7A1970FB6F894DEBF0FBE9A
:1018E000CDBF2C01742ECB01223008F460C0822EB3
:1018F0009924AA24BB2419A221E2C22ED12CCC0EF9
:10190000DD1E0BC0405DF6014083E114F1040105CA
:10191000110501F17E2C5F2DC801672D752FA501E2
:1019200094010E94861179018A01C801B701A501BD
:1019300094010E946711472D461B0894C108D108E5
:101940004A3004F3495CF6014083E114F1040105D7
:10195000110501F7C114D10481F1D6010D900020C9
:10196000E9F71197AC19BD09F20180819181FC0161
:1019700022813381C201B601AD01F90119959C01A3
:10198000C901A1960FB6F894DEBF0FBECDBFCF91AF
:10199000DF911F910F91FF90EF90DF90CF90BF905C
:1019A000AF909F908F907F905F904F9008953AE016
:1019B000832E912CA12CB12C9ECF20E030E0E0CFE3
:1019C000CF92DF92EF92FF920F931F93CF93DF930B
:1019D000EC016A017B0121153105B9F02A3031058E
:1019E00039F477FD1BC02AE00E945A0C9C0103C009
:1019F0000E945A0C9C01C901DF91CF911F910F9158
:101A0000FF90EF90DF90CF900895E881F9810190E9
:101A1000F081E02D642F19959C01EDCFE881F981CB
:101A20000190F081E02D6DE219958C014427552736
:101A3000BA014C195D096E097F09CE012AE00E94A6
:101A40005A0C9801280F391FD6CFEF92FF920F93AF
:101A50001F937B019A010027F7FC0095102FB80116
:101A6000A7010E94E00C1F910F91FF90EF90089545
:101A7000CF92DF92EF92FF920F931F936C017B0145
:101A80009A010027F7FC0095102FB801A7010E94CA
:101A9000E00C8C01C6010E943A0C080F191FC80106
:101AA0001F910F91FF90EF90DF90CF900895CF930B
:101AB000DF93EC016115710599F0DB010D900020B9
:101AC000E9F71197A61BB70BE881F9810280F38132
:101AD000E02DAD0119959C01C901DF91CF910895C9
:101AE00020E030E0C901DF91CF9108950F931F935B
:101AF000CF93DF93EC0161157105D9F0DB010D90F7
:101B00000020E9F71197A61BB70BE881F981028045
:101B1000F381E02DAD0119958C01CE010E943A0CA4
:101B20009801280F391FC901DF91CF911F910F91A3
:101B3000089500E010E0F1CF1F920F920FB60F92C0
:101B400011242F933F938F939F93AF93BF938091D3
:101B5000C2059091C305A091C405B091C50530910F
:101B6000C6050196A11DB11D232F2D5F2D3720F035
:101B70002D570196A11DB11D2093C6058093C20566
:101B80009093C305A093C405B093C5058091BE058D
:101B90009091BF05A091C005B091C1050196A11D0E
:101BA000B11D8093BE059093BF05A093C005B0936F
:101BB000C105BF91AF919F918F913F912F910F9050
:101BC0000FBE0F901F901895019739F0880F991F3D
:101BD000880F991F02970197F1F70895789484B5BB
:101BE000826084BD84B5816084BD85B5826085BD19
:101BF00085B5816085BDEEE6F0E0808181608083FF
:101C0000E1E8F0E0108280818260808380818160E1
:101C10008083E0E8F0E0808181608083E1EBF0E0A8
:101C2000808184608083E0EBF0E08081816080834C
:101C3000E1E9F0E08081826080838081816080833F
:101C4000E0E9F0E0808181608083E1EAF0E080817A
:101C500082608083808181608083E0EAF0E080811F
:101C600081608083E1E2F1E0808182608083808115
:101C700081608083E0E2F1E0808181608083EAE737
:101C8000F0E08081846080838081826080838081B5
:101C9000816080838081806880831092C100089574
:101CA000382F863308F0365320917B00832F86959A
:101CB0008695869590E081709070880F991F880FA7
:101CC000991F880F991F277F282B20937B0037703F
:101CD00080919D028295880F880F807C832B809352
:101CE0007C0080917A00806480937A0080917A00F1
:101CF00086FDFCCF2091780040917900942F80E000
:101D000030E0282B392BC9010895CF93DF93482F5A
:101D100050E0CA0188589E4FFC0134914E5C5E4FE2
:101D2000FA0184918823B9F090E0880F991FFC0193
:101D3000EC51FF4FA591B491FC01E250FF4FC591CA
:101D4000D491662359F06230B9F09FB7F8948C9122
:101D5000832B8C939FBFDF91CF9108952FB7F89479
:101D60008C91932F909589238C93888189238883E4
:101D70002FBFDF91CF9108952FB7F8948C91932FB7
:101D8000909589238C938881832B88832FBFE3CF01
:101D9000893009F45EC08A3070F08D3009F45FC07C
:101DA0008E30D0F0803109F46CC0813109F463C009
:101DB0008F30C9F10895843009F445C08530B8F0FA
:101DC0008730B9F1883048F58630A1F78091B000AE
:101DD0008F778093B00008958B3009F446C08C3023
:101DE000B0F08091A0008F7D8093A0000895823094
:101DF00031F1833030F48130E9F684B58F7784BDDA
:101E00000895809180008F7780938000089580915D
:101E10009000877F809390000895809190008F7745
:101E2000809390000895809120018F778093200106
:101E300008958091B0008F7D8093B000089584B59F
:101E40008F7D84BD0895809180008F7D8093800078
:101E50000895809190008F7D8093900008958091E7
:101E6000A000877F8093A00008958091A0008F77C5
:101E70008093A000089580912001877F80932001A6
:101E80000895809120018F7D809320010895FF9215
:101E90000F931F93F62E482F50E0CA0182549E4F95
:101EA000FC012491CA0188589E4FFC0104914E5CAC
:101EB0005E4FFA011491112399F02223D1F4E12FFE
:101EC000F0E0EE0FFF1FE250FF4FA591B4919FB7D6
:101ED000F894FF2049F48C91009580238C939FBF48
:101EE0001F910F91FF9008958C91802B8C939FBF31
:101EF000F7CF822F0E94C80EE2CF0F931F93482F77
:101F000050E0CA0182549E4FFC012491CA018858B6
:101F10009E4FFC0104914E5C5E4FFA011491112317
:101F2000D1F02223F1F4812F90E0880F991F885E71
:101F30009E4FFC01A591B4918C9120E030E080236C
:101F400021F4C9011F910F91089521E030E0C901EA
:101F50001F910F91089520E030E0C9011F910F916A
:101F60000895822F0E94C80EDECF0CD00FC107D17A
:101F700040F0FED030F021F45F3F19F0F0C0511175
:101F800039C1F3C014D198F39923C9F35523B1F3A0
:101F9000951B550BBB27AA2762177307840738F0D8
:101FA0009F5F5F4F220F331F441FAA1FA9F333D037
:101FB0000E2E3AF0E0E830D091505040E695001CEB
:101FC000CAF729D0FE2F27D0660F771F881FBB1FA7
:101FD000261737074807AB07B0E809F0BB0B802D81
:101FE000BF01FF2793585F4F2AF09E3F510568F0CD
:101FF000B6C000C15F3FECF3983EDCF38695779561
:102000006795B795F7959F5FC9F7880F911D9695CE
:10201000879597F90895E1E0660F771F881FBB1F2A
:10202000621773078407BA0720F0621B730B840BD7
:10203000BA0BEE1F88F7E095089504D06894B111AB
:10204000D9C00895BCD088F09F5790F0B92F992738
:10205000B751A0F0D1F0660F771F881F991F1AF0B3
:10206000BA95C9F712C0B13081F0C3D0B1E008957C
:10207000C0C0672F782F8827B85F39F0B93FCCF3FD
:10208000869577956795B395D9F73EF490958095A9
:10209000709561957F4F8F4F9F4F0895E89409C0C9
:1020A00097FB3EF490958095709561957F4F8F4F8B
:1020B0009F4F9923A9F0F92F96E9BB279395F695A1
:1020C000879577956795B795F111F8CFFAF4BB0F1F
:1020D00011F460FF1BC06F5F7F4F8F4F9F4F16C083
:1020E000882311F096E911C0772321F09EE8872F0D
:1020F000762F05C0662371F096E8862F70E060E0C9
:102100002AF09A95660F771F881FDAF7880F969541
:10211000879597F90895990F0008550FAA0BE0E8E5
:10212000FEEF16161706E807F907C0F01216130699
:10213000E407F50798F0621B730B840B950B39F4D9
:102140000A2661F0232B242B252B21F408950A263F
:1021500009F4A140A6958FEF811D811D089597F97F
:102160009F6780E870E060E008959FEF80EC08953D
:1021700000240A9416161706180609060895002466
:102180000A9412161306140605060895092E0394E0
:10219000000C11F4882352F0BB0F40F4BF2B11F454
:1021A00060FF04C06F5F7F4F8F4F9F4F089557FDB3
:1021B0009058440F551F59F05F3F71F04795880FB5
:1021C00097FB991F61F09F3F79F08795089512164C
:1021D00013061406551FF2CF4695F1DF08C01616F8
:1021E00017061806991FF1CF8695710561050894A9
:1021F0000895E894BB2766277727CB0197F90895C0
:102200008ADF08F48FEF08950BD0C0CFB1DF28F03C
:10221000B6DF18F0952309F0A2CFA7CF1124EACF9B
:10222000C6DFA0F3959FD1F3950F50E0551F629F35
:10223000F001729FBB27F00DB11D639FAA27F00D1F
:10224000B11DAA1F649F6627B00DA11D661F829F46
:102250002227B00DA11D621F739FB00DA11D621F2B
:10226000839FA00D611D221F749F3327A00D611D48
:10227000231F849F600D211D822F762F6A2F11242A
:102280009F5750408AF0E1F088234AF0EE0FFF1F7D
:10229000BB1F661F771F881F91505040A9F79E3FB4
:1022A000510570F05CCFA6CF5F3FECF3983EDCF3B6
:1022B000869577956795B795F795E7959F5FC1F7F1
:1022C000FE2B880F911D9695879597F90895629F2B
:1022D000D001739FF001829FE00DF11D649FE00D1E
:1022E000F11D929FF00D839FF00D749FF00D659F7F
:1022F000F00D9927729FB00DE11DF91F639FB00D7E
:10230000E11DF91FBD01CF0111240895A1E21A2E8C
:10231000AA1BBB1BFD010DC0AA1FBB1FEE1FFF1F89
:10232000A217B307E407F50720F0A21BB30BE40BD9
:10233000F50B661F771F881F991F1A9469F7609520
:102340007095809590959B01AC01BD01CF010895DA
:10235000EE0FFF1F0590F491E02D1994F894FFCF34
:102360003D004D61783A004D696E3A00526F7461DC
:10237000746520616E676C653A0046696E697368C2
:10238000004348414E4E454C31004348414E4E4576
:102390004C32004348414E4E454C33004C45465468
:1023A0000052494748540053746174696F6E20733A
:1023B0006574757021000B0C2A2A2A2A2A2A382CC7
:1023C000000000000000000000000000000000000D
:1023D00000000000000000000000000000000000FD
:1023E00000000000000000000000000000000000ED
:1023F0000000000000000000000000000A01080CBE
:102400000406020301090D0E131516191A1C2325C3
:1024100026292A2C32340000010008004000000167
:102420000004050D00000000880A0E0C1F0A510A66
:04243000300A7B0AE9
:00000001FF
