:100000000C9404010C9431010C9431010C943101D5
:100010000C9431010C9431010C9431010C94310198
:100020000C9431010C9431010C9431010C94310188
:100030000C9431010C9431010C9431010C94310178
:100040000C9431010C94F2040C9431010C943101A4
:100050000C9431010C9431010C9431010C94100C6E
:100060000C9431010C94EE050C943A070C94310178
:100070000C9431010C9431010C9431010C94310138
:100080000C9431010C9431010C9431010C94310128
:100090000C942E060C9479070C9431010C943101C8
:1000A0000C9431010C9431010C9431010C94310108
:1000B0000C9431010C9431010C9431010C943101F8
:1000C0000C9431010C9431010C9431010C946E06A6
:1000D0000C94B8070C9431010C94AE060C94F707FD
:1000E0000C94310100002100240027002A002D007B
:1000F0003000330001010000040107010A01000083
:100100002200250028002B002E00310034000201BF
:100110000000050108010B0100002000230026005B
:1001200029002C002F00320000010000030106010D
:10013000090105050505070508080808020202026D
:100140000A0A080804040404010101010101010173
:100150000303030303030303040707070C0C0C0C3E
:100160000C0C0C0C02020202060606060606060627
:100170000B0B0B0B0B0B0B0B0102102020080810B4
:100180002040102040800201020108040201010207
:1001900004081020408080402010080402018004E0
:1001A000020180402010080402010804020101023B
:1001B0000408102040800102040810204080000044
:1001C000090A02080B0C0D070603040100000000D9
:1001D000000000000000000000000000000000001F
:1001E0000000000000000000000011100F000000DF
:1001F00000000000000000000000000000000000FF
:100200000000000045016A0911241FBECFEFD1E2B2
:10021000DEBFCDBF00E00CBF12E0A0E0B2E0ECEE2C
:10022000F0E200E00BBF02C007900D92A83AB107C0
:10023000D9F71BBE15E0A8EAB2E001C01D92A939AA
:10024000B107E1F712E0C8E0D2E004C02297FE0156
:100250000E947010C430D107C9F70E94A00A0C9404
:1002600074100C940000FB01DC0102C001900D929F
:1002700041505040D8F70895FB01DC018D91019069
:1002800080190110D9F3990B08950F938AEA92E02F
:1002900065E046E027E008E00E9412028FEA92E063
:1002A00069E04AE02BE00CE00E9412020F910895F1
:1002B000CF93DF938AEA92E040E050E060E87FE38A
:1002C0000E94A902C0E0D0E08091A8020E94160D11
:1002D000BC0188E095E04AE050E00E94CB0B8AEA3E
:1002E00092E040E050E060E87FE30E94A90221969E
:1002F000C43BD10549F78091A8020E94160DBC01AC
:1003000088E095E04AE050E00E94CB0BDF91CF916E
:1003100008950F931F93DF93CF93CDB7DEB76F97F9
:100320000FB6F894DEBF0FBECDBF8EE189830E9469
:10033000DF048E010E5F1F4FC801BE016F5F7F4F4C
:100340000E947C05882359F46F960FB6F894DEBF9F
:100350000FBECDBFCF91DF911F910F910895C801BE
:1003600060E072E00E943C01009701F1C80169E081
:1003700072E00E943C01009781F0C80162E172E0E6
:100380000E943C01009701F788E390E09093A90256
:100390008093A8020E945801D7CF87E390E0909302
:1003A000A9028093A8020E945801E7CF86E390E05B
:1003B0009093A9028093A8020E945801D7CF0F936F
:1003C0001F9368EE73E080E090E00E947F0C08E0ED
:1003D00015E0C80140E855E260E070E00E94360890
:1003E000C8016BE172E00E94EA0B82E00E946603A2
:1003F00083E00E94690384E00E946C0381E00E9414
:100400006F0380ED97E00E94AE050E94D5048AEA52
:1004100092E00E94F7028FEA92E00E94F7021F9199
:100420000F9108950F93FC0160834183228303831E
:100430000F910895CF92DF92EF92FF920F931F9347
:10044000CF93DF93EC016B016115710599F1EE24F7
:10045000FF2407E029C00C83EC81F0E0EF58FD4F4A
:100460008081182F60E010FD61E088810E940D0EF0
:1004700060E011FD61E089810E940D0E60E012FDD7
:1004800061E08A810E940D0E60E013FD61E08B81C6
:100490000E940D0E80ED97E00E94AA0C0894E11CCA
:1004A000F11CEC14FD0430F48C818823A1F28150FE
:1004B0008C83D2CFDF91CF911F910F91FF90EF905E
:1004C000DF90CF900895CF92DF92EF92FF921F932B
:1004D000CF93DF93EC016B016115710591F1EE246F
:1004E000FF242AC08F5F8C83EC81F0E0EF58FD4F32
:1004F0008081182F60E010FD61E088810E940D0E60
:1005000060E011FD61E089810E940D0E60E012FD46
:1005100061E08A810E940D0E60E013FD61E08B8135
:100520000E940D0E80ED97E00E94AA0C0894E11C39
:10053000F11CEC14FD0428F48C81873099F61C82A0
:10054000D3CFDF91CF911F91FF90EF90DF90CF90AD
:100550000895AF92BF92CF92DF92EF92FF920F93E6
:100560001F93CF93DF93EC015A016B01CB01BA01CA
:1005700028ED31E843EB5DE30E947B0E7B018C01AB
:1005800020E030E040E050E00E94C60F18161CF555
:10059000C801B7010E94E80E8B01C601B50120E039
:1005A00030E040E050E00E94C60F88237CF0CE018E
:1005B000B8010E946302DF91CF911F910F91FF90CC
:1005C000EF90DF90CF90BF90AF900895CE01B8012B
:1005D0000E941A02F0CFC601B50128ED31E843EBC5
:1005E0005DEB0E947B0E0E94E80E8B01D6CF0F932D
:1005F0001F938C01FC01808161E00E944B0DF8018A
:10060000818161E00E944B0DF801828161E00E94CE
:100610004B0DF801838161E00E944B0DF8011482BB
:10062000808160E00E940D0EF801818160E00E94EF
:100630000D0EF801828160E00E940D0EF8018381A9
:1006400061E00E940D0E1F910F9108956827462FBB
:100650004295407F462750E0742F6627292F30E0CF
:10066000622B732BCA01880F991F880F991F880F5F
:10067000991F68277927529542954F7045275F70DB
:10068000452764277527CB0108950F931F93CF93B8
:10069000DF936623C1F06150EC012FEF3FEF062F8F
:1006A00010E00F5F1F4F080F191F6991C9010E94C9
:1006B00026039C01C017D107C1F7C901DF91CF9173
:1006C0001F910F9108952FEF3FEFF7CF80932A02EC
:1006D000089580932902089580936F02089580936E
:1006E000DE0208959091B602992329F08091DF02ED
:1006F0008F5F8093DF028091E002981709F49BC01E
:100700002091E102203508F483C08DE1820F8093AF
:10071000E1029093E002982F903A08F48BC0209168
:10072000E2023091E302369527953093E30220935D
:10073000E2028091DF02853028F038603093E302D6
:100740002093E202905A9093E1021092DF0280918E
:10075000DD02882309F45EC08091E4028F5F8093FC
:10076000E4028C3008F466C04091E2025091E3024A
:10077000942F9F7320E030E0F901E758FD4F80810E
:10078000981709F460C02F5F3F4F20313105A1F762
:10079000E0E00024440F551F001C440F551F001CAF
:1007A000452F502D242FA9E7B2E090E08C91281717
:1007B00009F447C09F5F11969031C1F780E0982FF0
:1007C0009E2B8091BE02882331F49093E502892FFD
:1007D00084508B31E0F58091BE02E82FF0E0E154C7
:1007E000FD4F90838F5F8093BE029091BE028091F7
:1007F000E502981750F01092DD028091E7028F5FBA
:100800008093E70281E08093BD021092E402089594
:100810008BE07CCF8091E2029091E30288539B4071
:1008200049F481E08093DD021092E4021092BE024E
:100830001092BD0208959091E1029C5E9093E102B6
:100840006BCF892FBCCFE22FE295E07FA2CF109231
:10085000DD028091E6028F5F8093E60208952F9279
:100860003F924F925F926F927F928F929F92AF9240
:10087000BF92CF92DF92FF920F931F93DF93CF939C
:10088000CDB7DEB72E970FB6F894DEBF0FBECDBF43
:100890001B012A01DE011196E9E8F2E02EE0019049
:1008A0000D922150E1F7009709F47AC0BC0180E075
:1008B00090E00E94140F9B01AC0160E070E080E8C2
:1008C0009FE30E947B0E20E030E040E05EE30E9468
:1008D000CA0F5B016C018E010D5F1F4FFF24F39463
:1008E000310188249924F8016081718180E090E0D1
:1008F0000E94140F9B01AC0160E074E284E79BE46A
:100900000E947B0E9B01AC0160E070E080E89FE3F9
:100910000E947B0E9B01AC01C601B5010E947B0EBB
:100920000E94E30E623071058105910538F0A40143
:100930009301661577058805990578F1F3940E5FA4
:100940001F4FF7E0FF1679F66230710581059105BA
:1009500038F1910140E050E0261737074807590762
:10096000F8F0F201718360838F2D2E960FB6F89404
:10097000DEBF0FBECDBFCF91DF911F910F91FF90D2
:10098000DF90CF90BF90AF909F908F907F906F90AF
:100990005F904F903F902F900895E6E0FE16E1F6AD
:1009A000F20111821082FF24DFCF8091B4028823EC
:1009B00029F481E08093B4021092DD0208958091C1
:1009C000BD028823E1F3089580916F026091DE02F9
:1009D0000E940D0E80912A0260E00E940D0E10927E
:1009E000B50208951F920F920FB60F920BB60F9299
:1009F00011242F933F934F935F936F937F938F9324
:100A00009F93AF93BF93EF93FF938091B40288239A
:100A100029F08091B502882309F459C08091B5026C
:100A2000882309F44EC09091B702892F9F5F90935D
:100A3000B7028823F9F0983010F01092B702809135
:100A4000B402882321F08091B5028823E9F1FF9157
:100A5000EF91BF91AF919F918F917F916F915F9136
:100A60004F913F912F910F900BBE0F900FBE0F90A3
:100A70001F901895E091B8028091B902E81770F5BF
:100A800080912A029091BC0221E030E0092E02C040
:100A9000220F331F0A94E2F7F0E0E55DFD4F60811D
:100AA00062239F5F9093BC020E940D0E8091BC0256
:100AB000863038F01092BC028091B8028F5F80932C
:100AC000B8029091B702B7CF0E947203C0CF809155
:100AD00029020E94430E8093B602A0CF0E94E40434
:100AE0008091BA029091BB0201969093BB028093D1
:100AF000BA029091B7029FCF0F931F93282FFB014B
:100B00008091BD02882301F14091BE024350808153
:100B10004817C0F0482F00EC12E0822FB80150E0D7
:100B20000E9433011092BD026091BE02C80101977C
:100B30000E94450320E0885B904F59F0822F1F915F
:100B40000F9108954083E7CF20E0822F1F910F91EE
:100B5000089521E0822F1F910F910895DF93CF9385
:100B60000F920F92CDB7DEB76FEF7FEFAE014F5F01
:100B70005F4F0E942F04982F882351F1109280001C
:100B800088E08093810080918100892B809381008F
:100B900089819A81909389008093880080916F0069
:100BA000826080936F0080912A0261E00E944B0D69
:100BB0008091290260E00E944B0D80916F0261E0FC
:100BC0000E944B0D80916F026091DE020E940D0E1B
:100BD0000F900F90CF91DF91089508951F920F927B
:100BE0000FB60F920BB60F9211242F933F934F9392
:100BF0008F939F93EF93FF938091C00082FD2AC053
:100C00004091C60020912803309129032F5F3F4F68
:100C10002F73307080912A0390912B032817390786
:100C200059F0E0912803F0912903E851FD4F4083EA
:100C30003093290320932803FF91EF919F918F9187
:100C40004F913F912F910F900BBE0F900FBE0F90C1
:100C50001F9018958091C600EFCF08951F920F92B4
:100C60000FB60F920BB60F9211242F933F934F9311
:100C70008F939F93EF93FF938091C80082FD2AC0CA
:100C80004091CE002091B0033091B1032F5F3F4FD0
:100C90002F7330708091B2039091B30328173907F6
:100CA00059F0E091B003F091B103E059FC4F40835B
:100CB0003093B1032093B003FF91EF919F918F91F7
:100CC0004F913F912F910F900BBE0F900FBE0F9041
:100CD0001F9018958091CE00EFCF08951F920F922C
:100CE0000FB60F920BB60F9211242F933F934F9391
:100CF0008F939F93EF93FF938091D00082FD2AC042
:100D00004091D60020913804309139042F5F3F4F35
:100D10002F73307080913A0490913B042817390763
:100D200059F0E0913804F0913904E850FC4F4083C9
:100D30003093390420933804FF91EF919F918F9164
:100D40004F913F912F910F900BBE0F900FBE0F90C0
:100D50001F9018958091D600EFCF08951F920F92A3
:100D60000FB60F920BB60F9211242F933F934F9310
:100D70008F939F93EF93FF938091300182FD2AC060
:100D8000409136012091C0043091C1042F5F3F4F44
:100D90002F7330708091C2049091C30428173907D3
:100DA00059F0E091C004F091C104E058FB4F40833A
:100DB0003093C1042093C004FF91EF919F918F91D4
:100DC0004F913F912F910F900BBE0F900FBE0F9040
:100DD0001F90189580913601EFCFE0911405F091A6
:100DE0001505E05CFF4F8191919120813181821B3B
:100DF000930B8F739070892BD1F5E0913605F091AC
:100E00003705E05CFF4F8191919120813181821BF8
:100E1000930B8F739070892B39F5E0915805F09101
:100E20005905E05CFF4F8191919120813181821BB6
:100E3000930B8F739070892BA1F4E0917A05F09158
:100E40007B05E05CFF4F8191919120813181821B74
:100E5000930B8F739070892B09F408950E94AD064F
:100E600008950E946D06E9CF0E942D06D6CF0E94FC
:100E7000ED05C3CF1F920F920FB60F920BB60F92D4
:100E800011242F933F938F939F93EF93FF93209180
:100E90006C0330916D0380916E0390916F0328175E
:100EA000390709F1E0916E03F0916F03E45DFC4FA7
:100EB000208180916E0390916F0301968F739070E3
:100EC00090936F0380936E032093C600FF91EF9180
:100ED0009F918F913F912F910F900BBE0F900FBE5E
:100EE0000F901F9018958091C1008F7D8093C10055
:100EF000EDCF1F920F920FB60F920BB60F921124E7
:100F00002F933F938F939F93EF93FF932091F4033D
:100F10003091F5038091F6039091F7032817390774
:100F200009F1E091F603F091F703EC54FC4F2081B6
:100F30008091F6039091F70301968F7390709093D0
:100F4000F7038093F6032093CE00FF91EF919F91DA
:100F50008F913F912F910F900BBE0F900FBE0F906E
:100F60001F9018958091C9008F7D8093C900EDCFA7
:100F70001F920F920FB60F920BB60F9211242F9360
:100F80003F938F939F93EF93FF9320917C04309135
:100F90007D0480917E0490917F042817390709F120
:100FA000E0917E04F0917F04E45CFB4F208180910E
:100FB0007E0490917F0401968F73907090937F04CC
:100FC00080937E042093D600FF91EF919F918F91A3
:100FD0003F912F910F900BBE0F900FBE0F901F905F
:100FE00018958091D1008F7D8093D100EDCF1F9215
:100FF0000F920FB60F920BB60F9211242F933F93BF
:101000008F939F93EF93FF932091040530910505F3
:1010100080910605909107052817390709F1E0919D
:101020000605F0910705EC53FB4F208180910605E2
:101030009091070501968F739070909307058093A8
:10104000060520933601FF91EF919F918F913F917B
:101050002F910F900BBE0F900FBE0F901F90189501
:10106000809131018F7D80933101EDCFDF92EF923E
:10107000FF920F931F93CF93DF93EC017A018B01C3
:10108000DD24403081EE580780E0680780E0780773
:1010900021F1DD24D394EC89FD8981E090E008A062
:1010A00002C0880F991F0A94E2F7808360E079E01C
:1010B0008DE390E0A80197010E944C102150304030
:1010C00040405040569547953795279580E1203010
:1010D0003807D0F0DD20C1F0DD24EC89FD891082D5
:1010E00060E874E88EE190E0A80197010E944C103E
:1010F00021503040404050405695479537952795B0
:1011000080E12030380730F7E889F9893083EA89AF
:10111000FB89208319A2EE89FF89408121E030E01C
:10112000C9010C8C02C0880F991F0A94E2F7482B62
:101130004083EE89FF894081C9010D8C02C0880F70
:10114000991F0A94E2F7482B4083EE89FF8940817A
:10115000C9010E8C02C0880F991F0A94E2F7482B30
:101160004083EE89FF8980810F8C02C0220F331FDC
:101170000A94E2F7209528232083DF91CF911F91D5
:101180000F91FF90EF90DF900895DC011C96ED9198
:10119000FC911D97E05CFF4F2191319180819181FD
:1011A000281B390B2F733070C9010895DC011C9680
:1011B000ED91FC911D97E05CFF4F20813181E0545F
:1011C000F040DF01AE5BBF4F8D919C9111972817C6
:1011D000390749F08D919C91E80FF91F8081282FE4
:1011E00030E0C90108952FEF3FEFC9010895DC01F8
:1011F0001C96ED91FC911D97E05CFF4F20813181A1
:10120000E054F040DF01AE5BBF4F8D919C91119790
:101210002817390791F08D919C911197E80FF91FCC
:1012200020818D919C91119701968F7390701196EA
:101230009C938E9330E0C90108952FEF3FEFC901D1
:101240000895FC0181A1882311F411A20895A489B5
:10125000B5898C9186FFFDCF11A20895CF93DF93BE
:10126000EC01AE85BF85AD01405C5F4FFA01208186
:1012700031812F5F3F4F2F733070FD01EE5BFF4FC9
:101280008081918128173907D9F3FA0180819181F2
:10129000A80FB91F6C93EE85FF85E05CFF4F31838B
:1012A0002083EE89FF89208181E090E00F8C02C0CD
:1012B000880F991F0A94E2F7282B208381E089A3E5
:1012C000EC89FD8980818064808381E090E0DF91FA
:1012D000CF9108951F9310920B0510920A0528EEE6
:1012E00033E040E050E020930C0530930D0540932F
:1012F0000E0550930F056BE972E07093090560933A
:10130000080588EE92E090931505809314058CE211
:1013100093E0909317058093160585EC90E09093E9
:1013200019058093180584EC90E090931B05809339
:101330001A0580EC90E090931D0580931C0581ECCC
:1013400090E090931F0580931E0582EC90E09093AF
:1013500021058093200586EC90E0909323058093EF
:10136000220514E010932405B3E0B0932505A7E00F
:10137000A0932605F5E0F0932705E1E0E09328052A
:1013800010922D0510922C0520932E0530932F05D9
:10139000409330055093310570932B0560932A05D7
:1013A00080E793E0909337058093360584EB93E0D4
:1013B00090933905809338058DEC90E090933B0530
:1013C00080933A058CEC90E090933D0580933C052A
:1013D00088EC90E090933F0580933E0589EC90E087
:1013E00090934105809340058AEC90E090934305EB
:1013F000809342058EEC90E09093450580934405E0
:1014000010934605B0934705A0934805F09349050E
:10141000E0934A0510924F0510924E052093500517
:1014200030935105409352055093530570934D05E9
:1014300060934C0588EF93E090935905809358058D
:101440008CE394E090935B0580935A0585ED90E0E2
:1014500090935D0580935C0584ED90E090935F052B
:1014600080935E0580ED90E0909361058093600528
:1014700081ED90E0909363058093620582ED90E0AA
:10148000909365058093640586ED90E090936705E1
:101490008093660510936805B0936905A0936A056B
:1014A000F0936B05E0936C05109271051092700536
:1014B000209372053093730540937405509375051E
:1014C00070936F0560936E0580E894E090937B05C0
:1014D00080937A0584EC94E090937D0580937C055D
:1014E00085E391E090937F0580937E0584E391E00E
:1014F000909381058093800580E391E0909383052C
:101500008093820581E391E0909385058093840523
:1015100082E391E0909387058093860586E391E0CE
:10152000909389058093880510938A05B0938B0565
:10153000A0938C05F0938D05E0938E051F9108957F
:101540000E94B40C0E94DF010E9489018DEE96E09A
:10155000892B29F00E94ED060E948901FBCF0E9491
:1015600089010E948901FBCFCF92DF92EF92FF9217
:101570000F931F93CF93DF937C016B01EA01411519
:101580005105D9F000E010E0D6016D916D01D70151
:10159000ED91FC910190F081E02DC7011995080FA4
:1015A000191F219789F7C801DF91CF911F910F91E2
:1015B000FF90EF90DF90CF90089500E010E0F3CF20
:1015C000EF92FF920F931F938C01DC01ED91FC9140
:1015D0000190F081E02D6DE019957C01D801ED912D
:1015E000FC910190F081E02DC8016AE019959C0101
:1015F0002E0D3F1DC9011F910F91FF90EF9008958F
:101600004F925F927F928F929F92AF92BF92CF92B2
:10161000DF92EF92FF920F931F93DF93CF93CDB79B
:10162000DEB7A1970FB6F894DEBF0FBECDBF2C0179
:10163000742ECB01223008F460C0822E9924AA2493
:10164000BB2419A221E2C22ED12CCC0EDD1E0BC070
:10165000405DF6014083E114F1040105110501F13B
:101660007E2C5F2DC801672D752FA50194010E9466
:101670004C1079018A01C801B701A50194010E94AB
:101680002D10472D461B0894C108D1084A3004F399
:10169000495CF6014083E114F1040105110501F7ED
:1016A000C114D10481F1D6010D900020E9F7119702
:1016B000AC19BD09F20180819181FC012281338145
:1016C000C201B601AD01F90119959C01C901A196AC
:1016D0000FB6F894DEBF0FBECDBFCF91DF911F9143
:1016E0000F91FF90EF90DF90CF90BF90AF909F90C1
:1016F0008F907F905F904F9008953AE0832E912CC9
:10170000A12CB12C9ECF20E030E0E0CFCF92DF9231
:10171000EF92FF920F931F93CF93DF93EC016A0137
:101720007B0121153105B9F02A30310539F477FDF7
:101730001BC02AE00E94000B9C0103C00E94000B0A
:101740009C01C901DF91CF911F910F91FF90EF9004
:10175000DF90CF900895E881F9810190F081E02D2C
:10176000642F19959C01EDCFE881F9810190F081FA
:10177000E02D6DE219958C0144275527BA014C19CB
:101780005D096E097F09CE012AE00E94000B9801D5
:10179000280F391FD6CFCF92DF92EF92FF920F938F
:1017A0001F936C017B019A010027F7FC0095102F15
:1017B000B801A7010E94860B8C01C6010E94E00AB5
:1017C000080F191FC8011F910F91FF90EF90DF9034
:1017D000CF9008950F931F93CF93DF93EC01611582
:1017E0007105D9F0DB010D900020E9F71197A61BD8
:1017F000B70BE881F9810280F381E02DAD011995E5
:101800008C01CE010E94E00A9801280F391FC901FE
:10181000DF91CF911F910F91089500E010E0F1CF7B
:101820001F920F920FB60F9211242F933F938F9315
:101830009F93AF93BF938091940590919505A0914C
:101840009605B0919705309198050196A11DB11D9F
:10185000232F2D5F2D3720F02D570196A11DB11D8F
:10186000209398058093940590939505A0939605F1
:10187000B09397058091900590919105A091920564
:10188000B09193050196A11DB11D80939005909391
:101890009105A0939205B0939305BF91AF919F914D
:1018A0008F913F912F910F900FBE0F901F90189521
:1018B0009FB7F89420919005309191054091920541
:1018C0005091930586B5A89B06C08F3F21F02F5FEE
:1018D0003F4F4F4F5F4F9FBF542F432F322F222731
:1018E000280F311D411D511D220F331F441F551F4D
:1018F000220F331F441F551FB901CA010895EF92EB
:10190000FF920F931F93CF93DF937B018C010E9473
:10191000580CE114F10401051105A9F0EB010E9436
:10192000580C6C1B7D0B685E7340C8F30894E1088B
:10193000F10801091109E114F1040105110519F07B
:10194000C851DC4FECCFDF91CF911F910F91FF90E9
:10195000EF900895019739F0880F991F880F991F0C
:1019600002970197F1F70895789484B5826084BD59
:1019700084B5816084BD85B5826085BD85B5816093
:1019800085BDEEE6F0E0808181608083E1E8F0E0F3
:101990001082808182608083808181608083E0E822
:1019A000F0E0808181608083E1EBF0E08081846001
:1019B0008083E0EBF0E0808181608083E1E9F0E00A
:1019C000808182608083808181608083E0E9F0E0B3
:1019D000808181608083E1EAF0E0808182608083A1
:1019E000808181608083E0EAF0E080818160808393
:1019F000E1E2F1E080818260808380818160808388
:101A0000E0E2F1E0808181608083EAE7F0E08081BC
:101A10008460808380818260808380818160808314
:101A20008081806880831092C1000895382F8633AA
:101A300008F0365320917B00832F869586958695F6
:101A400090E081709070880F991F880F991F880F00
:101A5000991F277F282B20937B003770809170027D
:101A60008295880F880F807C832B80937C008091E7
:101A70007A00806480937A0080917A0086FDFCCFA2
:101A80002091780040917900942F80E030E0282B5D
:101A9000392BC9010895CF93DF93482F50E0CA0135
:101AA00088589E4FFC0134914E5C5E4FFA01849140
:101AB0008823B9F090E0880F991FFC01EC51FF4F8B
:101AC000A591B491FC01E250FF4FC591D4916623DA
:101AD00059F06230B9F09FB7F8948C91832B8C93B6
:101AE0009FBFDF91CF9108952FB7F8948C91932FDA
:101AF000909589238C938881892388832FBFDF91D8
:101B0000CF9108952FB7F8948C91932F90958923B6
:101B10008C938881832B88832FBFE3CF893009F48E
:101B20005EC08A3070F08D3009F45FC08E30D0F026
:101B3000803109F46CC0813109F463C08F30C9F180
:101B40000895843009F445C08530B8F08730B9F184
:101B5000883048F58630A1F78091B0008F77809368
:101B6000B00008958B3009F446C08C30B0F08091FD
:101B7000A0008F7D8093A0000895823031F18330E2
:101B800030F48130E9F684B58F7784BD0895809173
:101B900080008F7780938000089580919000877FE8
:101BA000809390000895809190008F7780939000AB
:101BB0000895809120018F7780932001089580916E
:101BC000B0008F7D8093B000089584B58F7D84BD73
:101BD0000895809180008F7D80938000089580918A
:101BE00090008F7D8093900008958091A000877F62
:101BF0008093A00008958091A0008F778093A0002B
:101C0000089580912001877F80932001089580911D
:101C100020018F7D809320010895FF920F931F93E1
:101C2000F62E482F50E0CA0182549E4FFC012491A9
:101C3000CA0188589E4FFC0104914E5C5E4FFA0128
:101C40001491112399F02223D1F4E12FF0E0EE0F4B
:101C5000FF1FE250FF4FA591B4919FB7F894FF206A
:101C600049F48C91009580238C939FBF1F910F9115
:101C7000FF9008958C91802B8C939FBFF7CF822F7C
:101C80000E948E0DE2CF0F931F93482F50E0CA01A0
:101C900082549E4FFC012491CA0188589E4FFC013A
:101CA00004914E5C5E4FFA0114911123D1F022236E
:101CB000F1F4812F90E0880F991F885E9E4FFC0100
:101CC000A591B4918C9120E030E0802321F4C901EA
:101CD0001F910F91089521E030E0C9011F910F91EC
:101CE000089520E030E0C9011F910F910895822FDF
:101CF0000E948E0DDECF0CD00FC107D140F0FED078
:101D000030F021F45F3F19F0F0C0511139C1F3C038
:101D100014D198F39923C9F35523B1F3951B550BAF
:101D2000BB27AA2762177307840738F09F5F5F4FAE
:101D3000220F331F441FAA1FA9F333D00E2E3AF0EF
:101D4000E0E830D091505040E695001CCAF729D009
:101D5000FE2F27D0660F771F881FBB1F2617370758
:101D60004807AB07B0E809F0BB0B802DBF01FF2788
:101D700093585F4F2AF09E3F510568F0B6C000C1EE
:101D80005F3FECF3983EDCF3869577956795B795C2
:101D9000F7959F5FC9F7880F911D9695879597F9DD
:101DA0000895E1E0660F771F881FBB1F6217730756
:101DB0008407BA0720F0621B730B840BBA0BEE1F6B
:101DC00088F7E095089504D06894B111D9C00895BA
:101DD000BCD088F09F5790F0B92F9927B751A0F049
:101DE000D1F0660F771F881F991F1AF0BA95C9F7AF
:101DF00012C0B13081F0C3D0B1E00895C0C0672FE8
:101E0000782F8827B85F39F0B93FCCF3869577955E
:101E10006795B395D9F73EF4909580957095619547
:101E20007F4F8F4F9F4F0895E89409C097FB3EF472
:101E300090958095709561957F4F8F4F9F4F992317
:101E4000A9F0F92F96E9BB279395F6958795779595
:101E50006795B795F111F8CFFAF4BB0F11F460FF55
:101E60001BC06F5F7F4F8F4F9F4F16C0882311F0AD
:101E700096E911C0772321F09EE8872F762F05C0C1
:101E8000662371F096E8862F70E060E02AF09A955C
:101E9000660F771F881FDAF7880F9695879597F951
:101EA0000895990F0008550FAA0BE0E8FEEF1616EB
:101EB0001706E807F907C0F012161306E407F5073E
:101EC00098F0621B730B840B950B39F40A2661F0B2
:101ED000232B242B252B21F408950A2609F4A14055
:101EE000A6958FEF811D811D089597F99F6780E862
:101EF00070E060E008959FEF80EC089500240A945C
:101F00001616170618060906089500240A941216D4
:101F10001306140605060895092E0394000C11F407
:101F2000882352F0BB0F40F4BF2B11F460FF04C0B4
:101F30006F5F7F4F8F4F9F4F089557FD9058440F0D
:101F4000551F59F05F3F71F04795880F97FB991F18
:101F500061F09F3F79F087950895121613061406D5
:101F6000551FF2CF4695F1DF08C016161706180662
:101F7000991FF1CF86957105610508940895E8943D
:101F8000BB2766277727CB0197F908958ADF08F4E6
:101F90008FEF08950BD0C0CFB1DF28F0B6DF18F077
:101FA000952309F0A2CFA7CF1124EACFC6DFA0F373
:101FB000959FD1F3950F50E0551F629FF001729FDE
:101FC000BB27F00DB11D639FAA27F00DB11DAA1FFD
:101FD000649F6627B00DA11D661F829F2227B00D4A
:101FE000A11D621F739FB00DA11D621F839FA00DD5
:101FF000611D221F749F3327A00D611D231F849F25
:10200000600D211D822F762F6A2F11249F5750407B
:102010008AF0E1F088234AF0EE0FFF1FBB1F661F16
:10202000771F881F91505040A9F79E3F510570F0CF
:102030005CCFA6CF5F3FECF3983EDCF386957795B7
:102040006795B795F795E7959F5FC1F7FE2B880FCA
:10205000911D9695879597F90895629FD001739F7A
:10206000F001829FE00DF11D649FE00DF11D929F34
:10207000F00D839FF00D749FF00D659FF00D992773
:10208000729FB00DE11DF91F639FB00DE11DF91F97
:10209000BD01CF0111240895A1E21A2EAA1BBB1B7A
:1020A000FD010DC0AA1FBB1FEE1FFF1FA217B30724
:1020B000E407F50720F0A21BB30BE40BF50B661F3A
:1020C000771F881F991F1A9469F7609570958095FE
:1020D00090959B01AC01BD01CF010895EE0FFF1F4C
:0C20E0000590F491E02D1994F894FFCFC6
:1020EC004348414E4E454C31004348414E4E454CC1
:1020FC0032004348414E4E454C3300537461746971
:10210C006F6E207365747570000B0C2A2A2A2A2AAC
:10211C002A382C0000000000000000000000000025
:10212C0000000000000000000000000000000000A3
:10213C000000000000000000000000000000000093
:10214C000000000000000000000000000000000A79
:10215C0001080C0406020301090D0E131516191AB9
:10216C001C232526292A2C323400000100080040AB
:10217C000000010004050D000000002E09B40AC582
:08218C0008F708D6082109003C
:00000001FF
