:100000000C9404010C943A010C943A010C943A01BA
:100010000C943A010C943A010C943A010C943A0174
:100020000C943A010C943A010C943A010C943A0164
:100030000C943A010C943A010C943A010C943A0154
:100040000C943A010C9408050C943A010C943A0172
:100050000C943A010C943A010C943A010C94260C3D
:100060000C943A010C9404060C9450070C943A0139
:100070000C943A010C943A010C943A010C943A0114
:100080000C943A010C943A010C943A010C943A0104
:100090000C9444060C948F070C943A010C943A018A
:1000A0000C943A010C943A010C943A010C943A01E4
:1000B0000C943A010C943A010C943A010C943A01D4
:1000C0000C943A010C943A010C943A010C94840675
:1000D0000C94CE070C943A010C94C4060C940D08B1
:1000E0000C943A0100002100240027002A002D0072
:1000F0003000330001010000040107010A01000083
:100100002200250028002B002E00310034000201BF
:100110000000050108010B0100002000230026005B
:1001200029002C002F00320000010000030106010D
:10013000090105050505070508080808020202026D
:100140000A0A080804040404010101010101010173
:100150000303030303030303040707070C0C0C0C3E
:100160000C0C0C0C02020202060606060606060627
:100170000B0B0B0B0B0B0B0B0102102020080810B4
:100180002040102040800201020108040201010207
:1001900004081020408080402010080402018004E0
:1001A000020180402010080402010804020101023B
:1001B0000408102040800102040810204080000044
:1001C000090A02080B0C0D070603040100000000D9
:1001D000000000000000000000000000000000001F
:1001E0000000000000000000000011100F000000DF
:1001F00000000000000000000000000000000000FF
:10020000000000004E01800911241FBECFEFD1E293
:10021000DEBFCDBF00E00CBF14BE88E10FB6F8947E
:1002200080936000109260000FBE12E0A0E0B2E088
:10023000E4E7F0E200E00BBF02C007900D92A83B9C
:10024000B107D9F71BBE15E0A8EBB2E001C01D92C3
:10025000A93AB107E1F712E0C8E0D2E004C0229762
:10026000FE010E943410C430D107C9F70E94B60ABB
:100270000C9438100C940000FB01DC0102C00190CA
:100280000D9241505040D8F70895FB01DC018D914B
:10029000019080190110D9F3990B08950F938AEBFF
:1002A00092E065E046E027E008E00E9428028FEB3C
:1002B00092E069E04AE02BE00CE00E9428020F91F6
:1002C0000895CF93DF938AEB92E040E050E060E83E
:1002D0007FE30E94BF02C0E0D0E08091B8020E949C
:1002E000DA0CBC0188E195E04AE050E00E94E10BA5
:1002F0008AEB92E040E050E060E87FE30E94BF02BA
:100300002196C43BD10549F78091B8020E94DA0CCE
:10031000BC0188E195E04AE050E00E94E10BDF91EA
:10032000CF9108950F931F93DF93CF93CDB7DEB78F
:100330006F970FB6F894DEBF0FBECDBF8EE18983F5
:100340000E94F5048E010E5F1F4FC801BE016F5F52
:100350007F4F0E949205882359F46F960FB6F89448
:10036000DEBF0FBECDBFCF91DF911F910F910895DA
:10037000C80160E072E00E944501009799F1C80150
:1003800069E072E00E944501009719F1C80162E13D
:1003900072E00E944501009799F0C8016BE172E09C
:1003A0000E9445010097C9F628E088E190E00FB669
:1003B000F894A895809360000FBE20936000FFCF53
:1003C00088E390E09093B9028093B8020E946101A3
:1003D000E4CF87E390E09093B9028093B8020E9443
:1003E0006101D4CF86E390E09093B9028093B80284
:1003F0000E946101C4CF0F931F9308E115E0C8016B
:1004000040E855E260E070E00E944C08C80163E2F9
:1004100072E00E94000C82E00E947C0383E00E9454
:100420007F0384E00E94820381E00E94850380EDC7
:1004300097E00E94C4050E94EB048AEB92E00E94C0
:100440000D038FEB92E00E940D031F910F91089511
:100450000F93FC0160834183228303830F910895EE
:10046000CF92DF92EF92FF920F931F93CF93DF9380
:10047000EC016B016115710599F1EE24FF2407E091
:1004800029C00C83EC81F0E0EE57FD4F8081182FDE
:1004900060E010FD61E088810E94D10D60E011FDF7
:1004A00061E089810E94D10D60E012FD61E08A81E6
:1004B0000E94D10D60E013FD61E08B810E94D10D9F
:1004C00080ED97E00E946E0C0894E11CF11CEC1486
:1004D000FD0430F48C818823A1F281508C83D2CF2B
:1004E000DF91CF911F910F91FF90EF90DF90CF9010
:1004F0000895CF92DF92EF92FF921F93CF93DF93F5
:10050000EC016B016115710591F1EE24FF242AC005
:100510008F5F8C83EC81F0E0EE57FD4F8081182FC8
:1005200060E010FD61E088810E94D10D60E011FD66
:1005300061E089810E94D10D60E012FD61E08A8155
:100540000E94D10D60E013FD61E08B810E94D10D0E
:1005500080ED97E00E946E0C0894E11CF11CEC14F5
:10056000FD0428F48C81873099F61C82D3CFDF916B
:10057000CF911F91FF90EF90DF90CF900895AF92B1
:10058000BF92CF92DF92EF92FF920F931F93CF9380
:10059000DF93EC015A016B01CB01BA0128ED31E880
:1005A00043EB5DE30E943F0E7B018C0120E030E0D5
:1005B00040E050E00E948A0F18161CF5C801B701F0
:1005C0000E94AC0E8B01C601B50120E030E040E096
:1005D00050E00E948A0F88237CF0CE01B8010E946F
:1005E0007902DF91CF911F910F91FF90EF90DF90F3
:1005F000CF90BF90AF900895CE01B8010E94300215
:10060000F0CFC601B50128ED31E843EB5DEB0E9468
:100610003F0E0E94AC0E8B01D6CF0F931F938C011F
:10062000FC01808161E00E940F0DF801818161E091
:100630000E940F0DF801828161E00E940F0DF80108
:10064000838161E00E940F0DF8011482808160E0D7
:100650000E94D10DF801818160E00E94D10DF80166
:10066000828160E00E94D10DF801838161E00E94E7
:10067000D10D1F910F9108956827462F4295407F15
:10068000462750E0742F6627292F30E0622B732B0A
:10069000CA01880F991F880F991F880F991F682713
:1006A0007927529542954F7045275F7045276427FB
:1006B0007527CB0108950F931F93CF93DF93662384
:1006C000C1F06150EC012FEF3FEF062F10E00F5FFC
:1006D0001F4F080F191F6991C9010E943C039C011B
:1006E000C017D107C1F7C901DF91CF911F910F91B9
:1006F00008952FEF3FEFF7CF80933B02089580934B
:100700003A0208958093800208958093EE0208953E
:100710009091C602992329F08091EF028F5F809318
:10072000EF028091F002981709F49BC02091F1022A
:10073000203508F483C08DE1820F8093F1029093FD
:10074000F002982F903A08F48BC02091F202309179
:10075000F302369527953093F3022093F2028091AD
:10076000EF02853028F038603093F3022093F202D4
:10077000905A9093F1021092EF028091ED0288233B
:1007800009F45EC08091F4028F5F8093F4028C3094
:1007900008F466C04091F2025091F302942F9F73C7
:1007A00020E030E0F901E657FD4F8081981709F409
:1007B00060C02F5F3F4F20313105A1F7E0E00024FA
:1007C000440F551F001C440F551F001C452F502D72
:1007D000242FAAE8B2E090E08C91281709F447C0D2
:1007E0009F5F11969031C1F780E0982F9E2B8091EA
:1007F000CE02882331F49093F502892F84508B31F7
:10080000E0F58091CE02E82FF0E0E153FD4F9083B8
:100810008F5F8093CE029091CE028091F50298175F
:1008200050F01092ED028091F7028F5F8093F702F3
:1008300081E08093CD021092F40208958BE07CCF8A
:100840008091F2029091F30288539B4049F481E039
:100850008093ED021092F4021092CE021092CD021B
:1008600008959091F1029C5E9093F1026BCF892FD5
:10087000BCCFE22FE295E07FA2CF1092ED028091F3
:10088000F6028F5F8093F60208952F923F924F9267
:100890005F926F927F928F929F92AF92BF92CF9210
:1008A000DF92FF920F931F93DF93CF93CDB7DEB705
:1008B0002E970FB6F894DEBF0FBECDBF1B012A01E5
:1008C000DE011196EAE9F2E02EE001900D9221504E
:1008D000E1F7009709F47AC0BC0180E090E00E9443
:1008E000D80E9B01AC0160E070E080E89FE30E94BD
:1008F0003F0E20E030E040E05EE30E948E0F5B019F
:100900006C018E010D5F1F4FFF24F3943101882489
:100910009924F8016081718180E090E00E94D80EF6
:100920009B01AC0160E074E284E79BE40E943F0E0F
:100930009B01AC0160E070E080E89FE30E943F0E05
:100940009B01AC01C601B5010E943F0E0E94A70E9B
:10095000623071058105910538F0A4019301661597
:1009600077058805990578F1F3940E5F1F4FF7E03E
:10097000FF1679F6623071058105910538F1910114
:1009800040E050E02617370748075907F8F0F20112
:10099000718360838F2D2E960FB6F894DEBF0FBE45
:1009A000CDBFCF91DF911F910F91FF90DF90CF903E
:1009B000BF90AF909F908F907F906F905F904F907F
:1009C0003F902F900895E6E0FE16E1F6F2011182C5
:1009D0001082FF24DFCF8091C402882329F481E0B4
:1009E0008093C4021092ED0208958091CD02882375
:1009F000E1F30895809180026091EE020E94D10D92
:100A000080913B0260E00E94D10D1092C5020895D2
:100A10001F920F920FB60F920BB60F9211242F93C5
:100A20003F934F935F936F937F938F939F93AF9376
:100A3000BF93EF93FF938091C402882329F08091A4
:100A4000C502882309F459C08091C502882309F49E
:100A50004EC09091C702892F9F5F9093C702882351
:100A6000F9F0983010F01092C7028091C4028823E8
:100A700021F08091C5028823E9F1FF91EF91BF91A8
:100A8000AF919F918F917F916F915F914F913F9126
:100A90002F910F900BBE0F900FBE0F901F901895C7
:100AA000E091C8028091C902E81770F580913B027D
:100AB0009091CC0221E030E0092E02C0220F331FBA
:100AC0000A94E2F7F0E0E45CFD4F608162239F5FEF
:100AD0009093CC020E94D10D8091CC02863038F0E8
:100AE0001092CC028091C8028F5F8093C8029091CF
:100AF000C702B7CF0E948803C0CF80913A020E94FC
:100B0000070E8093C602A0CF0E94FA048091CA0209
:100B10009091CB0201969093CB028093CA02909160
:100B2000C7029FCF0F931F93282FFB018091CD0207
:100B3000882301F14091CE02435080814817C0F0D4
:100B4000482F00ED12E0822FB80150E00E943C01D6
:100B50001092CD026091CE02C80101970E945B0302
:100B600020E0885B904F59F0822F1F910F910895DC
:100B70004083E7CF20E0822F1F910F91089521E05D
:100B8000822F1F910F910895DF93CF930F920F92B1
:100B9000CDB7DEB76FEF7FEFAE014F5F5F4F0E94C3
:100BA0004504982F882351F11092800088E08093AB
:100BB000810080918100892B8093810089819A81B5
:100BC000909389008093880080916F008260809369
:100BD0006F0080913B0261E00E940F0D80913A020C
:100BE00060E00E940F0D8091800261E00E940F0D75
:100BF000809180026091EE020E94D10D0F900F90C3
:100C0000CF91DF91089508951F920F920FB60F9222
:100C10000BB60F9211242F933F934F938F939F9373
:100C2000EF93FF938091C00082FD2AC04091C600DF
:100C300020913803309139032F5F3F4F2F7330706D
:100C400080913A0390913B032817390759F0E091BE
:100C50003803F0913903E850FD4F40833093390356
:100C600020933803FF91EF919F918F914F913F9186
:100C70002F910F900BBE0F900FBE0F901F901895E5
:100C80008091C600EFCF08951F920F920FB60F927A
:100C90000BB60F9211242F933F934F938F939F93F3
:100CA000EF93FF938091C80082FD2AC04091CE004F
:100CB0002091C0033091C1032F5F3F4F2F733070DD
:100CC0008091C2039091C3032817390759F0E0912E
:100CD000C003F091C103E058FC4F40833093C1033F
:100CE0002093C003FF91EF919F918F914F913F917E
:100CF0002F910F900BBE0F900FBE0F901F90189565
:100D00008091CE00EFCF08951F920F920FB60F92F1
:100D10000BB60F9211242F933F934F938F939F9372
:100D2000EF93FF938091D00082FD2AC04091D600BE
:100D300020914804309149042F5F3F4F2F7330704A
:100D400080914A0490914B042817390759F0E0919B
:100D50004804F0914904E85FFB4F40833093490415
:100D600020934804FF91EF919F918F914F913F9174
:100D70002F910F900BBE0F900FBE0F901F901895E4
:100D80008091D600EFCF08951F920F920FB60F9269
:100D90000BB60F9211242F933F934F938F939F93F2
:100DA000EF93FF938091300182FD2AC0409136017C
:100DB0002091D0043091D1042F5F3F4F2F733070BA
:100DC0008091D2049091D3042817390759F0E0910B
:100DD000D004F091D104E057FB4F40833093D1040D
:100DE0002093D004FF91EF919F918F914F913F916C
:100DF0002F910F900BBE0F900FBE0F901F90189564
:100E000080913601EFCFE0912405F0912505E05C5B
:100E1000FF4F8191919120813181821B930B8F73C0
:100E20009070892BD1F5E0914605F0914705E05C83
:100E3000FF4F8191919120813181821B930B8F73A0
:100E40009070892B39F5E0916805F0916905E05CB7
:100E5000FF4F8191919120813181821B930B8F7380
:100E60009070892BA1F4E0918A05F0918B05E05CEC
:100E7000FF4F8191919120813181821B930B8F7360
:100E80009070892B09F408950E94C30608950E946A
:100E90008306E9CF0E944306D6CF0E940306C3CF44
:100EA0001F920F920FB60F920BB60F9211242F9331
:100EB0003F938F939F93EF93FF9320917C03309107
:100EC0007D0380917E0390917F032817390709F1F4
:100ED000E0917E03F0917F03E45CFC4F20818091E0
:100EE0007E0390917F0301968F73907090937F03A0
:100EF00080937E032093C600FF91EF919F918F9185
:100F00003F912F910F900BBE0F900FBE0F901F902F
:100F100018958091C1008F7D8093C100EDCF1F9205
:100F20000F920FB60F920BB60F9211242F933F938F
:100F30008F939F93EF93FF932091040430910504C6
:100F400080910604909107042817390709F1E09170
:100F50000604F0910704EC53FC4F208180910604B5
:100F60009091070401968F7390709093070480937B
:100F700006042093CE00FF91EF919F918F913F91B6
:100F80002F910F900BBE0F900FBE0F901F901895D2
:100F90008091C9008F7D8093C900EDCF1F920F9281
:100FA0000FB60F920BB60F9211242F933F938F938E
:100FB0009F93EF93FF9320918C0430918D04809147
:100FC0008E0490918F042817390709F1E0918E045F
:100FD000F0918F04E45BFB4F208180918E0490910F
:100FE0008F0401968F73907090938F0480938E047A
:100FF0002093D600FF91EF919F918F913F912F9178
:101000000F900BBE0F900FBE0F901F901895809100
:10101000D1008F7D8093D100EDCF1F920F920FB63C
:101020000F920BB60F9211242F933F938F939F93A0
:10103000EF93FF93209114053091150580911605CB
:10104000909117052817390709F1E0911605F091DD
:101050001705EC52FB4F20818091160590911705E2
:1010600001968F73907090931705809316052093C7
:101070003601FF91EF919F918F913F912F910F90AA
:101080000BBE0F900FBE0F901F90189580913101ED
:101090008F7D80933101EDCFDF92EF92FF920F931E
:1010A0001F93CF93DF93EC017A018B01DD24403055
:1010B00081EE580780E0680780E0780721F1DD24A1
:1010C000D394EC89FD8981E090E008A002C0880FEC
:1010D000991F0A94E2F7808360E079E08DE390E065
:1010E000A80197010E94101021503040404050400C
:1010F000569547953795279580E120303807D0F0F1
:10110000DD20C1F0DD24EC89FD89108260E874E8FF
:101110008EE190E0A80197010E941010215030400C
:1011200040405040569547953795279580E12030AF
:10113000380730F7E889F9893083EA89FB89208309
:1011400019A2EE89FF89408121E030E0C9010C8CB1
:1011500002C0880F991F0A94E2F7482B4083EE895A
:10116000FF894081C9010D8C02C0880F991F0A9424
:10117000E2F7482B4083EE89FF894081C9010E8C3C
:1011800002C0880F991F0A94E2F7482B4083EE892A
:10119000FF8980810F8C02C0220F331F0A94E2F76F
:1011A000209528232083DF91CF911F910F91FF90ED
:1011B000EF90DF900895DC011C96ED91FC911D9756
:1011C000E05CFF4F2191319180819181281B390B87
:1011D0002F733070C9010895DC011C96ED91FC91CC
:1011E0001D97E05CFF4F20813181E054F040DF012A
:1011F000AE5BBF4F8D919C9111972817390749F02D
:101200008D919C91E80FF91F8081282F30E0C90152
:1012100008952FEF3FEFC9010895DC011C96ED9171
:10122000FC911D97E05CFF4F20813181E054F0403C
:10123000DF01AE5BBF4F8D919C9111972817390745
:1012400091F08D919C911197E80FF91F20818D915C
:101250009C91119701968F73907011969C938E9329
:1012600030E0C90108952FEF3FEFC9010895FC0157
:1012700081A1882311F411A20895A489B5898C91C4
:1012800086FFFDCF11A20895CF93DF93EC01AE85C9
:10129000BF85AD01405C5F4FFA01208131812F5F36
:1012A0003F4F2F733070FD01EE5BFF4F80819181C6
:1012B00028173907D9F3FA0180819181A80FB91F46
:1012C0006C93EE85FF85E05CFF4F31832083EE89D0
:1012D000FF89208181E090E00F8C02C0880F991F68
:1012E0000A94E2F7282B208381E089A3EC89FD8909
:1012F00080818064808381E090E0DF91CF910895C8
:101300001F9310921B0510921A0528EE33E040E05F
:1013100050E020931C0530931D0540931E0550930B
:101320001F056CEA72E0709319056093180588EF49
:1013300092E090932505809324058CE393E09093AD
:1013400027058093260585EC90E0909329058093EE
:10135000280584EC90E090932B0580932A0580EC7F
:1013600090E090932D0580932C0581EC90E0909374
:101370002F0580932E0582EC90E0909331058093A9
:10138000300586EC90E0909333058093320514E0AD
:1013900010933405B3E0B0933505A7E0A09336056C
:1013A000F5E0F0933705E1E0E093380510923D0554
:1013B00010923C0520933E0530933F054093400535
:1013C0005093410570933B0560933A0580E893E0A4
:1013D000909347058093460584EC93E090934905EC
:1013E000809348058DEC90E090934B0580934A05DF
:1013F0008CEC90E090934D0580934C0588EC90E048
:1014000090934F0580934E0589EC90E090935105A1
:10141000809350058AEC90E0909353058093520599
:101420008EEC90E0909355058093540510935605EB
:10143000B0935705A0935805F0935905E0935A05CA
:1014400010925F0510925E05209360053093610550
:10145000409362055093630570935D0560935C054E
:1014600088E094E090936905809368058CE494E0AB
:1014700090936B0580936A0585ED90E090936D05E0
:1014800080936C0584ED90E090936F0580936E05DA
:1014900080ED90E0909371058093700581ED90E070
:1014A000909373058093720582ED90E0909375059B
:1014B0008093740586ED90E0909377058093760590
:1014C00010937805B0937905A0937A05F0937B0586
:1014D000E0937C051092810510928005209382058F
:1014E00030938305409384055093850570937F0561
:1014F00060937E0580E994E090938B0580938A0544
:1015000084ED94E090938D0580938C0585E391E0C4
:1015100090938F0580938E0584E391E090939105DD
:101520008093900580E391E09093930580939205DA
:1015300081E391E0909395058093940582E391E097
:10154000909397058093960586E391E09093990593
:101550008093980510939A05B0939B05A0939C05E2
:10156000F0939D05E0939E051F9108950E94780CCD
:101570000E94FB010E94920183E097E0892B29F0F1
:101580000E9403070E949201FBCF0E9492010E94D9
:101590009201FBCFCF92DF92EF92FF920F931F93B6
:1015A000CF93DF937C016B01EA0141155105D9F01E
:1015B00000E010E0D6016D916D01D701ED91FC9135
:1015C0000190F081E02DC7011995080F191F21978F
:1015D00089F7C801DF91CF911F910F91FF90EF9094
:1015E000DF90CF90089500E010E0F3CFEF92FF92EC
:1015F0000F931F938C01DC01ED91FC910190F08120
:10160000E02D6DE019957C01D801ED91FC910190E0
:10161000F081E02DC8016AE019959C012E0D3F1D57
:10162000C9011F910F91FF90EF9008954F925F9223
:101630007F928F929F92AF92BF92CF92DF92EF9262
:10164000FF920F931F93DF93CF93CDB7DEB7A19790
:101650000FB6F894DEBF0FBECDBF2C01742ECB01A8
:10166000223008F460C0822E9924AA24BB2419A237
:1016700021E2C22ED12CCC0EDD1E0BC0405DF60146
:101680004083E114F1040105110501F17E2C5F2D69
:10169000C801672D752FA50194010E9410107901D2
:1016A0008A01C801B701A50194010E94F10F472DDD
:1016B000461B0894C108D1084A3004F3495CF6017E
:1016C0004083E114F1040105110501F7C114D104AF
:1016D00081F1D6010D900020E9F71197AC19BD09F1
:1016E000F20180819181FC0122813381C201B60126
:1016F000AD01F90119959C01C901A1960FB6F894A5
:10170000DEBF0FBECDBFCF91DF911F910F91FF9034
:10171000EF90DF90CF90BF90AF909F908F907F9091
:101720005F904F9008953AE0832E912CA12CB12C1C
:101730009ECF20E030E0E0CFCF92DF92EF92FF9299
:101740000F931F93CF93DF93EC016A017B01211567
:101750003105B9F02A30310539F477FD1BC02AE094
:101760000E94160B9C0103C00E94160B9C01C9012C
:10177000DF91CF911F910F91FF90EF90DF90CF906D
:101780000895E881F9810190F081E02D642F199589
:101790009C01EDCFE881F9810190F081E02D6DE2AF
:1017A00019958C0144275527BA014C195D096E091A
:1017B0007F09CE012AE00E94160B9801280F391FDD
:1017C000D6CFCF92DF92EF92FF920F931F936C01CF
:1017D0007B019A010027F7FC0095102FB801A701A3
:1017E0000E949C0B8C01C6010E94F60A080F191F6B
:1017F000C8011F910F91FF90EF90DF90CF90089557
:101800000F931F93CF93DF93EC0161157105D9F00E
:10181000DB010D900020E9F71197A61BB70BE881BB
:10182000F9810280F381E02DAD0119958C01CE0183
:101830000E94F60A9801280F391FC901DF91CF9144
:101840001F910F91089500E010E0F1CF1F920F92C9
:101850000FB60F9211242F933F938F939F93AF93C3
:10186000BF938091A4059091A505A091A605B09184
:10187000A7053091A8050196A11DB11D232F2D5F4D
:101880002D3720F02D570196A11DB11D2093A805DD
:101890008093A4059093A505A093A605B093A705F2
:1018A0008091A0059091A105A091A205B091A305FA
:1018B0000196A11DB11D8093A0059093A105A09351
:1018C000A205B093A305BF91AF919F918F913F91D6
:1018D0002F910F900FBE0F901F901895019739F020
:1018E000880F991F880F991F02970197F1F70895A4
:1018F000789484B5826084BD84B5816084BD85B5EB
:10190000826085BD85B5816085BDEEE6F0E08081B1
:1019100081608083E1E8F0E01082808182608083D2
:10192000808181608083E0E8F0E080818160808355
:10193000E1EBF0E0808184608083E0EBF0E0808187
:1019400081608083E1E9F0E0808182608083808132
:1019500081608083E0E9F0E0808181608083E1EA5A
:10196000F0E0808182608083808181608083E0EA12
:10197000F0E0808181608083E1E2F1E0808182603B
:101980008083808181608083E0E2F1E080818160FA
:101990008083EAE7F0E080818460808380818260D8
:1019A00080838081816080838081806880831092C1
:1019B000C1000895382F863308F0365320917B00FC
:1019C000832F86958695869590E081709070880F1C
:1019D000991F880F991F880F991F277F282B209305
:1019E0007B003770809181028295880F880F807C00
:1019F000832B80937C0080917A00806480937A00AE
:101A000080917A0086FDFCCF20917800409179008A
:101A1000942F80E030E0282B392BC9010895CF9313
:101A2000DF93482F50E0CA0188589E4FFC01349143
:101A30004E5C5E4FFA0184918823B9F090E0880FE4
:101A4000991FFC01EC51FF4FA591B491FC01E250AC
:101A5000FF4FC591D491662359F06230B9F09FB71A
:101A6000F8948C91832B8C939FBFDF91CF91089535
:101A70002FB7F8948C91932F909589238C9388811C
:101A8000892388832FBFDF91CF9108952FB7F894D2
:101A90008C91932F909589238C938881832B8883B5
:101AA0002FBFE3CF893009F45EC08A3070F08D30EB
:101AB00009F45FC08E30D0F0803109F46CC0813100
:101AC00009F463C08F30C9F10895843009F445C02A
:101AD0008530B8F08730B9F1883048F58630A1F705
:101AE0008091B0008F778093B00008958B3009F417
:101AF00046C08C30B0F08091A0008F7D8093A00014
:101B00000895823031F1833030F48130E9F684B5C4
:101B10008F7784BD0895809180008F7780938000B7
:101B2000089580919000877F809390000895809120
:101B300090008F77809390000895809120018F7797
:101B40008093200108958091B0008F7D8093B00034
:101B5000089584B58F7D84BD0895809180008F7D28
:101B6000809380000895809190008F7D80939000F5
:101B700008958091A000877F8093A00008958091B0
:101B8000A0008F778093A000089580912001877F27
:101B9000809320010895809120018F7D8093200102
:101BA0000895FF920F931F93F62E482F50E0CA011D
:101BB00082549E4FFC012491CA0188589E4FFC011B
:101BC00004914E5C5E4FFA011491112399F0222387
:101BD000D1F4E12FF0E0EE0FFF1FE250FF4FA5918F
:101BE000B4919FB7F894FF2049F48C91009580231D
:101BF0008C939FBF1F910F91FF9008958C91802B24
:101C00008C939FBFF7CF822F0E94520DE2CF0F938C
:101C10001F93482F50E0CA0182549E4FFC0124912B
:101C2000CA0188589E4FFC0104914E5C5E4FFA0138
:101C300014911123D1F02223F1F4812F90E0880F29
:101C4000991F885E9E4FFC01A591B4918C9120E074
:101C500030E0802321F4C9011F910F91089521E004
:101C600030E0C9011F910F91089520E030E0C901D3
:101C70001F910F910895822F0E94520DDECF0CD03C
:101C80000FC107D140F0FED030F021F45F3F19F0D2
:101C9000F0C0511139C1F3C014D198F39923C9F39D
:101CA0005523B1F3951B550BBB27AA276217730762
:101CB000840738F09F5F5F4F220F331F441FAA1F16
:101CC000A9F333D00E2E3AF0E0E830D091505040D6
:101CD000E695001CCAF729D0FE2F27D0660F771F84
:101CE000881FBB1F261737074807AB07B0E809F066
:101CF000BB0B802DBF01FF2793585F4F2AF09E3FFB
:101D0000510568F0B6C000C15F3FECF3983EDCF3CC
:101D1000869577956795B795F7959F5FC9F7880F73
:101D2000911D9695879597F90895E1E0660F771FC5
:101D3000881FBB1F621773078407BA0720F0621B56
:101D4000730B840BBA0BEE1F88F7E095089504D04F
:101D50006894B111D9C00895BCD088F09F5790F015
:101D6000B92F9927B751A0F0D1F0660F771F881FC0
:101D7000991F1AF0BA95C9F712C0B13081F0C3D0DB
:101D8000B1E00895C0C0672F782F8827B85F39F079
:101D9000B93FCCF3869577956795B395D9F73EF41F
:101DA00090958095709561957F4F8F4F9F4F0895C7
:101DB000E89409C097FB3EF49095809570956195E5
:101DC0007F4F8F4F9F4F9923A9F0F92F96E9BB279B
:101DD0009395F695879577956795B795F111F8CF17
:101DE000FAF4BB0F11F460FF1BC06F5F7F4F8F4F82
:101DF0009F4F16C0882311F096E911C0772321F078
:101E00009EE8872F762F05C0662371F096E8862F0F
:101E100070E060E02AF09A95660F771F881FDAF766
:101E2000880F9695879597F90895990F0008550F93
:101E3000AA0BE0E8FEEF16161706E807F907C0F050
:101E400012161306E407F50798F0621B730B840B58
:101E5000950B39F40A2661F0232B242B252B21F432
:101E600008950A2609F4A140A6958FEF811D811DD2
:101E7000089597F99F6780E870E060E008959FEF0C
:101E800080EC089500240A94161617061806090611
:101E9000089500240A9412161306140605060895E0
:101EA000092E0394000C11F4882352F0BB0F40F468
:101EB000BF2B11F460FF04C06F5F7F4F8F4F9F4FA8
:101EC000089557FD9058440F551F59F05F3F71F02A
:101ED0004795880F97FB991F61F09F3F79F0879591
:101EE0000895121613061406551FF2CF4695F1DF1A
:101EF00008C0161617061806991FF1CF86957105AA
:101F0000610508940895E894BB2766277727CB01DD
:101F100097F908958ADF08F48FEF08950BD0C0CFAA
:101F2000B1DF28F0B6DF18F0952309F0A2CFA7CFD4
:101F30001124EACFC6DFA0F3959FD1F3950F50E0AF
:101F4000551F629FF001729FBB27F00DB11D639F6B
:101F5000AA27F00DB11DAA1F649F6627B00DA11D11
:101F6000661F829F2227B00DA11D621F739FB00DB7
:101F7000A11D621F839FA00D611D221F749F332727
:101F8000A00D611D231F849F600D211D822F762FC0
:101F90006A2F11249F5750408AF0E1F088234AF0BD
:101FA000EE0FFF1FBB1F661F771F881F9150504009
:101FB000A9F79E3F510570F05CCFA6CF5F3FECF3D1
:101FC000983EDCF3869577956795B795F795E795F5
:101FD0009F5FC1F7FE2B880F911D9695879597F906
:101FE0000895629FD001739FF001829FE00DF11D63
:101FF000649FE00DF11D929FF00D839FF00D749F83
:10200000F00D659FF00D9927729FB00DE11DF91F2E
:10201000639FB00DE11DF91FBD01CF01112408958B
:10202000A1E21A2EAA1BBB1BFD010DC0AA1FBB1FDC
:10203000EE1FFF1FA217B307E407F50720F0A21B4E
:10204000B30BE40BF50B661F771F881F991F1A94BB
:1020500069F760957095809590959B01AC01BD01E5
:10206000CF010895EE0FFF1F0590F491E02D199414
:04207000F894FFCF12
:102074004348414E4E454C31004348414E4E454C39
:1020840032004348414E4E454C330052455354416F
:1020940052540053746174696F6E20736574757063
:1020A4002066696E6973686564000B0C2A2A2A2A03
:1020B4002A2A382C00000000000000000000000064
:1020C400000000000000000000000000000000000C
:1020D40000000000000000000000000000000000FC
:1020E40000000000000000000000000000000000EC
:1020F4000A01080C0406020301090D0E1315161932
:102104001A1C232526292A2C323400000100080039
:10211400400000010004050D000000004409CA0A43
:08212400DB080D09EC08370986
:00000001FF
