:100000000C9403010C9430010C9430010C943001D9
:100010000C9430010C9430010C9430010C9430019C
:100020000C9430010C9430010C9430010C9430018C
:100030000C9430010C9430010C9430010C9430017C
:100040000C9430010C9450030C9430010C9430014A
:100050000C9430010C9430010C9430010C94840900
:100060000C9430010C944C040C9498050C943001C1
:100070000C9430010C9430010C9430010C9430013C
:100080000C9430010C9430010C9430010C9430012C
:100090000C948C040C94D7050C9430010C94300112
:1000A0000C9430010C9430010C9430010C9430010C
:1000B0000C9430010C9430010C9430010C943001FC
:1000C0000C9430010C9430010C9430010C94CC044D
:1000D0000C9416060C9430010C940C050C945506E7
:1000E0000C94300100002100240027002A002D007C
:1000F0003000330001010000040107010A01000083
:100100002200250028002B002E00310034000201BF
:100110000000050108010B0100002000230026005B
:1001200029002C002F00320000010000030106010D
:10013000090105050505070508080808020202026D
:100140000A0A080804040404010101010101010173
:100150000303030303030303040707070C0C0C0C3E
:100160000C0C0C0C02020202060606060606060627
:100170000B0B0B0B0B0B0B0B0102102020080810B4
:100180002040102040800201020108040201010207
:1001900004081020408080402010080402018004E0
:1001A000020180402010080402010804020101023B
:1001B0000408102040800102040810204080000044
:1001C000090A02080B0C0D070603040100000000D9
:1001D000000000000000000000000000000000001F
:1001E0000000000000000000000011100F000000DF
:1001F00000000000000000000000000000000000FF
:1002000000000000C80711241FBECFEFD1E2DEBFFF
:10021000CDBF00E00CBF12E0A0E0B2E0E8ECFAE1F4
:1002200000E00BBF02C007900D92A438B107D9F7C8
:100230001BBE15E0A4E8B2E001C01D92A936B107CB
:10024000E1F712E0C6E0D2E004C02297FE010E946E
:100250005E0DC430D107C9F70E94FE080C94620DF0
:100260000C940000FB01DC0102C001900D92415092
:100270005040D8F70895DF93CF93CDB7DEB76F978F
:100280000FB6F894DEBF0FBECDBF8EE189830E940A
:100290003D03CE010296BE016F5F7F4F0E94DA03DD
:1002A0006F960FB6F894DEBF0FBECDBFCF91DF9132
:1002B00008950F931F9368EE73E080E090E00E9432
:1002C000F30908ED14E0C80140E855E260E070E091
:1002D0000E949406C80160E072E00E945E098CE012
:1002E0000E94C4018BE00E94C70183E00E94CA0102
:1002F00081E00E94CD0180ED97E00E940C040E94F5
:1003000033031F910F9108956827462F4295407F30
:10031000462750E0742F6627292F30E0622B732B7D
:10032000CA01880F991F880F991F880F991F682786
:100330007927529542954F7045275F70452764276E
:100340007527CB0108950F931F93CF93DF936623F7
:10035000C1F06150EC012FEF3FEF062F10E00F5F6F
:100360001F4F080F191F6991C9010E9484019C0148
:10037000C017D107C1F7C901DF91CF911F910F912C
:1003800008952FEF3FEFF7CF8093100208958093E9
:100390000F0208958093550208958093AE02089548
:1003A00090918602992329F08091AF028F5F80930C
:1003B000AF028091B002981709F49BC02091B1025E
:1003C000203508F483C08DE1820F8093B1029093B1
:1003D000B002982F903A08F48BC02091B20230916D
:1003E000B302369527953093B3022093B2028091E1
:1003F000AF02853028F038603093B3022093B20208
:10040000905A9093B1021092AF028091AD0288236E
:1004100009F45EC08091B4028F5F8093B4028C3087
:1004200008F466C04091B2025091B302942F9F73BA
:1004300020E030E0F901EA5AFD4F8081981709F475
:1004400060C02F5F3F4F20313105A1F7E0E000246D
:10045000440F551F001C440F551F001C452F502DE5
:10046000242FA6E5B2E090E08C91281709F447C04C
:100470009F5F11969031C1F780E0982F9E2B80915D
:100480008E02882331F49093B502892F84508B31EA
:10049000E0F580918E02E82FF0E0E157FD4F908368
:1004A0008F5F80938E0290918E028091B502981793
:1004B00050F01092AD028091B7028F5F8093B70227
:1004C00081E080938D021092B40208958BE07CCF7E
:1004D0008091B2029091B30288539B4049F481E02D
:1004E0008093AD021092B40210928E0210928D028F
:1004F00008959091B1029C5E9093B1026BCF892FC9
:10050000BCCFE22FE295E07FA2CF1092AD028091A6
:10051000B6028F5F8093B60208952F923F924F925A
:100520005F926F927F928F929F92AF92BF92CF9283
:10053000DF92FF920F931F93DF93CF93CDB7DEB778
:100540002E970FB6F894DEBF0FBECDBF1B012A0158
:10055000DE011196E6E6F2E02EE001900D922150C8
:10056000E1F7009709F47AC0BC0180E090E00E94B6
:10057000490C9B01AC0160E070E080E89FE30E94C1
:10058000B00B20E030E040E05EE30E94D70C5B015E
:100590006C018E010D5F1F4FFF24F39431018824FD
:1005A0009924F8016081718180E090E00E94490CFB
:1005B0009B01AC0160E074E284E79BE40E94B00B15
:1005C0009B01AC0160E070E080E89FE30E94B00B0B
:1005D0009B01AC01C601B5010E94B00B0E94180C32
:1005E000623071058105910538F0A401930166150B
:1005F00077058805990578F1F3940E5F1F4FF7E0B2
:10060000FF1679F6623071058105910538F1910187
:1006100040E050E02617370748075907F8F0F20185
:10062000718360838F2D2E960FB6F894DEBF0FBEB8
:10063000CDBFCF91DF911F910F91FF90DF90CF90B1
:10064000BF90AF909F908F907F906F905F904F90F2
:100650003F902F900895E6E0FE16E1F6F201118238
:100660001082FF24DFCF80918402882329F481E067
:10067000809384021092AD02089580918D028823A8
:10068000E1F30895809155026091AE020E94420B01
:100690008091100260E00E94420B10928502089542
:1006A0001F920F920FB60F920BB60F9211242F9339
:1006B0003F934F935F936F937F938F939F93AF93EA
:1006C000BF93EF93FF9380918402882329F0809158
:1006D0008502882309F459C080918502882309F492
:1006E0004EC090918702892F9F5F90938702882345
:1006F000F9F0983010F010928702809184028823DC
:1007000021F0809185028823E9F1FF91EF91BF915B
:10071000AF919F918F917F916F915F914F913F9199
:100720002F910F900BBE0F900FBE0F901F9018953A
:10073000E091880280918902E81770F5809110029B
:1007400090918C0221E030E0092E02C0220F331F6D
:100750000A94E2F7F0E0EF5EFD4F608162239F5F55
:1007600090938C020E94420B80918C02863038F06C
:1007700010928C02809188028F5F80938802909102
:100780008702B7CF0E94D001C0CF80910F020E9494
:10079000780B80938602A0CF0E94420380918A0248
:1007A00090918B02019690938B0280938A02909194
:1007B00087029FCF0F931F93282FFB0180918D02FB
:1007C000882301F140918E02435080814817C0F088
:1007D000482F00E912E0822FB80150E00E94320158
:1007E00010928D0260918E02C80101970E94A301B0
:1007F00020E0885B904F59F0822F1F910F91089550
:100800004083E7CF20E0822F1F910F91089521E0D0
:10081000822F1F910F910895DF93CF930F920F9224
:10082000CDB7DEB76FEF7FEFAE014F5F5F4F0E9436
:100830008D02982F882351F11092800088E08093D8
:10084000810080918100892B8093810089819A8128
:10085000909389008093880080916F0082608093DC
:100860006F008091100261E00E94800A80910F0267
:1008700060E00E94800A8091550261E00E94800A37
:10088000809155026091AE020E94420B0F900F9032
:10089000CF91DF91089508951F920F920FB60F9296
:1008A0000BB60F9211242F933F934F938F939F93E7
:1008B000EF93FF938091C00082FD2AC04091C60053
:1008C0002091F8023091F9022F5F3F4F2F73307063
:1008D0008091FA029091FB022817390759F0E091B4
:1008E000F802F091F902E854FD4F40833093F90289
:1008F0002093F802FF91EF919F918F914F913F913B
:100900002F910F900BBE0F900FBE0F901F90189558
:100910008091C600EFCF08951F920F920FB60F92ED
:100920000BB60F9211242F933F934F938F939F9366
:10093000EF93FF938091C80082FD2AC04091CE00C2
:1009400020918003309181032F5F3F4F2F733070D0
:1009500080918203909183032817390759F0E09121
:100960008003F0918103E05CFC4F4083309381036E
:1009700020938003FF91EF919F918F914F913F9131
:100980002F910F900BBE0F900FBE0F901F901895D8
:100990008091CE00EFCF08951F920F920FB60F9265
:1009A0000BB60F9211242F933F934F938F939F93E6
:1009B000EF93FF938091D00082FD2AC04091D60032
:1009C00020910804309109042F5F3F4F2F7330703E
:1009D00080910A0490910B042817390759F0E0918F
:1009E0000804F0910904E853FC4F40833093090454
:1009F00020930804FF91EF919F918F914F913F9128
:100A00002F910F900BBE0F900FBE0F901F90189557
:100A10008091D600EFCF08951F920F920FB60F92DC
:100A20000BB60F9211242F933F934F938F939F9365
:100A3000EF93FF938091300182FD2AC040913601EF
:100A400020919004309191042F5F3F4F2F733070AD
:100A500080919204909193042817390759F0E091FE
:100A60009004F0919104E05BFB4F4083309391043C
:100A700020939004FF91EF919F918F914F913F911F
:100A80002F910F900BBE0F900FBE0F901F901895D7
:100A900080913601EFCFE091E404F091E504E05C51
:100AA000FF4F8191919120813181821B930B8F7334
:100AB0009070892BD1F5E0910605F0910705E05C77
:100AC000FF4F8191919120813181821B930B8F7314
:100AD0009070892B39F5E0912805F0912905E05CAB
:100AE000FF4F8191919120813181821B930B8F73F4
:100AF0009070892BA1F4E0914A05F0914B05E05CE0
:100B0000FF4F8191919120813181821B930B8F73D3
:100B10009070892B09F408950E940B0508950E9496
:100B2000CB04E9CF0E948B04D6CF0E944B04C3CFE5
:100B30001F920F920FB60F920BB60F9211242F93A4
:100B40003F938F939F93EF93FF9320913C033091BA
:100B50003D0380913E0390913F032817390709F127
:100B6000E0913E03F0913F03E450FD4F20818091DE
:100B70003E0390913F0301968F73907090933F03D3
:100B800080933E032093C600FF91EF919F918F9138
:100B90003F912F910F900BBE0F900FBE0F901F90A3
:100BA00018958091C1008F7D8093C100EDCF1F9279
:100BB0000F920FB60F920BB60F9211242F933F9303
:100BC0008F939F93EF93FF932091C4033091C503BC
:100BD0008091C6039091C7032817390709F1E09166
:100BE000C603F091C703EC57FC4F20818091C603E8
:100BF0009091C70301968F7390709093C703809371
:100C0000C6032093CE00FF91EF919F918F913F916A
:100C10002F910F900BBE0F900FBE0F901F90189545
:100C20008091C9008F7D8093C900EDCF1F920F92F4
:100C30000FB60F920BB60F9211242F933F938F9301
:100C40009F93EF93FF9320914C0430914D0480913A
:100C50004E0490914F042817390709F1E0914E0492
:100C6000F0914F04E45FFB4F208180914E049091FE
:100C70004F0401968F73907090934F0480934E04AD
:100C80002093D600FF91EF919F918F913F912F91EB
:100C90000F900BBE0F900FBE0F901F901895809174
:100CA000D1008F7D8093D100EDCF1F920F920FB6B0
:100CB0000F920BB60F9211242F933F938F939F9314
:100CC000EF93FF932091D4043091D5048091D60402
:100CD0009091D7042817390709F1E091D604F091D3
:100CE000D704EC56FB4F20818091D6049091D70415
:100CF00001968F7390709093D7048093D6042093BD
:100D00003601FF91EF919F918F913F912F910F901D
:100D10000BBE0F900FBE0F901F9018958091310160
:100D20008F7D80933101EDCFDF92EF92FF920F9391
:100D30001F93CF93DF93EC017A018B01DD244030C8
:100D400081EE580780E0680780E0780721F1DD2414
:100D5000D394EC89FD8981E090E008A002C0880F5F
:100D6000991F0A94E2F7808360E079E08DE390E0D8
:100D7000A80197010E943A0D215030404040504058
:100D8000569547953795279580E120303807D0F064
:100D9000DD20C1F0DD24EC89FD89108260E874E873
:100DA0008EE190E0A80197010E943A0D2150304059
:100DB00040405040569547953795279580E1203023
:100DC000380730F7E889F9893083EA89FB8920837D
:100DD00019A2EE89FF89408121E030E0C9010C8C25
:100DE00002C0880F991F0A94E2F7482B4083EE89CE
:100DF000FF894081C9010D8C02C0880F991F0A9498
:100E0000E2F7482B4083EE89FF894081C9010E8CAF
:100E100002C0880F991F0A94E2F7482B4083EE899D
:100E2000FF8980810F8C02C0220F331F0A94E2F7E2
:100E3000209528232083DF91CF911F910F91FF9060
:100E4000EF90DF900895DC011C96ED91FC911D97C9
:100E5000E05CFF4F2191319180819181281B390BFA
:100E60002F733070C9010895DC011C96ED91FC913F
:100E70001D97E05CFF4F20813181E054F040DF019D
:100E8000AE5BBF4F8D919C9111972817390749F0A0
:100E90008D919C91E80FF91F8081282F30E0C901C6
:100EA00008952FEF3FEFC9010895DC011C96ED91E5
:100EB000FC911D97E05CFF4F20813181E054F040B0
:100EC000DF01AE5BBF4F8D919C91119728173907B9
:100ED00091F08D919C911197E80FF91F20818D91D0
:100EE0009C91119701968F73907011969C938E939D
:100EF00030E0C90108952FEF3FEFC9010895FC01CB
:100F000081A1882311F411A20895A489B5898C9137
:100F100086FFFDCF11A20895CF93DF93EC01AE853C
:100F2000BF85AD01405C5F4FFA01208131812F5FA9
:100F30003F4F2F733070FD01EE5BFF4F8081918139
:100F400028173907D9F3FA0180819181A80FB91FB9
:100F50006C93EE85FF85E05CFF4F31832083EE8943
:100F6000FF89208181E090E00F8C02C0880F991FDB
:100F70000A94E2F7282B208381E089A3EC89FD897C
:100F800080818064808381E090E0DF91CF9108953B
:100F90001F931092DB041092DA0428EE33E040E055
:100FA00050E02093DC043093DD044093DE04509342
:100FB000DF0468E772E07093D9046093D80488EB8B
:100FC00092E09093E5048093E4048CEF92E0909398
:100FD000E7048093E60485EC90E09093E904809325
:100FE000E80484EC90E09093EB048093EA0480ECB6
:100FF00090E09093ED048093EC0481EC90E090936A
:10100000EF048093EE0482EC90E09093F1048093DF
:10101000F00486EC90E09093F3048093F20414E0E3
:101020001093F404B3E0B093F504A7E0A093F604A2
:10103000F5E0F093F704E1E0E093F8041092FD048A
:101040001092FC042093FE043093FF0440930005AB
:10105000509301057093FB046093FA0480E493E0DD
:10106000909307058093060584E893E09093090523
:10107000809308058DEC90E090930B0580930A0512
:101080008CEC90E090930D0580930C0588EC90E03B
:1010900090930F0580930E0589EC90E090931105D5
:1010A000809310058AEC90E09093130580931205CD
:1010B0008EEC90E09093150580931405109316051F
:1010C000B0931705A0931805F0931905E0931A053E
:1010D00010921F0510921E052093200530932105C4
:1010E000409322055093230570931D0560931C05C2
:1010F00088EC93E090932905809328058CE094E098
:1011000090932B0580932A0585ED90E090932D0513
:1011100080932C0584ED90E090932F0580932E050D
:1011200080ED90E0909331058093300581ED90E063
:10113000909333058093320582ED90E090933505CE
:101140008093340586ED90E09093370580933605C3
:1011500010933805B0933905A0933A05F0933B05F9
:10116000E0933C0510924105109240052093420502
:1011700030934305409344055093450570933F05D4
:1011800060933E0580E594E090934B0580934A057B
:1011900084E994E090934D0580934C0585E391E0BC
:1011A00090934F0580934E0584E391E09093510511
:1011B0008093500580E391E090935305809352050E
:1011C00081E391E0909355058093540582E391E08B
:1011D000909357058093560586E391E090935905C7
:1011E0008093580510935A05B0935B05A0935C0556
:1011F000F0935D05E0935E051F9108950E941E0A1D
:101200000E9459010E943B018BE495E0892B29F053
:101210000E944B050E943B01FBCF0E943B010E94B4
:101220003B01FBCFCF92DF92EF92FF920F931F9380
:10123000CF93DF937C016B01EA0141155105D9F091
:1012400000E010E0D6016D916D01D701ED91FC91A8
:101250000190F081E02DC7011995080F191F219702
:1012600089F7C801DF91CF911F910F91FF90EF9007
:10127000DF90CF90089500E010E0F3CFEF92FF925F
:101280000F931F938C01DC01ED91FC910190F08193
:10129000E02D6DE019957C01D801ED91FC91019054
:1012A000F081E02DC8016AE019959C012E0D3F1DCB
:1012B000C9011F910F91FF90EF9008950F931F9315
:1012C000CF93DF93EC0161157105D9F0DB010D902F
:1012D0000020E9F71197A61BB70BE881F98102807E
:1012E000F381E02DAD0119958C01CE010E943E09DC
:1012F0009801280F391FC901DF91CF911F910F91DC
:10130000089500E010E0F1CF1F920F920FB60F92F8
:1013100011242F933F938F939F93AF93BF9380910B
:10132000640590916505A0916605B09167053091BF
:1013300068050196A11DB11D232F2D5F2D3720F0CB
:101340002D570196A11DB11D20936805809364055A
:1013500090936505A0936605B0936705809160053D
:1013600090916105A0916205B09163050196A11D60
:10137000B11D8093600590936105A0936205B093C1
:101380006305BF91AF919F918F913F912F910F90E6
:101390000FBE0F901F9018959FB7F894209160058D
:1013A00030916105409162055091630586B5A89B17
:1013B00006C08F3F21F02F5F3F4F4F4F5F4F9FBFC2
:1013C000542F432F322F2227280F311D411D511D2D
:1013D000220F331F441F551F220F331F441F551F59
:1013E000B901CA010895EF92FF920F931F93CF9313
:1013F000DF937B018C010E94CC09E114F10401050B
:101400001105A9F0EB010E94CC096C1B7D0B685EF5
:101410007340C8F30894E108F10801091109E114C7
:10142000F1040105110519F0C851DC4FECCFDF9133
:10143000CF911F910F91FF90EF900895789484B50C
:10144000826084BD84B5816084BD85B5826085BDC0
:1014500085B5816085BDEEE6F0E0808181608083A6
:10146000E1E8F0E010828081826080838081816089
:101470008083E0E8F0E0808181608083E1EBF0E050
:10148000808184608083E0EBF0E0808181608083F4
:10149000E1E9F0E0808182608083808181608083E7
:1014A000E0E9F0E0808181608083E1EAF0E0808122
:1014B00082608083808181608083E0EAF0E08081C7
:1014C00081608083E1E2F1E08081826080838081BD
:1014D00081608083E0E2F1E0808181608083EAE7DF
:1014E000F0E080818460808380818260808380815D
:1014F000816080838081806880831092C10008951C
:10150000CF93DF93482F50E0CA0188589E4FFC01CB
:1015100034914E5C5E4FFA0184918823B9F090E0DB
:10152000880F991FFC01EC51FF4FA591B491FC016C
:10153000E250FF4FC591D491662359F06230B9F063
:101540009FB7F8948C91832B8C939FBFDF91CF91A1
:1015500008952FB7F8948C91932F909589238C93AD
:101560008881892388832FBFDF91CF9108952FB77A
:10157000F8948C91932F909589238C938881832B59
:1015800088832FBFE3CF893009F45EC08A3070F0C2
:101590008D3009F45FC08E30D0F0803109F46CC01A
:1015A000813109F463C08F30C9F10895843009F4A2
:1015B00045C08530B8F08730B9F1883048F58630BD
:1015C000A1F78091B0008F778093B00008958B30A1
:1015D00009F446C08C30B0F08091A0008F7D8093DC
:1015E000A0000895823031F1833030F48130E9F683
:1015F00084B58F7784BD0895809180008F77809324
:101600008000089580919000877F809390000895D6
:10161000809190008F7780939000089580912001B1
:101620008F778093200108958091B0008F7D809303
:10163000B000089584B58F7D84BD089580918000A9
:101640008F7D809380000895809190008F7D80939E
:10165000900008958091A000877F8093A000089556
:101660008091A0008F778093A00008958091200141
:10167000877F809320010895809120018F7D809342
:1016800020010895FF920F931F93F62E482F50E0EC
:10169000CA0182549E4FFC012491CA0188589E4F72
:1016A000FC0104914E5C5E4FFA011491112399F0F4
:1016B0002223D1F4E12FF0E0EE0FFF1FE250FF4FA5
:1016C000A591B4919FB7F894FF2049F48C910095AF
:1016D00080238C939FBF1F910F91FF9008958C9151
:1016E000802B8C939FBFF7CF822F0E94C30AE2CF3B
:1016F0000F931F93482F50E0CA0182549E4FFC0164
:101700002491CA0188589E4FFC0104914E5C5E4FA3
:10171000FA0114911123D1F02223F1F4812F90E0EA
:10172000880F991F885E9E4FFC01A591B4918C9102
:1017300020E030E0802321F4C9011F910F9108952A
:1017400021E030E0C9011F910F91089520E030E0C1
:10175000C9011F910F910895822F0E94C30ADECF05
:101760000CD0EBC0E3D040F0DAD030F021F45F3F92
:1017700019F0CCC0511115C1CFC0F0D098F3992306
:10178000C9F35523B1F3951B550BBB27AA27621745
:101790007307840738F09F5F5F4F220F331F441F8A
:1017A000AA1FA9F333D00E2E3AF0E0E830D09150C2
:1017B0005040E695001CCAF729D0FE2F27D0660FAF
:1017C000771F881FBB1F261737074807AB07B0E8EE
:1017D00009F0BB0B802DBF01FF2793585F4F2AF004
:1017E0009E3F510568F092C0DCC05F3FECF3983E2D
:1017F000DCF3869577956795B795F7959F5FC9F761
:10180000880F911D9695879597F90895E1E0660FE9
:10181000771F881FBB1F621773078407BA0720F062
:10182000621B730B840BBA0BEE1F88F7E0950895CB
:1018300004D06894B111B5C0089598D088F09F572E
:1018400090F0B92F9927B751A0F0D1F0660F771F0C
:10185000881F991F1AF0BA95C9F712C0B13081F0EC
:101860009FD0B1E008959CC0672F782F8827B85F7C
:1018700039F0B93FCCF3869577956795B395D9F74D
:101880003EF490958095709561957F4F8F4F9F4F57
:101890000895E89409C097FB3EF490958095709563
:1018A00061957F4F8F4F9F4F9923A9F0F92F96E9AC
:1018B000BB279395F695879577956795B795F11121
:1018C000F8CFFAF4BB0F11F460FF1BC06F5F7F4FBE
:1018D0008F4F9F4F16C0882311F096E911C07723D0
:1018E00021F09EE8872F762F05C0662371F096E8D9
:1018F000862F70E060E02AF09A95660F771F881FA8
:10190000DAF7880F9695879597F9089597F99F6765
:1019100080E870E060E008959FEF80EC0895002477
:101920000A941616170618060906089500240A9444
:1019300012161306140605060895092E0394000CCA
:1019400011F4882352F0BB0F40F4BF2B11F460FF59
:1019500004C06F5F7F4F8F4F9F4F089557FD905882
:10196000440F551F59F05F3F71F04795880F97FB63
:10197000991F61F09F3F79F087950895121613061D
:101980001406551FF2CF4695F1DF08C0161617064C
:101990001806991FF1CF8695710561050894089581
:1019A000E894BB2766277727CB0197F908950BD0DA
:1019B000C4CFB5DF28F0BADF18F0952309F0A6CF21
:1019C000ABCF1124EECFCADFA0F3959FD1F3950FD3
:1019D00050E0551F629FF001729FBB27F00DB11DB3
:1019E000639FAA27F00DB11DAA1F649F6627B00D43
:1019F000A11D661F829F2227B00DA11D621F739F2C
:101A0000B00DA11D621F839FA00D611D221F749F39
:101A10003327A00D611D231F849F600D211D822F80
:101A2000762F6A2F11249F5750408AF0E1F08823C7
:101A30004AF0EE0FFF1FBB1F661F771F881F9150D4
:101A40005040A9F79E3F510570F060CFAACF5F3F8D
:101A5000ECF3983EDCF3869577956795B795F79507
:101A6000E7959F5FC1F7FE2B880F911D969587958F
:101A700097F90895A1E21A2EAA1BBB1BFD010DC008
:101A8000AA1FBB1FEE1FFF1FA217B307E407F5072E
:101A900020F0A21BB30BE40BF50B661F771F881F0A
:101AA000991F1A9469F760957095809590959B01A0
:101AB000AC01BD01CF010895EE0FFF1F0590F49119
:081AC000E02D1994F894FFCF0A
:101AC8005265766569766572207365747570000B6A
:101AD8000C2A2A2A2A2A2A382C0000000000000092
:101AE80000000000000000000000000000000000EE
:101AF80000000000000000000000000000000000DE
:101B080000000000000000000000000000000000CD
:101B180000000000000A0D0E131516191A1C2325C3
:101B280026292A2C32340000010008004000000158
:101B38000004050D000000008C0712092307550753
:041B480034077F07D8
:00000001FF
