:100000000C9403010C9430010C9430010C943001D9
:100010000C9430010C9430010C9430010C9430019C
:100020000C9430010C9430010C9430010C9430018C
:100030000C9430010C9430010C9430010C9430017C
:100040000C9430010C947D030C9430010C9430011D
:100050000C9430010C9430010C9430010C947F0A04
:100060000C9430010C9479040C94C5050C94300167
:100070000C9430010C9430010C9430010C9430013C
:100080000C9430010C9430010C9430010C9430012C
:100090000C94B9040C9404060C9430010C943001B7
:1000A0000C9430010C9430010C9430010C9430010C
:1000B0000C9430010C9430010C9430010C943001FC
:1000C0000C9430010C9430010C9430010C94F90420
:1000D0000C9443060C9430010C9439050C94820660
:1000E0000C94300100002100240027002A002D007C
:1000F0003000330001010000040107010A01000083
:100100002200250028002B002E00310034000201BF
:100110000000050108010B0100002000230026005B
:1001200029002C002F00320000010000030106010D
:10013000090105050505070508080808020202026D
:100140000A0A080804040404010101010101010173
:100150000303030303030303040707070C0C0C0C3E
:100160000C0C0C0C02020202060606060606060627
:100170000B0B0B0B0B0B0B0B0102102020080810B4
:100180002040102040800201020108040201010207
:1001900004081020408080402010080402018004E0
:1001A000020180402010080402010804020101023B
:1001B0000408102040800102040810204080000044
:1001C000090A02080B0C0D070603040100000000D9
:1001D000000000000000000000000000000000001F
:1001E0000000000000000000000011100F000000DF
:1001F00000000000000000000000000000000000FF
:1002000000000000F50711241FBECFEFD1E2DEBFD2
:10021000CDBF00E00CBF12E0A0E0B2E0ECEFFCE1EB
:1002200000E00BBF02C007900D92A238B107D9F7CA
:100230001BBE15E0A2E8B2E001C01D92A736B107CF
:10024000E1F712E0C6E0D2E004C02297FE010E946E
:10025000780EC430D107C9F70E942B090C947C0E8C
:100260000C940000FB01DC0102C001900D92415092
:100270005040D8F70895EF92FF920F931F93DF93AA
:10028000CF93CDB7DEB76F970FB6F894DEBF0FBE32
:10029000CDBF8EE1898382E0E82EF12CEC0EFD1EAD
:1002A000C701BE016F5F7F4F0E940704882369F476
:1002B0006F960FB6F894DEBF0FBECDBFCF91DF9122
:1002C0001F910F91FF90EF90089586ED94E060E00C
:1002D00072E00E943A0A89818823C1F000E010E0B0
:1002E000F701E00FF11F86ED94E0608140E150E0FE
:1002F0000E94280A86ED94E060E20E946B090F5F7D
:100300001F4F898190E00817190754F386ED94E098
:100310000E947309CDCF0F931F9368EE73E080E0C6
:1003200090E00E94EE0A06ED14E0C80140E855E2B4
:1003300060E070E00E94C106C80166E072E00E94C1
:10034000590A8CE00E94F6018BE00E94F90183E0DB
:100350000E94FC0181E00E94FF0180ED97E00E9475
:1003600039040E9465031F910F9108956827462F55
:100370004295407F462750E0742F6627292F30E0B2
:10038000622B732BCA01880F991F880F991F880F42
:10039000991F68277927529542954F7045275F70BE
:1003A000452764277527CB0108950F931F93CF939B
:1003B000DF936623C1F06150EC012FEF3FEF062F72
:1003C00010E00F5F1F4F080F191F6991C9010E94AC
:1003D000B6019C01C017D107C1F7C901DF91CF91C8
:1003E0001F910F9108952FEF3FEFF7CF80930D02EC
:1003F000089580930C02089580935202089580938B
:10040000AC02089590918402992329F08091AD0265
:100410008F5F8093AD028091AE02981709F49BC064
:100420002091AF02203508F483C08DE1820F8093C4
:10043000AF029093AE02982F903A08F48BC02091AF
:10044000B0023091B102369527953093B1022093D6
:10045000B0028091AD02853028F038603093B1024F
:100460002093B002905A9093AF021092AD02809107
:10047000AB02882309F45EC08091B2028F5F809343
:10048000B2028C3008F466C04091B0025091B102C3
:10049000942F9F7320E030E0F901ED5AFD4F8081E9
:1004A000981709F460C02F5F3F4F20313105A1F745
:1004B000E0E00024440F551F001C440F551F001C92
:1004C000452F502D242FA3E5B2E090E08C91281702
:1004D00009F447C09F5F11969031C1F780E0982FD3
:1004E0009E2B80918C02882331F49093B302892F44
:1004F00084508B31E0F580918C02E82FF0E0E357D7
:10050000FD4F90838F5F80938C0290918C0280913D
:10051000B302981750F01092AB028091B5028F5F32
:100520008093B50281E080938B021092B20208950D
:100530008BE07CCF8091B0029091B10288539B40B8
:1005400049F481E08093AB021092B20210928C02C7
:1005500010928B0208959091AF029C5E9093AF022F
:100560006BCF892FBCCFE22FE295E07FA2CF109214
:10057000AB028091B4028F5F8093B40208952F92F2
:100580003F924F925F926F927F928F929F92AF9223
:10059000BF92CF92DF92FF920F931F93DF93CF937F
:1005A000CDB7DEB72E970FB6F894DEBF0FBECDBF26
:1005B0001B012A01DE011196E3E6F2E02EE0019034
:1005C0000D922150E1F7009709F47AC0BC0180E058
:1005D00090E00E94440D9B01AC0160E070E080E877
:1005E0009FE30E94AB0C20E030E040E05EE30E941D
:1005F000D20D5B016C018E010D5F1F4FFF24F39440
:10060000310188249924F8016081718180E090E0B3
:100610000E94440D9B01AC0160E074E284E79BE41E
:100620000E94AB0C9B01AC0160E070E080E89FE3AE
:100630000E94AB0C9B01AC01C601B5010E94AB0C42
:100640000E94130D623071058105910538F0A401F7
:100650009301661577058805990578F1F3940E5F87
:100660001F4FF7E0FF1679F662307105810591059D
:1006700038F1910140E050E0261737074807590745
:10068000F8F0F201718360838F2D2E960FB6F894E7
:10069000DEBF0FBECDBFCF91DF911F910F91FF90B5
:1006A000DF90CF90BF90AF909F908F907F906F9092
:1006B0005F904F903F902F900895E6E0FE16E1F690
:1006C000F20111821082FF24DFCF80918202882301
:1006D00029F481E0809382021092AB020895809108
:1006E00052026091AC020E943D0C80910D0260E0CC
:1006F0000E943D0C1092830208951F920F920FB634
:100700000F920BB60F9211242F933F934F935F9349
:100710006F937F938F939F93AF93BF93EF93FF93C9
:1007200080918202882329F080918302882309F432
:1007300059C080918302882309F44EC090918502AC
:10074000892F9F5F909385028823F9F0983010F0ED
:100750001092850280918202882321F08091830289
:100760008823E9F1FF91EF91BF91AF919F918F9114
:100770007F916F915F914F913F912F910F900BBEA1
:100780000F900FBE0F901F901895E09186028091F8
:100790008702E81770F580910D0290918A0221E09E
:1007A00030E0092E02C0220F331F0A94E2F7F0E076
:1007B000E25FFD4F608162239F5F90938A020E94F7
:1007C0003D0C80918A02863038F010928A02809126
:1007D00086028F5F8093860290918502B7CF0E9438
:1007E0000202C0CF80910C020E94730C809384029D
:1007F000A0CF0E946F038091880290918902019698
:100800009093890280938802909185029FCF0F93E5
:100810001F93282FFB0180918B02882301F14091C7
:100820008C02435080814817C0F0482F0EE812E038
:10083000822FB80150E00E94320110928B02609129
:100840008C02C80101970E94D50120E0885B904F7F
:1008500059F0822F1F910F9108954083E7CF20E038
:10086000822F1F910F91089521E0822F1F910F91E8
:100870000895DF93CF930F920F92CDB7DEB76FEF4E
:100880007FEFAE014F5F5F4F0E94BF02982F88231A
:1008900051F11092800088E0809381008091810066
:1008A000892B8093810089819A819093890080931C
:1008B000880080916F00826080936F0080910D02AC
:1008C00061E00E947B0B80910C0260E00E947B0B38
:1008D0008091520261E00E947B0B809152026091F4
:1008E000AC020E943D0C0F900F90CF91DF910895C4
:1008F00008951F920F920FB60F920BB60F9211240C
:100900002F933F934F938F939F93EF93FF938091F8
:10091000C00082FD2AC04091C6002091F6023091AD
:10092000F7022F5F3F4F2F7330708091F802909144
:10093000F9022817390759F0E091F602F091F70211
:10094000EA54FD4F40833093F7022093F602FF9163
:10095000EF919F918F914F913F912F910F900BBEEF
:100960000F900FBE0F901F9018958091C600EFCF8B
:1009700008951F920F920FB60F920BB60F9211248B
:100980002F933F934F938F939F93EF93FF93809178
:10099000C80082FD2AC04091CE0020917E03309194
:1009A0007F032F5F3F4F2F733070809180039091B2
:1009B00081032817390759F0E0917E03F0917F03F6
:1009C000E25CFC4F408330937F0320937E03FF91D2
:1009D000EF919F918F914F913F912F910F900BBE6F
:1009E0000F900FBE0F901F9018958091CE00EFCF03
:1009F00008951F920F920FB60F920BB60F9211240B
:100A00002F933F934F938F939F93EF93FF938091F7
:100A1000D00082FD2AC04091D6002091060430917A
:100A200007042F5F3F4F2F7330708091080490911F
:100A300009042817390759F0E0910604F0910704DA
:100A4000EA53FC4F40833093070420930604FF9140
:100A5000EF919F918F914F913F912F910F900BBEEE
:100A60000F900FBE0F901F9018958091D600EFCF7A
:100A700008951F920F920FB60F920BB60F9211248A
:100A80002F933F934F938F939F93EF93FF93809177
:100A9000300182FD2AC04091360120918E043091B0
:100AA0008F042F5F3F4F2F7330708091900490918F
:100AB00091042817390759F0E0918E04F0918F04C2
:100AC000E25BFB4F408330938F0420938E04FF91B1
:100AD000EF919F918F914F913F912F910F900BBE6E
:100AE0000F900FBE0F901F90189580913601EFCF99
:100AF000E091E204F091E304E05CFF4F8191919179
:100B000020813181821B930B8F739070892BD1F5DB
:100B1000E0910405F0910505E05CFF4F8191919112
:100B200020813181821B930B8F739070892B39F553
:100B3000E0912605F0912705E05CFF4F81919191AE
:100B400020813181821B930B8F739070892BA1F4CC
:100B5000E0914805F0914905E05CFF4F819191914A
:100B600020813181821B930B8F739070892B09F444
:100B700008950E94380508950E94F804E9CF0E9464
:100B8000B804D6CF0E947804C3CF1F920F920FB63D
:100B90000F920BB60F9211242F933F938F939F9335
:100BA000EF93FF9320913A0330913B0380913C03F4
:100BB00090913D032817390709F1E0913C03F0912A
:100BC0003D03E650FD4F208180913C0390913D0311
:100BD00001968F73907090933D0380933C03209314
:100BE000C600FF91EF919F918F913F912F910F90B0
:100BF0000BBE0F900FBE0F901F9018958091C100F3
:100C00008F7D8093C100EDCF1F920F920FB60F9290
:100C10000BB60F9211242F933F938F939F93EF93D3
:100C2000FF932091C2033091C3038091C40390913C
:100C3000C5032817390709F1E091C403F091C503F2
:100C4000EE57FC4F20818091C4039091C50301961B
:100C50008F7390709093C5038093C4032093CE004C
:100C6000FF91EF919F918F913F912F910F900BBE2C
:100C70000F900FBE0F901F9018958091C9008F7D27
:100C80008093C900EDCF1F920F920FB60F920BB653
:100C90000F9211242F933F938F939F93EF93FF9382
:100CA00020914A0430914B0480914C0490914D0462
:100CB0002817390709F1E0914C04F0914D04E65FE3
:100CC000FB4F208180914C0490914D0401968F73CD
:100CD000907090934D0480934C042093D600FF9124
:100CE000EF919F918F913F912F910F900BBE0F909D
:100CF0000FBE0F901F9018958091D1008F7D80932B
:100D0000D100EDCF1F920F920FB60F920BB60F923C
:100D100011242F933F938F939F93EF93FF932091F1
:100D2000D2043091D3048091D4049091D504281733
:100D3000390709F1E091D404F091D504EE56FB4F48
:100D400020818091D4049091D50401968F73907086
:100D50009093D5048093D40420933601FF91EF91B2
:100D60009F918F913F912F910F900BBE0F900FBECF
:100D70000F901F901895809131018F7D80933101E4
:100D8000EDCFDF92EF92FF920F931F93CF93DF93FC
:100D9000EC017A018B01DD24403081EE580780E0C0
:100DA000680780E0780721F1DD24D394EC89FD8980
:100DB00081E090E008A002C0880F991F0A94E2F732
:100DC000808360E079E08DE390E0A80197010E94C4
:100DD000540E21503040404050405695479537952D
:100DE000279580E120303807D0F0DD20C1F0DD24E8
:100DF000EC89FD89108260E874E88EE190E0A8013A
:100E000097010E94540E215030404040504056956A
:100E100047953795279580E12030380730F7E889E6
:100E2000F9893083EA89FB89208319A2EE89FF8939
:100E3000408121E030E0C9010C8C02C0880F991F6D
:100E40000A94E2F7482B4083EE89FF894081C9016B
:100E50000D8C02C0880F991F0A94E2F7482B40833B
:100E6000EE89FF894081C9010E8C02C0880F991F4D
:100E70000A94E2F7482B4083EE89FF8980810F8C2A
:100E800002C0220F331F0A94E2F720952823208303
:100E9000DF91CF911F910F91FF90EF90DF90089518
:100EA000DC011C96ED91FC911D97E05CFF4F2191B8
:100EB000319180819181281B390B2F733070C901CA
:100EC0000895DC011C96ED91FC911D97E05CFF4FAD
:100ED00020813181E054F040DF01AE5BBF4F8D9146
:100EE0009C9111972817390749F08D919C91E80F33
:100EF000F91F8081282F30E0C90108952FEF3FEFBF
:100F0000C9010895DC011C96ED91FC911D97E05CF0
:100F1000FF4F20813181E054F040DF01AE5BBF4FD5
:100F20008D919C9111972817390791F08D919C9183
:100F30001197E80FF91F20818D919C9111970196CF
:100F40008F73907011969C938E9330E0C901089531
:100F50002FEF3FEFC9010895FC0181A1882311F40F
:100F600011A20895A489B5898C9186FFFDCF11A2A5
:100F70000895CF93DF93EC01AE85BF85AD01405C52
:100F80005F4FFA01208131812F5F3F4F2F73307007
:100F9000FD01EE5BFF4F8081918128173907D9F35E
:100FA000FA0180819181A80FB91F6C93EE85FF85AE
:100FB000E05CFF4F31832083EE89FF89208181E04F
:100FC00090E00F8C02C0880F991F0A94E2F7282B3B
:100FD000208381E089A3EC89FD89808180648083FE
:100FE00081E090E0DF91CF9108951F931092D90492
:100FF0001092D80428EE33E040E050E02093DA0469
:101000003093DB044093DC045093DD0465E772E029
:101010007093D7046093D60486EB92E09093E30438
:101020008093E2048AEF92E09093E5048093E404D5
:1010300085EC90E09093E7048093E60484EC90E0E4
:101040009093E9048093E80480EC90E09093EB04A3
:101050008093EA0481EC90E09093ED048093EC049B
:1010600082EC90E09093EF048093EE0486EC90E0A5
:101070009093F1048093F00414E01093F204B3E031
:10108000B093F304A7E0A093F404F5E0F093F50423
:10109000E1E0E093F6041092FB041092FA0420932E
:1010A000FC043093FD044093FE045093FF047093BE
:1010B000F9046093F8048EE393E090930505809320
:1010C000040582E893E090930705809306058DEC74
:1010D00090E090930905809308058CEC90E0909344
:1010E0000B0580930A0588EC90E090930D058093A2
:1010F0000C0589EC90E090930F0580930E058AEC27
:1011000090E090931105809310058EEC90E0909301
:1011100013058093120510931405B0931505A09341
:101120001605F0931705E093180510921D0510920F
:101130001C0520931E0530931F05409320055093F6
:10114000210570931B0560931A0586EC93E090933C
:101150002705809326058AE094E0909329058093E3
:10116000280585ED90E090932B0580932A0584ED6A
:1011700090E090932D0580932C0580ED90E0909366
:101180002F0580932E0581ED90E09093310580939B
:10119000300582ED90E0909333058093320586ED23
:1011A00090E0909335058093340510933605B09305
:1011B0003705A0933805F0933905E0933A0510926E
:1011C0003F0510923E052093400530934105409322
:1011D00042055093430570933D0560933C058EE4B2
:1011E00094E0909349058093480582E994E09093B8
:1011F0004B0580934A0585E391E090934D058093DC
:101200004C0584E391E090934F0580934E0580E375
:1012100091E0909351058093500581E391E0909384
:1012200053058093520582E391E090935505809396
:10123000540586E391E090935705809356051093EB
:101240005805B0935905A0935A05F0935B05E093B8
:101250005C051F9108950E94190B0E948B010E944A
:101260003B0188E795E0892B29F00E9478050E94D0
:101270003B01FBCF0E943B010E943B01FBCFCF9281
:10128000DF92EF92FF920F931F93CF93DF937C0136
:101290006B01EA0141155105D9F000E010E0D601DB
:1012A0006D916D01D701ED91FC910190F081E02DE0
:1012B000C7011995080F191F219789F7C801DF91F8
:1012C000CF911F910F91FF90EF90DF90CF900895F5
:1012D00000E010E0F3CFDC01ED91FC910190F08192
:1012E000E02D19950895EF92FF920F931F938C01B3
:1012F000DC01ED91FC910190F081E02D6DE01995FC
:101300007C01D801ED91FC910190F081E02DC801A4
:101310006AE019959C012E0D3F1DC9011F910F9187
:10132000FF90EF9008954F925F927F928F929F92DD
:10133000AF92BF92CF92DF92EF92FF920F931F93E3
:10134000DF93CF93CDB7DEB7A1970FB6F894DEBF8A
:101350000FBECDBF2C01742ECB01223008F460C02B
:10136000822E9924AA24BB2419A221E2C22ED12CB8
:10137000CC0EDD1E0BC0405DF6014083E114F1048C
:101380000105110501F17E2C5F2DC801672D752F18
:10139000A50194010E94540E79018A01C801B70188
:1013A000A50194010E94350E472D461B0894C108E3
:1013B000D1084A3004F3495CF6014083E114F1049A
:1013C0000105110501F7C114D10481F1D6010D9079
:1013D0000020E9F71197AC19BD09F20180819181D4
:1013E000FC0122813381C201B601AD01F9011995D9
:1013F0009C01C901A1960FB6F894DEBF0FBECDBF08
:10140000CF91DF911F910F91FF90EF90DF90CF90E0
:10141000BF90AF909F908F907F905F904F90089576
:101420003AE0832E912CA12CB12C9ECF20E030E00D
:10143000E0CFDC012115310519F00E9493090895D0
:10144000ED91FC910190F081E02D642F19950895A4
:10145000EF92FF920F931F939A01E62EFF2400E074
:1014600010E0B801A7010E94190A1F910F91FF9087
:10147000EF900895CF93DF93EC016115710599F01A
:10148000DB010D900020E9F71197A61BB70BE8814F
:10149000F9810280F381E02DAD0119959C01C9010C
:1014A000DF91CF91089520E030E0C901DF91CF9125
:1014B00008950F931F93CF93DF93EC01611571058E
:1014C000D9F0DB010D900020E9F71197A61BB70BAF
:1014D000E881F9810280F381E02DAD0119958C013D
:1014E000CE010E9473099801280F391FC901DF91AD
:1014F000CF911F910F91089500E010E0F1CF1F925E
:101500000F920FB60F9211242F933F938F939F93B7
:10151000AF93BF938091620590916305A09164059C
:10152000B0916505309166050196A11DB11D232F6F
:101530002D5F2D3720F02D570196A11DB11D209351
:1015400066058093620590936305A0936405B0934C
:10155000650580915E0590915F05A0916005B09151
:1015600061050196A11DB11D80935E0590935F05F5
:10157000A0936005B0936105BF91AF919F918F914A
:101580003F912F910F900FBE0F901F9018959FB70E
:10159000F89420915E0530915F054091600550916F
:1015A000610586B5A89B06C08F3F21F02F5F3F4F96
:1015B0004F4F5F4F9FBF542F432F322F2227280FAB
:1015C000311D411D511D220F331F441F551F220F76
:1015D000331F441F551FB901CA010895EF92FF92AE
:1015E0000F931F93CF93DF937B018C010E94C70A57
:1015F000E114F10401051105A9F0EB010E94C70AED
:101600006C1B7D0B685E7340C8F30894E108F10819
:1016100001091109E114F1040105110519F0C8517E
:10162000DC4FECCFDF91CF911F910F91FF90EF90A6
:101630000895789484B5826084BD84B5816084BD4A
:1016400085B5826085BD85B5816085BDEEE6F0E03B
:10165000808181608083E1E8F0E010828081826097
:101660008083808181608083E0E8F0E08081816018
:101670008083E1EBF0E0808184608083E0EBF0E048
:10168000808181608083E1E9F0E0808182608083F5
:10169000808181608083E0E9F0E0808181608083E7
:1016A000E1EAF0E0808182608083808181608083D4
:1016B000E0EAF0E0808181608083E1E2F1E0808116
:1016C00082608083808181608083E0E2F1E08081BC
:1016D00081608083EAE7F0E080818460808380819C
:1016E0008260808380818160808380818068808344
:1016F0001092C1000895CF93DF93482F50E0CA01A4
:1017000088589E4FFC0134914E5C5E4FFA018491E3
:101710008823B9F090E0880F991FFC01EC51FF4F2E
:10172000A591B491FC01E250FF4FC591D49166237D
:1017300059F06230B9F09FB7F8948C91832B8C9359
:101740009FBFDF91CF9108952FB7F8948C91932F7D
:10175000909589238C938881892388832FBFDF917B
:10176000CF9108952FB7F8948C91932F909589235A
:101770008C938881832B88832FBFE3CF893009F432
:101780005EC08A3070F08D3009F45FC08E30D0F0CA
:10179000803109F46CC0813109F463C08F30C9F124
:1017A0000895843009F445C08530B8F08730B9F128
:1017B000883048F58630A1F78091B0008F7780930C
:1017C000B00008958B3009F446C08C30B0F08091A1
:1017D000A0008F7D8093A0000895823031F1833086
:1017E00030F48130E9F684B58F7784BD0895809117
:1017F00080008F7780938000089580919000877F8C
:10180000809390000895809190008F77809390004E
:101810000895809120018F77809320010895809111
:10182000B0008F7D8093B000089584B58F7D84BD16
:101830000895809180008F7D80938000089580912D
:1018400090008F7D8093900008958091A000877F05
:101850008093A00008958091A0008F778093A000CE
:10186000089580912001877F8093200108958091C1
:1018700020018F7D809320010895FF920F931F9385
:10188000F62E482F50E0CA0182549E4FFC0124914D
:10189000CA0188589E4FFC0104914E5C5E4FFA01CC
:1018A0001491112399F02223D1F4E12FF0E0EE0FEF
:1018B000FF1FE250FF4FA591B4919FB7F894FF200E
:1018C00049F48C91009580238C939FBF1F910F91B9
:1018D000FF9008958C91802B8C939FBFF7CF822F20
:1018E0000E94BE0BE2CF0F931F93482F50E0CA0116
:1018F00082549E4FFC012491CA0188589E4FFC01DE
:1019000004914E5C5E4FFA0114911123D1F0222311
:10191000F1F4812F90E0880F991F885E9E4FFC01A3
:10192000A591B4918C9120E030E0802321F4C9018D
:101930001F910F91089521E030E0C9011F910F918F
:10194000089520E030E0C9011F910F910895822F82
:101950000E94BE0BDECF0CD0EBC0E3D040F0DAD05B
:1019600030F021F45F3F19F0CCC0511115C1CFC048
:10197000F0D098F39923C9F35523B1F3951B550B78
:10198000BB27AA2762177307840738F09F5F5F4F52
:10199000220F331F441FAA1FA9F333D00E2E3AF093
:1019A000E0E830D091505040E695001CCAF729D0AD
:1019B000FE2F27D0660F771F881FBB1F26173707FC
:1019C0004807AB07B0E809F0BB0B802DBF01FF272C
:1019D00093585F4F2AF09E3F510568F092C0DCC0DB
:1019E0005F3FECF3983EDCF3869577956795B79566
:1019F000F7959F5FC9F7880F911D9695879597F981
:101A00000895E1E0660F771F881FBB1F62177307F9
:101A10008407BA0720F0621B730B840BBA0BEE1F0E
:101A200088F7E095089504D06894B111B5C0089581
:101A300098D088F09F5790F0B92F9927B751A0F010
:101A4000D1F0660F771F881F991F1AF0BA95C9F752
:101A500012C0B13081F09FD0B1E008959CC0672FD3
:101A6000782F8827B85F39F0B93FCCF38695779502
:101A70006795B395D9F73EF49095809570956195EB
:101A80007F4F8F4F9F4F0895E89409C097FB3EF416
:101A900090958095709561957F4F8F4F9F4F9923BB
:101AA000A9F0F92F96E9BB279395F6958795779539
:101AB0006795B795F111F8CFFAF4BB0F11F460FFF9
:101AC0001BC06F5F7F4F8F4F9F4F16C0882311F051
:101AD00096E911C0772321F09EE8872F762F05C065
:101AE000662371F096E8862F70E060E02AF09A9500
:101AF000660F771F881FDAF7880F9695879597F9F5
:101B0000089597F99F6780E870E060E008959FEF7F
:101B100080EC089500240A94161617061806090684
:101B2000089500240A941216130614060506089553
:101B3000092E0394000C11F4882352F0BB0F40F4DB
:101B4000BF2B11F460FF04C06F5F7F4F8F4F9F4F1B
:101B5000089557FD9058440F551F59F05F3F71F09D
:101B60004795880F97FB991F61F09F3F79F0879504
:101B70000895121613061406551FF2CF4695F1DF8D
:101B800008C0161617061806991FF1CF869571051D
:101B9000610508940895E894BB2766277727CB0151
:101BA00097F908950BD0C4CFB5DF28F0BADF18F04D
:101BB000952309F0A6CFABCF1124EECFCADFA0F357
:101BC000959FD1F3950F50E0551F629FF001729FD2
:101BD000BB27F00DB11D639FAA27F00DB11DAA1FF1
:101BE000649F6627B00DA11D661F829F2227B00D3E
:101BF000A11D621F739FB00DA11D621F839FA00DC9
:101C0000611D221F749F3327A00D611D231F849F18
:101C1000600D211D822F762F6A2F11249F5750406F
:101C20008AF0E1F088234AF0EE0FFF1FBB1F661F0A
:101C3000771F881F91505040A9F79E3F510570F0C3
:101C400060CFAACF5F3FECF3983EDCF386957795A3
:101C50006795B795F795E7959F5FC1F7FE2B880FBE
:101C6000911D9695879597F90895629FD001739F6E
:101C7000F001829FE00DF11D649FE00DF11D929F28
:101C8000F00D839FF00D749FF00D659FF00D992767
:101C9000729FB00DE11DF91F639FB00DE11DF91F8B
:101CA000BD01CF0111240895A1E21A2EAA1BBB1B6E
:101CB000FD010DC0AA1FBB1FEE1FFF1FA217B30718
:101CC000E407F50720F0A21BB30BE40BF50B661F2E
:101CD000771F881F991F1A9469F7609570958095F2
:101CE00090959B01AC01BD01CF010895EE0FFF1F40
:0C1CF0000590F491E02D1994F894FFCFBA
:101CFC00476F743A20007365747570000B0C2A2AB8
:101D0C002A2A2A2A382C00000000000000000000BB
:101D1C0000000000000000000000000000000000B7
:101D2C0000000000000000000000000000000000A7
:101D3C000000000000000000000000000000000097
:101D4C0000000A0D0E131516191A1C232526292A14
:101D5C002C32340000010008004000000100040592
:101D6C000D00000000B9073F09500782076107AC5E
:021D7C0007005E
:00000001FF
