:100000000C9404010C943A010C943A010C943A01BA
:100010000C943A010C943A010C943A010C943A0174
:100020000C943A010C943A010C943A010C943A0164
:100030000C943A010C943A010C943A010C943A0154
:100040000C943A010C942C060C943A010C943A014D
:100050000C943A010C943A010C943A010C947C0DE6
:100060000C943A010C9428070C9474080C943A01EF
:100070000C943A010C943A010C943A010C943A0114
:100080000C943A010C943A010C943A010C943A0104
:100090000C9468070C94B3080C943A010C943A0140
:1000A0000C943A010C943A010C943A010C943A01E4
:1000B0000C943A010C943A010C943A010C943A01D4
:1000C0000C943A010C943A010C943A010C94A80750
:1000D0000C94F2080C943A010C94E8070C94310942
:1000E0000C943A0100002100240027002A002D0072
:1000F0003000330001010000040107010A01000083
:100100002200250028002B002E00310034000201BF
:100110000000050108010B0100002000230026005B
:1001200029002C002F00320000010000030106010D
:10013000090105050505070508080808020202026D
:100140000A0A080804040404010101010101010173
:100150000303030303030303040707070C0C0C0C3E
:100160000C0C0C0C02020202060606060606060627
:100170000B0B0B0B0B0B0B0B0102102020080810B4
:100180002040102040800201020108040201010207
:1001900004081020408080402010080402018004E0
:1001A000020180402010080402010804020101023B
:1001B0000408102040800102040810204080000044
:1001C000090A02080B0C0D070603040100000000D9
:1001D000000000000000000000000000000000001F
:1001E0000000000000000000000011100F000000DF
:1001F00000000000000000000000000000000000FF
:10020000000000004E01A40A11241FBECFEFD1E26E
:10021000DEBFCDBF00E00CBF14BE88E10FB6F8947E
:1002200080936000109260000FBE12E0A0E0B2E088
:10023000E0E2F3E200E00BBF02C007900D92A43DA4
:10024000B107D9F71BBE15E0A4EDB2E001C01D92C5
:10025000A53CB107E1F712E0C8E0D2E004C0229764
:10026000FE010E948A11C430D107C9F70E94DA0B3F
:100270000C948E110C940000FB01DC0102C0019073
:100280000D9241505040D8F70895FB01DC018D914B
:10029000019080190110D9F3990B08950F9386ED01
:1002A00092E068E047E026E005E00E944C038BED19
:1002B00092E06CE04BE02AE009E00E944C030F91D1
:1002C00008958F929F92AF92BF92CF92DF92EF925A
:1002D000FF920F931F93DF93CF93CDB7DEB7CA562C
:1002E000D1400FB6F894DEBF0FBECDBF08C086ED7B
:1002F00092E04DEC5CEC6CEC7DEB0E94E30389E357
:100300000E94300E8536910594F74E010894811CA9
:10031000911C740100E010E08091D4020E94300E24
:10032000F7019183808384E395E0B8014AE050E0CF
:100330000E94050D84E395E060E072E00E94370DB5
:10034000F701619171917F0184E395E04AE050E00B
:100350000E94180D86ED92E040E050E060E87FE3F7
:100360000E94E3030F5F1F4F043B1105A9F6809124
:10037000D4020E94300E8E0107591E4FF80191835E
:10038000808384E395E064EB70E04AE050E00E94F3
:10039000050D84E395E060E072E00E94370DF801FE
:1003A0006081718184E395E04AE050E00E94180D7D
:1003B00054019E012D5F3F4FD901F40140815181CD
:1003C000BE0165597E4F8D919C9111974817590731
:1003D00014F45D01AC011296A617B707A1F78901C5
:1003E0006401F40120813181F801808191818217BB
:1003F000930714F468019C010E5F1F4FA017B1070B
:1004000099F7740108C082E090E0E80EF91EAE157D
:10041000BF0509F481C0F701808191814817590710
:1004200091F7840106C00E5F1F4FA017B10709F4B2
:1004300075C0F8018081918128173907A1F784E3FD
:1004400095E062E072E00E94370DF50160817181F4
:1004500084E395E04AE050E00E94180DE818F9089E
:10046000F594E79484E395E0B7014AE050E00E94F8
:10047000180D84E395E067E072E00E94370DF60105
:100480006081718184E395E04AE050E00E94180D9C
:10049000081919091595079584E395E0B8014AE014
:1004A00050E00E94180D8CE49FEFE80EF91E84E3E3
:1004B00095E06CE072E00E94370D84E395E0B701AF
:1004C0004AE050E00E94180D0027F7FC0095102F1D
:1004D000C801B7010E943010AB01BC0186ED92E06B
:1004E0000E94E30384E395E06AE172E00E94560D06
:1004F000C659DE4F0FB6F894DEBF0FBECDBFCF9109
:10050000DF911F910F91FF90EF90DF90CF90BF9000
:10051000AF909F908F9008957B0183CF8B018FCFF9
:100520000F931F93DF93CF93CDB7DEB76F970FB6BF
:10053000F894DEBF0FBECDBF8EE189830E941906FD
:100540008E010E5F1F4FC801BE016F5F7F4F0E947B
:10055000B606882359F46F960FB6F894DEBF0FBE27
:10056000CDBFCF91DF911F910F910895C80161E236
:1005700072E00E944501009709F44CC0C8016AE28C
:1005800072E00E9445010097E1F1C80163E372E067
:100590000E944501009761F1C8016CE372E00E947E
:1005A00045010097B1F0C80161E472E00E94450185
:1005B000009789F684E395E061E472E00E94560DAD
:1005C0008BED92E040E050E060E470E40E94E303D1
:1005D000C2CF84E395E06CE372E00E94560D8BED90
:1005E00092E040E050E060E470EC0E94E303DBCF77
:1005F00088E390E09093D5028093D4020E94610139
:10060000CBCF87E390E09093D5028093D4020E94F1
:100610006101BBCF86E390E09093D5028093D40232
:100620000E946101ABCF0F931F9304E315E0C80153
:1006300040E855E260E070E00E947009C80167E49C
:1006400072E00E94560D82E00E94A00483E00E94A6
:10065000A30484E00E94A60481E00E94A90480ED26
:1006600097E00E94E8060E940F0686ED92E00E9445
:1006700031048BED92E00E94310486E360E00E9439
:10068000650E87E360E00E94650E88E360E00E94EB
:10069000650E1F910F9108950F93FC0160834183B4
:1006A000228303830F910895CF92DF92EF92FF92FE
:1006B0000F931F93CF93DF93EC016B0161157105CD
:1006C00099F1EE24FF2407E029C00C83EC81F0E0CF
:1006D000E256FD4F8081182F60E010FD61E08881B7
:1006E0000E94270F60E011FD61E089810E94270FC1
:1006F00060E012FD61E08A810E94270F60E013FD37
:1007000061E08B810E94270F88EB9BE00E94C40D63
:100710000894E11CF11CEC14FD0430F48C81882356
:10072000A1F281508C83D2CFDF91CF911F910F9195
:10073000FF90EF90DF90CF900895CF92DF92EF92ED
:10074000FF921F93CF93DF93EC016B01611571054D
:1007500091F1EE24FF242AC08F5F8C83EC81F0E0BE
:10076000E256FD4F8081182F60E010FD61E0888126
:100770000E94270F60E011FD61E089810E94270F30
:1007800060E012FD61E08A810E94270F60E013FDA6
:1007900061E08B810E94270F88EB9BE00E94C40DD3
:1007A0000894E11CF11CEC14FD0428F48C818730C2
:1007B00099F61C82D3CFDF91CF911F91FF90EF90DC
:1007C000DF90CF900895AF92BF92CF92DF92EF92D9
:1007D000FF920F931F93CF93DF93EC015A016B01AC
:1007E000CB01BA0128ED31E843EB5DE30E94950FA0
:1007F0007B018C0120E030E040E050E00E94E010FE
:1008000018161CF5C801B7010E94FD0F8B01C60127
:10081000B50120E030E040E050E00E94E010882385
:100820007CF0CE01B8010E949D03DF91CF911F9112
:100830000F91FF90EF90DF90CF90BF90AF90089511
:10084000CE01B8010E945403F0CFC601B50128EDD6
:1008500031E843EB5DEB0E94950F0E94FD0F8B0189
:10086000D6CF0F931F938C01FC01808161E00E9421
:10087000650EF801818161E00E94650EF8018281B8
:1008800061E00E94650EF801838161E00E94650EBF
:10089000F8011482808160E00E94270FF8018181B5
:1008A00060E00E94270FF801828160E00E94270F1C
:1008B000F801838161E00E94270F1F910F91089535
:1008C0006827462F4295407F462750E0742F6627C1
:1008D000292F30E0622B732BCA01880F991F880FD4
:1008E000991F880F991F68277927529542954F7055
:1008F00045275F70452764277527CB0108950F931F
:100900001F93CF93DF936623C1F06150EC012FEF6B
:100910003FEF062F10E00F5F1F4F080F191F69915F
:10092000C9010E9460049C01C017D107C1F7C90129
:10093000DF91CF911F910F9108952FEF3FEFF7CFE8
:1009400080935702089580935602089580939C02E5
:10095000089580930A0308959091E202992329F063
:1009600080910B038F5F80930B0380910C0398178A
:1009700009F49BC020910D03203508F483C08DE15C
:10098000820F80930D0390930C03982F903A08F4F4
:100990008BC020910E0330910F033695279530932D
:1009A0000F0320930E0380910B03853028F03860ED
:1009B00030930F0320930E03905A90930D031092DF
:1009C0000B0380910903882309F45EC08091100312
:1009D0008F5F809310038C3008F466C040910E0343
:1009E00050910F03942F9F7320E030E0F901EA55F6
:1009F000FD4F8081981709F460C02F5F3F4F203171
:100A00003105A1F7E0E00024440F551F001C440FFE
:100A1000551F001C452F502D242FA6EAB2E090E070
:100A20008C91281709F447C09F5F11969031C1F748
:100A300080E0982F9E2B8091EA02882331F49093D6
:100A40001103892F84508B31E0F58091EA02E82F61
:100A5000F0E0E551FD4F90838F5F8093EA02909123
:100A6000EA0280911103981750F0109209038091C7
:100A700013038F5F8093130381E08093E902109248
:100A8000100308958BE07CCF80910E0390910F03AB
:100A900088539B4049F481E080930903109210032E
:100AA0001092EA021092E902089590910D039C5E63
:100AB00090930D036BCF892FBCCFE22FE295E07F9F
:100AC000A2CF10920903809112038F5F80931203CB
:100AD00008952F923F924F925F926F927F928F92E2
:100AE0009F92AF92BF92CF92DF92FF920F931F938C
:100AF000DF93CF93CDB7DEB72E970FB6F894DEBF56
:100B00000FBECDBF1B012A01DE011196E6EBF2E01C
:100B10002EE001900D922150E1F7009709F47AC080
:100B2000BC0180E090E00E942E109B01AC0160E0CF
:100B300070E080E89FE30E94950F20E030E040E005
:100B40005EE30E94E4105B016C018E010D5F1F4F9C
:100B5000FF24F394310188249924F8016081718184
:100B600080E090E00E942E109B01AC0160E074E2F6
:100B700084E79BE40E94950F9B01AC0160E070E06C
:100B800080E89FE30E94950F9B01AC01C601B5016F
:100B90000E94950F0E94FD0F62307105810591053D
:100BA00038F0A4019301661577058805990578F159
:100BB000F3940E5F1F4FF7E0FF1679F66230710570
:100BC0008105910538F1910140E050E02617370783
:100BD00048075907F8F0F201718360838F2D2E9634
:100BE0000FB6F894DEBF0FBECDBFCF91DF911F913E
:100BF0000F91FF90DF90CF90BF90AF909F908F901C
:100C00007F906F905F904F903F902F900895E6E017
:100C1000FE16E1F6F20111821082FF24DFCF8091EF
:100C2000E002882329F481E08093E0021092090316
:100C300008958091E9028823E1F3089580919C0250
:100C400060910A030E94270F8091570260E00E9482
:100C5000270F1092E10208951F920F920FB60F9284
:100C60000BB60F9211242F933F934F935F936F9383
:100C70007F938F939F93AF93BF93EF93FF93809155
:100C8000E002882329F08091E102882309F459C009
:100C90008091E102882309F44EC09091E302892FEC
:100CA0009F5F9093E3028823F9F0983010F0109240
:100CB000E3028091E002882321F08091E102882301
:100CC000E9F1FF91EF91BF91AF919F918F917F914A
:100CD0006F915F914F913F912F910F900BBE0F90AD
:100CE0000FBE0F901F901895E091E4028091E502ED
:100CF000E81770F5809157029091E80221E030E00A
:100D0000092E02C0220F331F0A94E2F7F0E0E85ADE
:100D1000FD4F608162239F5F9093E8020E94270F3E
:100D20008091E802863038F01092E8028091E40267
:100D30008F5F8093E4029091E302B7CF0E94AC04EE
:100D4000C0CF809156020E945D0F8093E202A0CF37
:100D50000E941E068091E6029091E7020196909310
:100D6000E7028093E6029091E3029FCF0F931F93D7
:100D7000282FFB018091E902882301F14091EA02CA
:100D8000435080814817C0F0482F0CEE12E0822FAC
:100D9000B80150E00E943C011092E9026091EA0221
:100DA000C80101970E947F0420E0885B904F59F0B2
:100DB000822F1F910F9108954083E7CF20E0822F6B
:100DC0001F910F91089521E0822F1F910F91089597
:100DD000DF93CF930F920F92CDB7DEB76FEF7FEF18
:100DE000AE014F5F5F4F0E946905982F882351F134
:100DF0001092800088E08093810080918100892B8F
:100E00008093810089819A819093890080938800E2
:100E100080916F00826080936F008091570261E043
:100E20000E94650E8091560260E00E94650E8091DE
:100E30009C0261E00E94650E80919C0260910A0311
:100E40000E94270F0F900F90CF91DF910895089582
:100E50001F920F920FB60F920BB60F9211242F9381
:100E60003F934F938F939F93EF93FF938091C00095
:100E700082FD2AC04091C600209154033091550351
:100E80002F5F3F4F2F73307080915603909157031F
:100E90002817390759F0E0915403F0915503EC5E9F
:100EA000FC4F40833093550320935403FF91EF91FF
:100EB0009F918F914F913F912F910F900BBE0F906B
:100EC0000FBE0F901F9018958091C600EFCF089528
:100ED0001F920F920FB60F920BB60F9211242F9301
:100EE0003F934F938F939F93EF93FF938091C8000D
:100EF00082FD2AC04091CE002091DC033091DD03B9
:100F00002F5F3F4F2F7330708091DE039091DF038E
:100F10002817390759F0E091DC03F091DD03E4561E
:100F2000FC4F40833093DD032093DC03FF91EF916E
:100F30009F918F914F913F912F910F900BBE0F90EA
:100F40000FBE0F901F9018958091CE00EFCF08959F
:100F50001F920F920FB60F920BB60F9211242F9380
:100F60003F934F938F939F93EF93FF938091D00084
:100F700082FD2AC04091D60020916404309165041E
:100F80002F5F3F4F2F7330708091660490916704FC
:100F90002817390759F0E0916404F0916504EC5D7D
:100FA000FB4F40833093650420936404FF91EF91DD
:100FB0009F918F914F913F912F910F900BBE0F906A
:100FC0000FBE0F901F9018958091D600EFCF089517
:100FD0001F920F920FB60F920BB60F9211242F9300
:100FE0003F934F938F939F93EF93FF9380913001A3
:100FF00082FD2AC0409136012091EC043091ED042D
:101000002F5F3F4F2F7330708091EE049091EF046B
:101010002817390759F0E091EC04F091ED04E455FC
:10102000FB4F40833093ED042093EC04FF91EF914C
:101030009F918F914F913F912F910F900BBE0F90E9
:101040000FBE0F901F90189580913601EFCFE09161
:101050004005F0914105E05CFF4F81919191208125
:101060003181821B930B8F739070892BD1F5E091A6
:101070006205F0916305E05CFF4F819191912081C1
:101080003181821B930B8F739070892B39F5E0911E
:101090008405F0918505E05CFF4F8191919120815D
:1010A0003181821B930B8F739070892BA1F4E09197
:1010B000A605F091A705E05CFF4F819191912081F9
:1010C0003181821B930B8F739070892B09F40895E3
:1010D0000E94E70708950E94A707E9CF0E946707CB
:1010E000D6CF0E942707C3CF1F920F920FB60F9241
:1010F0000BB60F9211242F933F938F939F93EF93EF
:10110000FF93209198033091990380919A039091D5
:101110009B032817390709F1E0919A03F0919B038B
:10112000E85AFC4F208180919A0390919B0301968D
:101130008F73907090939B0380939A032093C600C3
:10114000FF91EF919F918F913F912F910F900BBE47
:101150000F900FBE0F901F9018958091C1008F7D4A
:101160008093C100EDCF1F920F920FB60F920BB676
:101170000F9211242F933F938F939F93EF93FF939D
:101180002091200430912104809122049091230425
:101190002817390709F1E0912204F0912304E05265
:1011A000FC4F2081809122049091230401968F733B
:1011B000907090932304809322042093CE00FF919B
:1011C000EF919F918F913F912F910F900BBE0F90B8
:1011D0000FBE0F901F9018958091C9008F7D80934E
:1011E000C900EDCF1F920F920FB60F920BB60F9260
:1011F00011242F933F938F939F93EF93FF9320910D
:10120000A8043091A9048091AA049091AB042817F6
:10121000390709F1E091AA04F091AB04E859FB4FBA
:1012200020818091AA049091AB0401968F739070F5
:101230009093AB048093AA042093D600FF91EF9182
:101240009F918F913F912F910F900BBE0F900FBEEA
:101250000F901F9018958091D1008F7D8093D100C1
:10126000EDCF1F920F920FB60F920BB60F92112473
:101270002F933F938F939F93EF93FF93209130058C
:101280003091310580913205909133052817390747
:1012900009F1E0913205F0913305E051FB4F2081D7
:1012A000809132059091330501968F7390709093E1
:1012B00033058093320520933601FF91EF919F9182
:1012C0008F913F912F910F900BBE0F900FBE0F90FB
:1012D0001F901895809131018F7D80933101EDCF62
:1012E000DF92EF92FF920F931F93CF93DF93EC0166
:1012F0007A018B01DD24403081EE580780E06807D9
:1013000080E0780721F1DD24D394EC89FD8981E028
:1013100090E008A002C0880F991F0A94E2F780832A
:1013200060E079E08DE390E0A80197010E946611EA
:10133000215030404040504056954795379527956D
:1013400080E120303807D0F0DD20C1F0DD24EC89C9
:10135000FD89108260E874E88EE190E0A8019701B1
:101360000E946611215030404040504056954795AC
:101370003795279580E12030380730F7E889F989DB
:101380003083EA89FB89208319A2EE89FF89408195
:1013900021E030E0C9010C8C02C0880F991F0A942B
:1013A000E2F7482B4083EE89FF894081C9010D8C0B
:1013B00002C0880F991F0A94E2F7482B4083EE89F8
:1013C000FF894081C9010E8C02C0880F991F0A94C1
:1013D000E2F7482B4083EE89FF8980810F8C02C0A1
:1013E000220F331F0A94E2F7209528232083DF91F0
:1013F000CF911F910F91FF90EF90DF900895DC0146
:101400001C96ED91FC911D97E05CFF4F219131916D
:1014100080819181281B390B2F733070C901089589
:10142000DC011C96ED91FC911D97E05CFF4F208143
:101430003181E054F040DF01AE5BBF4F8D919C9154
:1014400011972817390749F08D919C91E80FF91FE2
:101450008081282F30E0C90108952FEF3FEFC901A7
:101460000895DC011C96ED91FC911D97E05CFF4F07
:1014700020813181E054F040DF01AE5BBF4F8D91A0
:101480009C9111972817390791F08D919C91119794
:10149000E80FF91F20818D919C91119701968F7310
:1014A000907011969C938E9330E0C90108952FEFB0
:1014B0003FEFC9010895FC0181A1882311F411A215
:1014C0000895A489B5898C9186FFFDCF11A2089556
:1014D000CF93DF93EC01AE85BF85AD01405C5F4FDC
:1014E000FA01208131812F5F3F4F2F733070FD0152
:1014F000EE5BFF4F8081918128173907D9F3FA01FC
:1015000080819181A80FB91F6C93EE85FF85E05C07
:10151000FF4F31832083EE89FF89208181E090E0B5
:101520000F8C02C0880F991F0A94E2F7282B2083A2
:1015300081E089A3EC89FD8980818064808381E0DA
:1015400090E0DF91CF9108951F931092370510928C
:10155000360528EE33E040E050E020933805309324
:10156000390540933A0550933B0568EC72E070935F
:1015700035056093340584E193E0909341058093B1
:10158000400588E593E0909343058093420585EC00
:1015900090E0909345058093440584EC90E090930F
:1015A00047058093460580EC90E090934905809331
:1015B000480581EC90E090934B0580934A0582ECBE
:1015C00090E090934D0580934C0586EC90E09093CD
:1015D0004F0580934E0514E010935005B3E0B0938F
:1015E0005105A7E0A0935205F5E0F0935305E1E023
:1015F000E0935405109259051092580520935A050E
:1016000030935B0540935C0550935D0570935705DF
:10161000609356058CE993E090936305809362058F
:1016200080EE93E090936505809364058DEC90E0E7
:1016300090936705809366058CEC90E09093690524
:101640008093680588EC90E090936B0580936A0521
:1016500089EC90E090936D0580936C058AEC90E0A6
:1016600090936F0580936E058EEC90E090937105DA
:101670008093700510937205B0937305A093740561
:10168000F0937505E093760510927B0510927A052C
:1016900020937C0530937D0540937E0550937F0514
:1016A000709379056093780584E294E090938505C2
:1016B0008093840588E694E090938705809386055F
:1016C00085ED90E0909389058093880584ED90E006
:1016D00090938B0580938A0580ED90E090938D0523
:1016E00080938C0581ED90E090938F0580938E051B
:1016F00082ED90E0909391058093900586ED90E0C7
:10170000909393058093920510939405B09395055B
:10171000A0939605F0939705E093980510929D0588
:1017200010929C0520939E0530939F054093A00541
:101730005093A10570939B0560939A058CEA94E001
:101740009093A7058093A60580EF94E09093A90558
:101750008093A80585E391E09093AB058093AA055B
:1017600084E391E09093AD058093AC0580E391E034
:101770009093AF058093AE0581E391E09093B1051E
:101780008093B00582E391E09093B3058093B20516
:1017900086E391E09093B5058093B4051093B60568
:1017A000B093B705A093B805F093B905E093BA05D7
:1017B0001F9108950E94CE0D0E9413030E94900273
:1017C00087E298E0892B29F00E9427080E94900266
:1017D000FBCF0E9490020E949002FBCFCF92DF923B
:1017E000EF92FF920F931F93CF93DF937C016B01D6
:1017F000EA0141155105D9F000E010E0D6016D91E4
:101800006D01D701ED91FC910190F081E02DC701B0
:101810001995080F191F219789F7C801DF91CF91FA
:101820001F910F91FF90EF90DF90CF90089500E00F
:1018300010E0F3CFEF92FF920F931F938C01DC0126
:10184000ED91FC910190F081E02D6DE019957C0106
:10185000D801ED91FC910190F081E02DC8016AE082
:1018600019959C012E0D3F1DC9011F910F91FF90ED
:10187000EF9008954F925F927F928F929F92AF92D6
:10188000BF92CF92DF92EF92FF920F931F93DF935D
:10189000CF93CDB7DEB7A1970FB6F894DEBF0FBEDA
:1018A000CDBF2C01742ECB01223008F460C0822EF3
:1018B0009924AA24BB2419A221E2C22ED12CCC0E39
:1018C000DD1E0BC0405DF6014083E114F10401050B
:1018D000110501F17E2C5F2DC801672D752FA50123
:1018E00094010E94661179018A01C801B701A5011E
:1018F00094010E944711472D461B0894C108D10846
:101900004A3004F3495CF6014083E114F104010517
:10191000110501F7C114D10481F1D6010D90002009
:10192000E9F71197AC19BD09F20180819181FC01A1
:1019300022813381C201B601AD01F90119959C01E3
:10194000C901A1960FB6F894DEBF0FBECDBFCF91EF
:10195000DF911F910F91FF90EF90DF90CF90BF909C
:10196000AF909F908F907F905F904F9008953AE056
:10197000832E912CA12CB12C9ECF20E030E0E0CF23
:10198000CF92DF92EF92FF920F931F93CF93DF934B
:10199000EC016A017B0121153105B9F02A303105CE
:1019A00039F477FD1BC02AE00E943A0C9C0103C069
:1019B0000E943A0C9C01C901DF91CF911F910F91B8
:1019C000FF90EF90DF90CF900895E881F98101902A
:1019D000F081E02D642F19959C01EDCFE881F9810C
:1019E0000190F081E02D6DE219958C014427552777
:1019F000BA014C195D096E097F09CE012AE00E94E7
:101A00003A0C9801280F391FD6CFEF92FF920F930F
:101A10001F937B019A010027F7FC0095102FB80156
:101A2000A7010E94C00C1F910F91FF90EF900895A5
:101A3000CF92DF92EF92FF920F931F936C017B0185
:101A40009A010027F7FC0095102FB801A7010E940A
:101A5000C00C8C01C6010E941A0C080F191FC80186
:101A60001F910F91FF90EF90DF90CF900895CF934B
:101A7000DF93EC016115710599F0DB010D900020F9
:101A8000E9F71197A61BB70BE881F9810280F38172
:101A9000E02DAD0119959C01C901DF91CF91089509
:101AA00020E030E0C901DF91CF9108950F931F939B
:101AB000CF93DF93EC0161157105D9F0DB010D9037
:101AC0000020E9F71197A61BB70BE881F981028086
:101AD000F381E02DAD0119958C01CE010E941A0C05
:101AE0009801280F391FC901DF91CF911F910F91E4
:101AF000089500E010E0F1CF1F920F920FB60F9201
:101B000011242F933F938F939F93AF93BF93809113
:101B1000C0059091C105A091C205B091C305309157
:101B2000C4050196A11DB11D232F2D5F2D3720F077
:101B30002D570196A11DB11D2093C4058093C005AA
:101B40009093C105A093C205B093C3058091BC05D5
:101B50009091BD05A091BE05B091BF050196A11D54
:101B6000B11D8093BC059093BD05A093BE05B093B5
:101B7000BF05BF91AF919F918F913F912F910F9092
:101B80000FBE0F901F901895019739F0880F991F7D
:101B9000880F991F02970197F1F70895789484B5FB
:101BA000826084BD84B5816084BD85B5826085BD59
:101BB00085B5816085BDEEE6F0E08081816080833F
:101BC000E1E8F0E010828081826080838081816022
:101BD0008083E0E8F0E0808181608083E1EBF0E0E9
:101BE000808184608083E0EBF0E08081816080838D
:101BF000E1E9F0E080818260808380818160808380
:101C0000E0E9F0E0808181608083E1EAF0E08081BA
:101C100082608083808181608083E0EAF0E080815F
:101C200081608083E1E2F1E0808182608083808155
:101C300081608083E0E2F1E0808181608083EAE777
:101C4000F0E08081846080838081826080838081F5
:101C5000816080838081806880831092C1000895B4
:101C6000382F863308F0365320917B00832F8695DA
:101C70008695869590E081709070880F991F880FE7
:101C8000991F880F991F277F282B20937B0037707F
:101C900080919D028295880F880F807C832B809392
:101CA0007C0080917A00806480937A0080917A0031
:101CB00086FDFCCF2091780040917900942F80E040
:101CC00030E0282B392BC9010895CF93DF93482F9B
:101CD00050E0CA0188589E4FFC0134914E5C5E4F23
:101CE000FA0184918823B9F090E0880F991FFC01D4
:101CF000EC51FF4FA591B491FC01E250FF4FC5910B
:101D0000D491662359F06230B9F09FB7F8948C9162
:101D1000832B8C939FBFDF91CF9108952FB7F894B9
:101D20008C91932F909589238C9388818923888324
:101D30002FBFDF91CF9108952FB7F8948C91932FF7
:101D4000909589238C938881832B88832FBFE3CF41
:101D5000893009F45EC08A3070F08D3009F45FC0BC
:101D60008E30D0F0803109F46CC0813109F463C049
:101D70008F30C9F10895843009F445C08530B8F03A
:101D80008730B9F1883048F58630A1F78091B000EE
:101D90008F778093B00008958B3009F446C08C3063
:101DA000B0F08091A0008F7D8093A00008958230D4
:101DB00031F1833030F48130E9F684B58F7784BD1A
:101DC0000895809180008F7780938000089580919E
:101DD0009000877F809390000895809190008F7786
:101DE000809390000895809120018F778093200147
:101DF00008958091B0008F7D8093B000089584B5E0
:101E00008F7D84BD0895809180008F7D80938000B8
:101E10000895809190008F7D809390000895809127
:101E2000A000877F8093A00008958091A0008F7705
:101E30008093A000089580912001877F80932001E6
:101E40000895809120018F7D809320010895FF9255
:101E50000F931F93F62E482F50E0CA0182549E4FD5
:101E6000FC012491CA0188589E4FFC0104914E5CEC
:101E70005E4FFA011491112399F02223D1F4E12F3E
:101E8000F0E0EE0FFF1FE250FF4FA591B4919FB716
:101E9000F894FF2049F48C91009580238C939FBF88
:101EA0001F910F91FF9008958C91802B8C939FBF71
:101EB000F7CF822F0E94A80EE2CF0F931F93482FD7
:101EC00050E0CA0182549E4FFC012491CA018858F7
:101ED0009E4FFC0104914E5C5E4FFA011491112358
:101EE000D1F02223F1F4812F90E0880F991F885EB2
:101EF0009E4FFC01A591B4918C9120E030E08023AD
:101F000021F4C9011F910F91089521E030E0C9012A
:101F10001F910F91089520E030E0C9011F910F91AA
:101F20000895822F0E94A80EDECF0CD00FC107D1DA
:101F300040F0FED030F021F45F3F19F0F0C05111B5
:101F400039C1F3C014D198F39923C9F35523B1F3E0
:101F5000951B550BBB27AA2762177307840738F018
:101F60009F5F5F4F220F331F441FAA1FA9F333D077
:101F70000E2E3AF0E0E830D091505040E695001C2B
:101F8000CAF729D0FE2F27D0660F771F881FBB1FE7
:101F9000261737074807AB07B0E809F0BB0B802DC1
:101FA000BF01FF2793585F4F2AF09E3F510568F00D
:101FB000B6C000C15F3FECF3983EDCF386957795A1
:101FC0006795B795F7959F5FC9F7880F911D96950F
:101FD000879597F90895E1E0660F771F881FBB1F6B
:101FE000621773078407BA0720F0621B730B840B18
:101FF000BA0BEE1F88F7E095089504D06894B111EC
:10200000D9C00895BCD088F09F5790F0B92F992778
:10201000B751A0F0D1F0660F771F881F991F1AF0F3
:10202000BA95C9F712C0B13081F0C3D0B1E00895BC
:10203000C0C0672F782F8827B85F39F0B93FCCF33D
:10204000869577956795B395D9F73EF490958095E9
:10205000709561957F4F8F4F9F4F0895E89409C009
:1020600097FB3EF490958095709561957F4F8F4FCB
:102070009F4F9923A9F0F92F96E9BB279395F695E1
:10208000879577956795B795F111F8CFFAF4BB0F5F
:1020900011F460FF1BC06F5F7F4F8F4F9F4F16C0C3
:1020A000882311F096E911C0772321F09EE8872F4D
:1020B000762F05C0662371F096E8862F70E060E009
:1020C0002AF09A95660F771F881FDAF7880F969582
:1020D000879597F90895990F0008550FAA0BE0E826
:1020E000FEEF16161706E807F907C0F012161306DA
:1020F000E407F50798F0621B730B840B950B39F41A
:102100000A2661F0232B242B252B21F408950A267F
:1021100009F4A140A6958FEF811D811D089597F9BF
:102120009F6780E870E060E008959FEF80EC08957D
:1021300000240A94161617061806090608950024A6
:102140000A9412161306140605060895092E039420
:10215000000C11F4882352F0BB0F40F4BF2B11F494
:1021600060FF04C06F5F7F4F8F4F9F4F089557FDF3
:102170009058440F551F59F05F3F71F04795880FF5
:1021800097FB991F61F09F3F79F08795089512168C
:1021900013061406551FF2CF4695F1DF08C0161638
:1021A00017061806991FF1CF8695710561050894E9
:1021B0000895E894BB2766277727CB0197F9089500
:1021C0008ADF08F48FEF08950BD0C0CFB1DF28F07D
:1021D000B6DF18F0952309F0A2CFA7CF1124EACFDC
:1021E000C6DFA0F3959FD1F3950F50E0551F629F76
:1021F000F001729FBB27F00DB11D639FAA27F00D60
:10220000B11DAA1F649F6627B00DA11D661F829F86
:102210002227B00DA11D621F739FB00DA11D621F6B
:10222000839FA00D611D221F749F3327A00D611D88
:10223000231F849F600D211D822F762F6A2F11246A
:102240009F5750408AF0E1F088234AF0EE0FFF1FBD
:10225000BB1F661F771F881F91505040A9F79E3FF4
:10226000510570F05CCFA6CF5F3FECF3983EDCF3F6
:10227000869577956795B795F795E7959F5FC1F731
:10228000FE2B880F911D9695879597F90895629F6B
:10229000D001739FF001829FE00DF11D649FE00D5E
:1022A000F11D929FF00D839FF00D749FF00D659FBF
:1022B000F00D9927729FB00DE11DF91F639FB00DBE
:1022C000E11DF91FBD01CF0111240895A1E21A2ECD
:1022D000AA1BBB1BFD010DC0AA1FBB1FEE1FFF1FCA
:1022E000A217B307E407F50720F0A21BB30BE40B1A
:1022F000F50B661F771F881F991F1A9469F7609561
:102300007095809590959B01AC01BD01CF0108951A
:10231000EE0FFF1F0590F491E02D1994F894FFCF74
:102320003D004D61783A004D696E3A00526F74611C
:10233000746520616E676C653A0046696E69736802
:10234000004348414E4E454C31004348414E4E45B6
:102350004C32004348414E4E454C33004C454654A8
:102360000052494748540053746174696F6E20737A
:102370006574757021000B0C2A2A2A2A2A2A382C07
:10238000000000000000000000000000000000004D
:10239000000000000000000000000000000000003D
:1023A000000000000000000000000000000000002D
:1023B0000000000000000000000000000A01080CFE
:1023C0000406020301090D0E131516191A1C232504
:1023D00026292A2C323400000100080040000001A8
:1023E0000004050D00000000680AEE0BFF09310A29
:0423F000100A5B0A6A
:00000001FF
