:100000000C9404010C943A010C943A010C943A01BA
:100010000C943A010C943A010C943A010C943A0174
:100020000C943A010C943A010C943A010C943A0164
:100030000C943A010C943A010C943A010C943A0154
:100040000C943A010C9442060C943A010C943A0137
:100050000C943A010C943A010C943A010C94920DD0
:100060000C943A010C943E070C948A080C943A01C3
:100070000C943A010C943A010C943A010C943A0114
:100080000C943A010C943A010C943A010C943A0104
:100090000C947E070C94C9080C943A010C943A0114
:1000A0000C943A010C943A010C943A010C943A01E4
:1000B0000C943A010C943A010C943A010C943A01D4
:1000C0000C943A010C943A010C943A010C94BE073A
:1000D0000C9408090C943A010C94FE070C944709FF
:1000E0000C943A0100002100240027002A002D0072
:1000F0003000330001010000040107010A01000083
:100100002200250028002B002E00310034000201BF
:100110000000050108010B0100002000230026005B
:1001200029002C002F00320000010000030106010D
:10013000090105050505070508080808020202026D
:100140000A0A080804040404010101010101010173
:100150000303030303030303040707070C0C0C0C3E
:100160000C0C0C0C02020202060606060606060627
:100170000B0B0B0B0B0B0B0B0102102020080810B4
:100180002040102040800201020108040201010207
:1001900004081020408080402010080402018004E0
:1001A000020180402010080402010804020101023B
:1001B0000408102040800102040810204080000044
:1001C000090A02080B0C0D070603040100000000D9
:1001D000000000000000000000000000000000001F
:1001E0000000000000000000000011100F000000DF
:1001F00000000000000000000000000000000000FF
:10020000000000004E01BA0A11241FBECFEFD1E258
:10021000DEBFCDBF00E00CBF14BE88E10FB6F8947E
:1002200080936000109260000FBE12E0A0E0B2E088
:10023000ECE4F3E200E00BBF02C007900D92A43E95
:10024000B107D9F71BBE15E0A4EEB2E001C01D92C4
:10025000A73DB107E1F712E0C8E0D2E004C0229761
:10026000FE010E94A011C430D107C9F70E94F00B13
:100270000C94A4110C940000FB01DC0102C001905D
:100280000D9241505040D8F70895FB01DC018D914B
:10029000019080190110D9F3990B08950F9386EE00
:1002A00092E065E046E027E008E00E9462038BEE02
:1002B00092E069E04AE02BE00CE00E9462030F91BB
:1002C00008958F929F92AF92BF92CF92DF92EF925A
:1002D000FF920F931F93DF93CF93CDB7DEB7CA562C
:1002E000D1400FB6F894DEBF0FBECDBF89E30E94A8
:1002F000460E843691050CF407C14E010894811C0A
:10030000911C740100E010E08091E4020E94460E0E
:10031000F7019183808386E495E0B8014AE050E0DC
:100320000E941B0D86E495E060E072E00E944D0D96
:10033000F701619171917F0186E495E04AE050E018
:100340000E942E0D86EE92E040E050E060E87FE3F0
:100350000E94F9030F5F1F4F043B1105A9F680911E
:10036000E4020E94460E8E0107591E4FF801918348
:10037000808386E495E064EB70E04AE050E00E9400
:100380001B0D86E495E060E072E00E944D0DF801DF
:100390006081718186E495E04AE050E00E942E0D74
:1003A00054019E012D5F3F4FD901F40140815181DD
:1003B000BE0165597E4F8D919C9111974817590741
:1003C00014F45D01AC011296A617B707A1F78901D5
:1003D0006401F40120813181F801808191818217CB
:1003E000930714F468019C010E5F1F4FA017B1071B
:1003F00099F7740108C082E090E0E80EF91EAE158E
:10040000BF0509F48CC0F701808191814817590715
:1004100091F7840106C00E5F1F4FA017B10709F4C2
:100420007CC0F8018081918128173907A1F786E403
:1004300095E062E072E00E944D0DF50160817181EE
:1004400086E495E04AE050E00E942E0DE818F90895
:10045000F594E79486E495E0B7014AE050E00E9405
:100460002E0D86E495E067E072E00E944D0DF601E6
:100470006081718186E495E04AE050E00E942E0D93
:10048000081919091595079586E495E0B8014AE021
:1004900050E00E942E0D8CE49FEFE80EF91E86E4DA
:1004A00095E06CE072E00E944D0D86E495E0B701A6
:1004B0004AE050E00E942E0D0027F7FC0095102F17
:1004C000C801B7010E944610AB01BC0186EE92E064
:1004D0000E94F90386E495E06AE172E00E946C0DE7
:1004E000C659DE4F0FB6F894DEBF0FBECDBFCF9119
:1004F000DF911F910F91FF90EF90DF90CF90BF9011
:10050000AF909F908F90089586EE92E04DEC5CEC5A
:100510006CEC7DE30E94F903F0CE8B0188CF7B0168
:1005200078CF0F931F93DF93CF93CDB7DEB76F973D
:100530000FB6F894DEBF0FBECDBF8EE189830E9457
:100540002F068E010E5F1F4FC801BE016F5F7F4FE8
:100550000E94CC06882359F46F960FB6F894DEBF3C
:100560000FBECDBFCF91DF911F910F910895C801AC
:1005700061E272E00E944501009741F486E390E059
:100580009093E5028093E4020E946101C8016AE24F
:1005900072E00E944501009741F487E390E0909358
:1005A000E5028093E4020E946101C80163E372E006
:1005B0000E944501009741F488E390E09093E502A2
:1005C0008093E4020E946101C8016CE372E00E9422
:1005D0004501009771F48BEE92E04DEC5CEC6CEC15
:1005E0007DEB0E94F9038FEF9FEF9093F1028093D0
:1005F000F002C80161E472E00E944501009771F4C5
:100600008BEE92E04DEC5CEC6CEC7DE30E94F90328
:1006100081E090E09093F1028093F002C80167E4DA
:1006200072E00E944501009761F428E088E190E0C3
:100630000FB6F894A895809360000FBE20936000D9
:10064000FFCFF8018081882309F086CF8FEF9FEFDD
:100650009093F1028093F0028BEE92E04DEC5CEC13
:100660006CEC7DEB0E94F90377CF0F931F9306E4A8
:1006700015E0C80140E855E260E070E00E9486099C
:10068000C8016FE472E00E946C0D82E00E94B60423
:1006900083E00E94B90484E00E94BC0481E00E94CF
:1006A000BF0480ED97E00E94FE060E94250686EEBC
:1006B00092E00E9447048BEE92E00E9447041F9153
:1006C0000F9108950F93FC0160834183228303837C
:1006D0000F910895CF92DF92EF92FF920F931F93A5
:1006E000CF93DF93EC016B016115710599F1EE2455
:1006F000FF2407E029C00C83EC81F0E0E255FD4FB8
:100700008081182F60E010FD61E088810E943D0F1C
:1007100060E011FD61E089810E943D0F60E012FD03
:1007200061E08A810E943D0F60E013FD61E08B81F2
:100730000E943D0F80ED97E00E94DA0D0894E11CC5
:10074000F11CEC14FD0430F48C818823A1F281505B
:100750008C83D2CFDF91CF911F910F91FF90EF90BB
:10076000DF90CF900895CF92DF92EF92FF921F9388
:10077000CF93DF93EC016B016115710591F1EE24CC
:10078000FF242AC08F5F8C83EC81F0E0E255FD4F9F
:100790008081182F60E010FD61E088810E943D0F8C
:1007A00060E011FD61E089810E943D0F60E012FD73
:1007B00061E08A810E943D0F60E013FD61E08B8162
:1007C0000E943D0F80ED97E00E94DA0D0894E11C35
:1007D000F11CEC14FD0428F48C81873099F61C82FE
:1007E000D3CFDF91CF911F91FF90EF90DF90CF900B
:1007F0000895AF92BF92CF92DF92EF92FF920F9344
:100800001F93CF93DF93EC015A016B01CB01BA0127
:1008100028ED31E843EB5DE30E94AB0F7B018C01D7
:1008200020E030E040E050E00E94F61018161CF581
:10083000C801B7010E9418108B01C601B50120E064
:1008400030E040E050E00E94F61088237CF0CE01BA
:10085000B8010E94B303DF91CF911F910F91FF90D8
:10086000EF90DF90CF90BF90AF900895CE01B80188
:100870000E946A03F0CFC601B50128ED31E843EBD1
:100880005DEB0E94AB0F0E9418108B01D6CF0F9327
:100890001F938C01FC01808161E00E947B0EF801B6
:1008A000818161E00E947B0EF801828161E00E94FB
:1008B0007B0EF801838161E00E947B0EF8011482B7
:1008C000808160E00E943D0FF801818160E00E941C
:1008D0003D0FF801828160E00E943D0FF8018381A5
:1008E00061E00E943D0F1F910F9108956827462FE8
:1008F0004295407F462750E0742F6627292F30E02D
:10090000622B732BCA01880F991F880F991F880FBC
:10091000991F68277927529542954F7045275F7038
:10092000452764277527CB0108950F931F93CF9315
:10093000DF936623C1F06150EC012FEF3FEF062FEC
:1009400010E00F5F1F4F080F191F6991C9010E9426
:1009500076049C01C017D107C1F7C901DF91CF917F
:100960001F910F9108952FEF3FEFF7CF809367020C
:1009700008958093660208958093AC020895809351
:100980001C0308959091F402992329F080911D038E
:100990008F5F80931D0380911E03981709F49BC0FD
:1009A00020911F03203508F483C08DE1820F8093CE
:1009B0001F0390931E03982F903A08F48BC0209148
:1009C00020033091210336952795309321032093FE
:1009D000200380911D03853028F038603093210377
:1009E00020932003905A90931F0310921D0380912F
:1009F0001B03882309F45EC0809122038F5F8093DC
:100A000022038C3008F466C04091200350912103EA
:100A1000942F9F7320E030E0F901EA54FD4F80816C
:100A2000981709F460C02F5F3F4F20313105A1F7BF
:100A3000E0E00024440F551F001C440F551F001C0C
:100A4000452F502D242FA6EBB2E090E08C91281773
:100A500009F447C09F5F11969031C1F780E0982F4D
:100A60009E2B8091FC02882331F490932303892FDD
:100A700084508B31E0F58091FC02E82FF0E0E350E8
:100A8000FD4F90838F5F8093FC029091FC028091D8
:100A90002303981750F010921B03809125038F5F5A
:100AA0008093250381E08093FB0210922203089536
:100AB0008BE07CCF809120039091210388539B4051
:100AC00049F481E080931B03109222031092FC02F0
:100AD0001092FB02089590911F039C5E90931F0358
:100AE0006BCF892FBCCFE22FE295E07FA2CF10928F
:100AF0001B03809124038F5F8093240308952F921A
:100B00003F924F925F926F927F928F929F92AF929D
:100B1000BF92CF92DF92FF920F931F93DF93CF93F9
:100B2000CDB7DEB72E970FB6F894DEBF0FBECDBFA0
:100B30001B012A01DE011196E6ECF2E02EE00190A5
:100B40000D922150E1F7009709F47AC0BC0180E0D2
:100B500090E00E9444109B01AC0160E070E080E8EE
:100B60009FE30E94AB0F20E030E040E05EE30E9494
:100B7000FA105B016C018E010D5F1F4FFF24F3948F
:100B8000310188249924F8016081718180E090E02E
:100B90000E9444109B01AC0160E074E284E79BE496
:100BA0000E94AB0F9B01AC0160E070E080E89FE326
:100BB0000E94AB0F9B01AC01C601B5010E94AB0FB7
:100BC0000E941310623071058105910538F0A4016F
:100BD0009301661577058805990578F1F3940E5F02
:100BE0001F4FF7E0FF1679F6623071058105910518
:100BF00038F1910140E050E02617370748075907C0
:100C0000F8F0F201718360838F2D2E960FB6F89461
:100C1000DEBF0FBECDBFCF91DF911F910F91FF902F
:100C2000DF90CF90BF90AF909F908F907F906F900C
:100C30005F904F903F902F900895E6E0FE16E1F60A
:100C4000F20111821082FF24DFCF8091F20288230B
:100C500029F481E08093F20210921B0308958091A1
:100C6000FB028823E1F308958091AC0260911C039C
:100C70000E943D0F8091670260E00E943D0F10923C
:100C8000F30208951F920F920FB60F920BB60F92B8
:100C900011242F933F934F935F936F937F938F9381
:100CA0009F93AF93BF93EF93FF938091F2028823BA
:100CB00029F08091F302882309F459C08091F3024E
:100CC000882309F44EC09091F502892F9F5F90937D
:100CD000F5028823F9F0983010F01092F502809117
:100CE000F202882321F08091F3028823E9F1FF9139
:100CF000EF91BF91AF919F918F917F916F915F9194
:100D00004F913F912F910F900BBE0F900FBE0F9000
:100D10001F901895E091F6028091F702E81770F5A0
:100D2000809167029091FA0221E030E0092E02C022
:100D3000220F331F0A94E2F7F0E0E859FD4F60817B
:100D400062239F5F9093FA020E943D0F8091FA0206
:100D5000863038F01092FA028091F6028F5F80930D
:100D6000F6029091F502B7CF0E94C204C0CF8091E5
:100D700066020E94730F8093F402A0CF0E94340693
:100D80008091F8029091F90201969093F902809374
:100D9000F8029091F5029FCF0F931F93282FFB012C
:100DA0008091FB02882301F14091FC024350808135
:100DB0004817C0F0482F0EEF12E0822FB80150E024
:100DC0000E943C011092FB026091FC02C801019755
:100DD0000E94950420E0885B904F59F0822F1F916C
:100DE0000F9108954083E7CF20E0822F1F910F914C
:100DF000089521E0822F1F910F910895DF93CF93E3
:100E00000F920F92CDB7DEB76FEF7FEFAE014F5F5E
:100E10005F4F0E947F05982F882351F11092800028
:100E200088E08093810080918100892B80938100EC
:100E300089819A81909389008093880080916F00C6
:100E4000826080936F008091670261E00E947B0E58
:100E50008091660260E00E947B0E8091AC0261E0AE
:100E60000E947B0E8091AC0260911C030E943D0F9A
:100E70000F900F90CF91DF91089508951F920F92D8
:100E80000FB60F920BB60F9211242F933F934F93EF
:100E90008F939F93EF93FF938091C00082FD2AC0B0
:100EA0004091C60020916603309167032F5F3F4F4A
:100EB0002F73307080916803909169032817390768
:100EC00059F0E0916603F0916703EA5DFC4F4083BF
:100ED0003093670320936603FF91EF919F918F9169
:100EE0004F913F912F910F900BBE0F900FBE0F901F
:100EF0001F9018958091C600EFCF08951F920F9212
:100F00000FB60F920BB60F9211242F933F934F936E
:100F10008F939F93EF93FF938091C80082FD2AC027
:100F20004091CE002091EE033091EF032F5F3F4FB1
:100F30002F7330708091F0039091F10328173907D7
:100F400059F0E091EE03F091EF03E255FC4F40833E
:100F50003093EF032093EE03FF91EF919F918F91D8
:100F60004F913F912F910F900BBE0F900FBE0F909E
:100F70001F9018958091CE00EFCF08951F920F9289
:100F80000FB60F920BB60F9211242F933F934F93EE
:100F90008F939F93EF93FF938091D00082FD2AC09F
:100FA0004091D60020917604309177042F5F3F4F17
:100FB0002F73307080917804909179042817390745
:100FC00059F0E0917604F0917704EA5CFB4F40839E
:100FD0003093770420937604FF91EF919F918F9146
:100FE0004F913F912F910F900BBE0F900FBE0F901E
:100FF0001F9018958091D600EFCF08951F920F9201
:101000000FB60F920BB60F9211242F933F934F936D
:101010008F939F93EF93FF938091300182FD2AC0BD
:10102000409136012091FE043091FF042F5F3F4F25
:101030002F733070809100059091010528173907B2
:1010400059F0E091FE04F091FF04E254FB4F40831D
:101050003093FF042093FE04FF91EF919F918F91B5
:101060004F913F912F910F900BBE0F900FBE0F909D
:101070001F90189580913601EFCFE0915205F091C5
:101080005305E05CFF4F8191919120813181821B5A
:10109000930B8F739070892BD1F5E0917405F091CB
:1010A0007505E05CFF4F8191919120813181821B18
:1010B000930B8F739070892B39F5E0919605F09121
:1010C0009705E05CFF4F8191919120813181821BD6
:1010D000930B8F739070892BA1F4E091B805F09178
:1010E000B905E05CFF4F8191919120813181821B94
:1010F000930B8F739070892B09F408950E94FD075C
:1011000008950E94BD07E9CF0E947D07D6CF0E94B7
:101110003D07C3CF1F920F920FB60F920BB60F92DF
:1011200011242F933F938F939F93EF93FF932091DD
:10113000AA033091AB038091AC039091AD032817C3
:10114000390709F1E091AC03F091AD03E659FC4F8A
:1011500020818091AC039091AD0301968F739070C4
:101160009093AD038093AC032093C600FF91EF9161
:101170009F918F913F912F910F900BBE0F900FBEBB
:101180000F901F9018958091C1008F7D8093C100B2
:10119000EDCF1F920F920FB60F920BB60F92112444
:1011A0002F933F938F939F93EF93FF93209132045C
:1011B0003091330480913404909135042817390715
:1011C00009F1E0913404F0913504EE50FC4F208198
:1011D000809134049091350401968F7390709093B0
:1011E0003504809334042093CE00FF91EF919F91BA
:1011F0008F913F912F910F900BBE0F900FBE0F90CC
:101200001F9018958091C9008F7D8093C900EDCF04
:101210001F920F920FB60F920BB60F9211242F93BD
:101220003F938F939F93EF93FF932091BA04309154
:10123000BB048091BC049091BD042817390709F1C3
:10124000E091BC04F091BD04E658FB4F20818091F1
:10125000BC049091BD0401968F7390709093BD046F
:101260008093BC042093D600FF91EF919F918F91C2
:101270003F912F910F900BBE0F900FBE0F901F90BC
:1012800018958091D1008F7D8093D100EDCF1F9272
:101290000F920FB60F920BB60F9211242F933F931C
:1012A0008F939F93EF93FF932091420530914305D5
:1012B00080914405909145052817390709F1E0917F
:1012C0004405F0914505EE5FFA4F20818091440579
:1012D0009091450501968F7390709093450580938A
:1012E000440520933601FF91EF919F918F913F919B
:1012F0002F910F900BBE0F900FBE0F901F9018955F
:10130000809131018F7D80933101EDCFDF92EF929B
:10131000FF920F931F93CF93DF93EC017A018B0120
:10132000DD24403081EE580780E0680780E07807D0
:1013300021F1DD24D394EC89FD8981E090E008A0BF
:1013400002C0880F991F0A94E2F7808360E079E079
:101350008DE390E0A80197010E947C11215030405C
:1013600040405040569547953795279580E120306D
:101370003807D0F0DD20C1F0DD24EC89FD89108232
:1013800060E874E88EE190E0A80197010E947C116A
:10139000215030404040504056954795379527950D
:1013A00080E12030380730F7E889F9893083EA890D
:1013B000FB89208319A2EE89FF89408121E030E07A
:1013C000C9010C8C02C0880F991F0A94E2F7482BC0
:1013D0004083EE89FF894081C9010D8C02C0880FCE
:1013E000991F0A94E2F7482B4083EE89FF894081D8
:1013F000C9010E8C02C0880F991F0A94E2F7482B8E
:101400004083EE89FF8980810F8C02C0220F331F39
:101410000A94E2F7209528232083DF91CF911F9132
:101420000F91FF90EF90DF900895DC011C96ED91F5
:10143000FC911D97E05CFF4F21913191808191815A
:10144000281B390B2F733070C9010895DC011C96DD
:10145000ED91FC911D97E05CFF4F20813181E054BC
:10146000F040DF01AE5BBF4F8D919C911197281723
:10147000390749F08D919C91E80FF91F8081282F41
:1014800030E0C90108952FEF3FEFC9010895DC0155
:101490001C96ED91FC911D97E05CFF4F20813181FE
:1014A000E054F040DF01AE5BBF4F8D919C911197EE
:1014B0002817390791F08D919C911197E80FF91F2A
:1014C00020818D919C91119701968F739070119648
:1014D0009C938E9330E0C90108952FEF3FEFC9012F
:1014E0000895FC0181A1882311F411A20895A48913
:1014F000B5898C9186FFFDCF11A20895CF93DF931C
:10150000EC01AE85BF85AD01405C5F4FFA012081E3
:1015100031812F5F3F4F2F733070FD01EE5BFF4F26
:101520008081918128173907D9F3FA01808191814F
:10153000A80FB91F6C93EE85FF85E05CFF4F3183E8
:101540002083EE89FF89208181E090E00F8C02C02A
:10155000880F991F0A94E2F7282B208381E089A342
:10156000EC89FD8980818064808381E090E0DF9157
:10157000CF9108951F93109249051092480528EEC7
:1015800033E040E050E020934A0530934B05409310
:101590004C0550934D0568ED72E0709347056093DC
:1015A000460586E293E090935305809352058AE6C0
:1015B00093E0909355058093540585EC90E09093CB
:1015C00057058093560584EC90E0909359058093DD
:1015D000580580EC90E090935B0580935A0581EC70
:1015E00090E090935D0580935C0582EC90E0909391
:1015F0005F0580935E0586EC90E090936105809393
:10160000600514E010936205B3E0B0936305A7E0B2
:10161000A0936405F5E0F0936505E1E0E0936605CD
:1016200010926B0510926A0520936C0530936D053E
:1016300040936E0550936F0570936905609368053C
:101640008EEA93E0909375058093740582EF93E0A2
:1016500090937705809376058DEC90E090937905D3
:10166000809378058CEC90E090937B0580937A05CD
:1016700088EC90E090937D0580937C0589EC90E068
:1016800090937F0580937E058AEC90E0909381058E
:10169000809380058EEC90E0909383058093820583
:1016A00010938405B0938505A0938605F093870574
:1016B000E093880510928D0510928C0520938E057D
:1016C00030938F05409390055093910570938B054F
:1016D00060938A0586E394E090939705809396053E
:1016E0008AE794E0909399058093980585ED90E0C2
:1016F00090939B0580939A0584ED90E090939D05CF
:1017000080939C0580ED90E090939F0580939E05CB
:1017100081ED90E09093A1058093A00582ED90E08B
:101720009093A3058093A20586ED90E09093A50584
:101730008093A4051093A605B093A705A093A805D0
:10174000F093A905E093AA051092AF051092AE059B
:101750002093B0053093B1054093B2055093B30583
:101760007093AD056093AC058EEB94E09093B90552
:101770008093B80582E095E09093BB058093BA050D
:1017800085E391E09093BD058093BC0584E391E0EF
:101790009093BF058093BE0580E391E09093C105CF
:1017A0008093C00581E391E09093C3058093C205C7
:1017B00082E391E09093C5058093C40586E391E0B0
:1017C0009093C7058093C6051093C805B093C905CB
:1017D000A093CA05F093CB05E093CC051F91089523
:1017E0000E94E40D0E9435030E9491028DE398E06F
:1017F000892B29F00E943D080E949102FBCF0E9494
:1018000091020E949102FBCFCF92DF92EF92FF9262
:101810000F931F93CF93DF937C016B01EA01411576
:101820005105D9F000E010E0D6016D916D01D701AE
:10183000ED91FC910190F081E02DC7011995080F01
:10184000191F219789F7C801DF91CF911F910F913F
:10185000FF90EF90DF90CF90089500E010E0F3CF7D
:10186000EF92FF920F931F938C01DC01ED91FC919D
:101870000190F081E02D6DE019957C01D801ED918A
:10188000FC910190F081E02DC8016AE019959C015E
:101890002E0D3F1DC9011F910F91FF90EF900895EC
:1018A0004F925F927F928F929F92AF92BF92CF9210
:1018B000DF92EF92FF920F931F93DF93CF93CDB7F9
:1018C000DEB7A1970FB6F894DEBF0FBECDBF2C01D7
:1018D000742ECB01223008F460C0822E9924AA24F1
:1018E000BB2419A221E2C22ED12CCC0EDD1E0BC0CE
:1018F000405DF6014083E114F1040105110501F199
:101900007E2C5F2DC801672D752FA50194010E94C3
:101910007C1179018A01C801B701A50194010E94D7
:101920005D11472D461B0894C108D1084A3004F3C5
:10193000495CF6014083E114F1040105110501F74A
:10194000C114D10481F1D6010D900020E9F711975F
:10195000AC19BD09F20180819181FC0122813381A2
:10196000C201B601AD01F90119959C01C901A19609
:101970000FB6F894DEBF0FBECDBFCF91DF911F91A0
:101980000F91FF90EF90DF90CF90BF90AF909F901E
:101990008F907F905F904F9008953AE0832E912C26
:1019A000A12CB12C9ECF20E030E0E0CFCF92DF928F
:1019B000EF92FF920F931F93CF93DF93EC016A0195
:1019C0007B0121153105B9F02A30310539F477FD55
:1019D0001BC02AE00E94500C9C0103C00E94500CC6
:1019E0009C01C901DF91CF911F910F91FF90EF9062
:1019F000DF90CF900895E881F9810190F081E02D8A
:101A0000642F19959C01EDCFE881F9810190F08157
:101A1000E02D6DE219958C0144275527BA014C1928
:101A20005D096E097F09CE012AE00E94500C9801E1
:101A3000280F391FD6CFEF92FF920F931F937B0190
:101A40009A010027F7FC0095102FB801A7010E940A
:101A5000D60C1F910F91FF90EF900895CF92DF92D7
:101A6000EF92FF920F931F936C017B019A01002765
:101A7000F7FC0095102FB801A7010E94D60C8C012D
:101A8000C6010E94300C080F191FC8011F910F9149
:101A9000FF90EF90DF90CF900895CF93DF93EC010C
:101AA0006115710599F0DB010D900020E9F71197A0
:101AB000A61BB70BE881F9810280F381E02DAD010F
:101AC00019959C01C901DF91CF91089520E030E084
:101AD000C901DF91CF9108950F931F93CF93DF93A7
:101AE000EC0161157105D9F0DB010D900020E9F7DB
:101AF0001197A61BB70BE881F9810280F381E02DD5
:101B0000AD0119958C01CE010E94300C9801280F6F
:101B1000391FC901DF91CF911F910F91089500E006
:101B200010E0F1CF1F920F920FB60F9211242F9356
:101B30003F938F939F93AF93BF938091D2059091E2
:101B4000D305A091D405B091D5053091D605019665
:101B5000A11DB11D232F2D5F2D3720F02D5701968C
:101B6000A11DB11D2093D6058093D2059093D30576
:101B7000A093D405B093D5058091CE059091CF0563
:101B8000A091D005B091D1050196A11DB11D809302
:101B9000CE059093CF05A093D005B093D105BF910A
:101BA000AF919F918F913F912F910F900FBE0F900A
:101BB0001F901895019739F0880F991F880F991F6A
:101BC00002970197F1F70895789484B5826084BDF7
:101BD00084B5816084BD85B5826085BD85B5816031
:101BE00085BDEEE6F0E0808181608083E1E8F0E091
:101BF0001082808182608083808181608083E0E8C0
:101C0000F0E0808181608083E1EBF0E0808184609E
:101C10008083E0EBF0E0808181608083E1E9F0E0A7
:101C2000808182608083808181608083E0E9F0E050
:101C3000808181608083E1EAF0E08081826080833E
:101C4000808181608083E0EAF0E080818160808330
:101C5000E1E2F1E080818260808380818160808325
:101C6000E0E2F1E0808181608083EAE7F0E080815A
:101C700084608083808182608083808181608083B2
:101C80008081806880831092C1000895382F863348
:101C900008F0365320917B00832F86958695869594
:101CA00090E081709070880F991F880F991F880F9E
:101CB000991F277F282B20937B0037708091AD02DE
:101CC0008295880F880F807C832B80937C00809185
:101CD0007A00806480937A0080917A0086FDFCCF40
:101CE0002091780040917900942F80E030E0282BFB
:101CF000392BC9010895CF93DF93482F50E0CA01D3
:101D000088589E4FFC0134914E5C5E4FFA018491DD
:101D10008823B9F090E0880F991FFC01EC51FF4F28
:101D2000A591B491FC01E250FF4FC591D491662377
:101D300059F06230B9F09FB7F8948C91832B8C9353
:101D40009FBFDF91CF9108952FB7F8948C91932F77
:101D5000909589238C938881892388832FBFDF9175
:101D6000CF9108952FB7F8948C91932F9095892354
:101D70008C938881832B88832FBFE3CF893009F42C
:101D80005EC08A3070F08D3009F45FC08E30D0F0C4
:101D9000803109F46CC0813109F463C08F30C9F11E
:101DA0000895843009F445C08530B8F08730B9F122
:101DB000883048F58630A1F78091B0008F77809306
:101DC000B00008958B3009F446C08C30B0F080919B
:101DD000A0008F7D8093A0000895823031F1833080
:101DE00030F48130E9F684B58F7784BD0895809111
:101DF00080008F7780938000089580919000877F86
:101E0000809390000895809190008F778093900048
:101E10000895809120018F7780932001089580910B
:101E2000B0008F7D8093B000089584B58F7D84BD10
:101E30000895809180008F7D809380000895809127
:101E400090008F7D8093900008958091A000877FFF
:101E50008093A00008958091A0008F778093A000C8
:101E6000089580912001877F8093200108958091BB
:101E700020018F7D809320010895FF920F931F937F
:101E8000F62E482F50E0CA0182549E4FFC01249147
:101E9000CA0188589E4FFC0104914E5C5E4FFA01C6
:101EA0001491112399F02223D1F4E12FF0E0EE0FE9
:101EB000FF1FE250FF4FA591B4919FB7F894FF2008
:101EC00049F48C91009580238C939FBF1F910F91B3
:101ED000FF9008958C91802B8C939FBFF7CF822F1A
:101EE0000E94BE0EE2CF0F931F93482F50E0CA010D
:101EF00082549E4FFC012491CA0188589E4FFC01D8
:101F000004914E5C5E4FFA0114911123D1F022230B
:101F1000F1F4812F90E0880F991F885E9E4FFC019D
:101F2000A591B4918C9120E030E0802321F4C90187
:101F30001F910F91089521E030E0C9011F910F9189
:101F4000089520E030E0C9011F910F910895822F7C
:101F50000E94BE0EDECF0CD00FC107D140F0FED0E4
:101F600030F021F45F3F19F0F0C0511139C1F3C0D6
:101F700014D198F39923C9F35523B1F3951B550B4D
:101F8000BB27AA2762177307840738F09F5F5F4F4C
:101F9000220F331F441FAA1FA9F333D00E2E3AF08D
:101FA000E0E830D091505040E695001CCAF729D0A7
:101FB000FE2F27D0660F771F881FBB1F26173707F6
:101FC0004807AB07B0E809F0BB0B802DBF01FF2726
:101FD00093585F4F2AF09E3F510568F0B6C000C18C
:101FE0005F3FECF3983EDCF3869577956795B79560
:101FF000F7959F5FC9F7880F911D9695879597F97B
:102000000895E1E0660F771F881FBB1F62177307F3
:102010008407BA0720F0621B730B840BBA0BEE1F08
:1020200088F7E095089504D06894B111D9C0089557
:10203000BCD088F09F5790F0B92F9927B751A0F0E6
:10204000D1F0660F771F881F991F1AF0BA95C9F74C
:1020500012C0B13081F0C3D0B1E00895C0C0672F85
:10206000782F8827B85F39F0B93FCCF386957795FC
:102070006795B395D9F73EF49095809570956195E5
:102080007F4F8F4F9F4F0895E89409C097FB3EF410
:1020900090958095709561957F4F8F4F9F4F9923B5
:1020A000A9F0F92F96E9BB279395F6958795779533
:1020B0006795B795F111F8CFFAF4BB0F11F460FFF3
:1020C0001BC06F5F7F4F8F4F9F4F16C0882311F04B
:1020D00096E911C0772321F09EE8872F762F05C05F
:1020E000662371F096E8862F70E060E02AF09A95FA
:1020F000660F771F881FDAF7880F9695879597F9EF
:102100000895990F0008550FAA0BE0E8FEEF161688
:102110001706E807F907C0F012161306E407F507DB
:1021200098F0621B730B840B950B39F40A2661F04F
:10213000232B242B252B21F408950A2609F4A140F2
:10214000A6958FEF811D811D089597F99F6780E8FF
:1021500070E060E008959FEF80EC089500240A94F9
:102160001616170618060906089500240A94121672
:102170001306140605060895092E0394000C11F4A5
:10218000882352F0BB0F40F4BF2B11F460FF04C052
:102190006F5F7F4F8F4F9F4F089557FD9058440FAB
:1021A000551F59F05F3F71F04795880F97FB991FB6
:1021B00061F09F3F79F08795089512161306140673
:1021C000551FF2CF4695F1DF08C016161706180600
:1021D000991FF1CF86957105610508940895E894DB
:1021E000BB2766277727CB0197F908958ADF08F484
:1021F0008FEF08950BD0C0CFB1DF28F0B6DF18F015
:10220000952309F0A2CFA7CF1124EACFC6DFA0F310
:10221000959FD1F3950F50E0551F629FF001729F7B
:10222000BB27F00DB11D639FAA27F00DB11DAA1F9A
:10223000649F6627B00DA11D661F829F2227B00DE7
:10224000A11D621F739FB00DA11D621F839FA00D72
:10225000611D221F749F3327A00D611D231F849FC2
:10226000600D211D822F762F6A2F11249F57504019
:102270008AF0E1F088234AF0EE0FFF1FBB1F661FB4
:10228000771F881F91505040A9F79E3F510570F06D
:102290005CCFA6CF5F3FECF3983EDCF38695779555
:1022A0006795B795F795E7959F5FC1F7FE2B880F68
:1022B000911D9695879597F90895629FD001739F18
:1022C000F001829FE00DF11D649FE00DF11D929FD2
:1022D000F00D839FF00D749FF00D659FF00D992711
:1022E000729FB00DE11DF91F639FB00DE11DF91F35
:1022F000BD01CF0111240895A1E21A2EAA1BBB1B18
:10230000FD010DC0AA1FBB1FEE1FFF1FA217B307C1
:10231000E407F50720F0A21BB30BE40BF50B661FD7
:10232000771F881F991F1A9469F76095709580959B
:1023300090959B01AC01BD01CF010895EE0FFF1FE9
:0C2340000590F491E02D1994F894FFCF63
:10234C003D004D61783A004D696E3A00526F7461F0
:10235C00746520616E676C653A0046696E697368D6
:10236C00004348414E4E454C31004348414E4E458A
:10237C004C32004348414E4E454C33004C4546547C
:10238C00005249474854005245535441525400534B
:10239C00746174696F6E2073657475702066696EF4
:1023AC006973686564000B0C2A2A2A2A2A2A382C9D
:1023BC000000000000000000000000000000000011
:1023CC000000000000000000000000000000000001
:1023DC0000000000000000000000000000000000F1
:1023EC000000000000000000000000000A01080CC2
:1023FC000406020301090D0E131516191A1C2325C8
:10240C0026292A2C3234000001000800400000016B
:10241C000004050D000000007E0A040C150A470A92
:04242C00260A710A01
:00000001FF
